:020000040800F2
:1000000068C40020D50300086962000897590008F9
:1000100065620008372100088D9B00080000000081
:1000200000000000000000000000000015030008B0
:10003000572C00080000000071030008798F0008A9
:10004000EF030008EF030008EF030008EF030008C8
:10005000EF030008EF030008892C0008EF030008F5
:10006000EF030008932C00089D2C0008EF03000804
:10007000EF030008EF030008EF030008EF03000898
:10008000EF030008EF030008EF030008EF03000888
:100090003D210008EF030008EF030008A72C00082B
:1000A000EF030008EF030008EF030008EF03000868
:1000B000EF030008EF030008EF030008EF03000858
:1000C000EF030008EF030008EF030008EF03000848
:1000D000EF03000825990008EF0300083599000890
:1000E000EF030008EF030008EF030008EF03000828
:1000F000EF030008EF030008EF030008EF03000818
:10010000EF030008EF030008EF030008EF03000807
:10011000EF030008EF030008EF030008EF030008F7
:10012000EF030008C1220008D1220008EF030008F5
:10013000EF030008EF030008EF030008EF030008D7
:100140004D210008EF030008EF030008EF0300084B
:10015000EF030008692B0008EF030008659A000808
:10016000EF030008EF030008EF030008EF030008A7
:10017000EF030008EF030008EF0300080000000091
:10018000EF030008EF03000800F002F800F0B2F8F7
:100190000AA090E8000C82448344AAF10107DA45E2
:1001A00001D100F0A7F8AFF2090EBAE80F0013F082
:1001B000010F18BFFB1A43F0010318477CFB000036
:1001C0009CFB00000A444FF0000C10F8013B13F0B8
:1001D000070408BF10F8014B1D1108BF10F8015BA0
:1001E000641E05D010F8016B641E01F8016BF9D193
:1001F00013F0080F1EBF10F8014BAD1C0C1B09D1EA
:100200006D1E58BF01F801CBFAD505E014F8016B5B
:1002100001F8016B6D1EF9D59142D6D370470000ED
:100220000023002400250026103A28BF78C1FBD8FF
:10023000520728BF30C148BF0B6070476E2900F0DD
:100240005383702900F0958466290EF05F86652936
:100250000EF05C8667290EF0598661290EF05886EB
:1002600003681B0A28BF41F08001692900F0008360
:10027000642900F0FD82752900F0FA826F2900F0F0
:100280002284782900F06184E92900F0BD83E42903
:1002900000F0BA83F52900F0B783EF2900F01F843E
:1002A000F82900F060840368DB0928BF41F0800171
:1002B000632901F07F81732901F08481E32901F032
:1002C0008F81F32901F09481002070471FB50EF053
:1002D00065FD01F0DFF90400002000210DF03CFE77
:1002E000401C6060002000210DF020FEE0601FBD7A
:1002F00010B510BD01F0A1F91146FFF7E7FF0BF0B3
:10030000D9F901F07DFA03B4FFF7F2FF03BC01F065
:100310008DFA00002C4B19680868B0E8F04F80F3A4
:100320000988BFF36F8F4FF0000080F3118870478A
:100330000000000008480068006880F308884FF05B
:10034000000080F3148862B661B6BFF34F8FBFF32D
:100350006F8F00DF00BF00BF08ED00E0DFF80C008A
:10036000016841F470010160704700BF88ED00E052
:10037000EFF30980BFF36F8F134B1A681EF0100F55
:1003800008BF20ED108A20E9F04F106009B44FF04B
:10039000500080F31188BFF34F8FBFF36F8F0CF0C5
:1003A0006DFE4FF0000080F3118809BC19680868E1
:1003B000B0E8F04F1EF0100F08BFB0EC108A80F3C9
:1003C0000988BFF36F8F70473C000020EFF3058072
:1003D000704700000948804709480047FEE7FEE7EC
:1003E000FEE7FEE7FEE7FEE7FEE7FEE7FEE7FEE7E5
:1003F00004480549054A064B704700006190000813
:10040000890100086884002068C4002068A40020D6
:1004100068A400209FED1A1AF5EE000A40EE010ACA
:10042000BDEEE00AF5EEC00A10EE100AF1EE10FA89
:1004300038BF401E00EE100A1349F7EE001AB8EE5E
:10044000C00A30EEC00ADFED0F0A20EE200AFCEEF3
:10045000C00A10EE900AC0F3080000EE900A01EB0B
:100460008000F8EE600A90ED011A70EE600A90EDDF
:10047000000A71EEE01A21EE800A00EE810A704750
:1004800083F9223E0000004410F40008DFED190A51
:10049000B5EEC00A60EE200ABDEEE01A11EE100AB9
:1004A000F1EE10FA38BF401E00EE100A1349F7EEC5
:1004B000001AB8EEC00A30EEC00ADFED0F0A60EE97
:1004C000200ABCEEE00A10EE100AC0F3080000EEAD
:1004D000100A01EB8000B8EE400A90ED011A70EEB0
:1004E000C00A90ED000A71EEE01A21EE800A00EEDB
:1004F000810A704783F9223E0000004410F400088E
:1005000053EA020C00F069802DE9F04B4FF0000631
:10051000002B1FBFB3FA83F503FA05F424FA05F69E
:100520005E4012BF1643B2FA82F502FA05F4C5F135
:1005300020051EBF22FA05FC44EA0C04203556EAC9
:10054000044C4FEA144418BF641C4FF000084FF0ED
:100550000009904271EB030C39D3002919BFB1FA9D
:1005600081F701FA07F6B0FA80F700FA07F6C7F14B
:1005700020071EBF20FA07FC46EA0C062037B6FB10
:10058000F4FCA7EB0507103F07F01F0BCBF120068B
:100590000CFA0BFB2CFA06F644BFB3460026202FBC
:1005A000A4BF5E464FF0000B5BEA060C08BF4FF09D
:1005B000010B19EB0B09ABFB027C48EB0608C01BD7
:1005C00006FB02CC0BFB03CC71EB0C01C1E70B4625
:1005D000024641464846BDE8F08B13B54FF0000097
:1005E0004FF00001AFF30080BDE81C4070470000F1
:1005F0001CB50C46064B7B4469460090204600F033
:100600008CF904460020694600F09AF920461CBD8A
:1006100047030000032A40F2308010F0030C00F082
:10062000158011F8013BBCF1020F624498BF11F82C
:1006300001CB00F8013B38BF11F8013BA2F10402E5
:1006400098BF00F801CB38BF00F8013B11F003035D
:1006500000F02580083AC0F0088051F8043B083AC1
:1006600051F804CBA0E80810F5E7121D5CBF51F863
:10067000043B40F8043BAFF30080D20724BF11F8DD
:10068000013B11F801CB48BF11F8012B24BF00F842
:10069000013B00F801CB48BF00F8012B704710B5B3
:1006A000203AC0F00B80B1E81850203AA0E818506A
:1006B000B1E81850A0E81850BFF4F5AF5FEA027C2B
:1006C00024BFB1E81850A0E8185044BF18C918C09A
:1006D000BDE810405FEA827C24BF51F8043B40F83B
:1006E000043B08BF7047D20728BF31F8023B48BF20
:1006F00011F8012B28BF20F8023B48BF00F8012B5E
:10070000704702F0FF0343EA032242EA024200F08C
:1007100002B84FF000020429C0F0128010F0030C60
:1007200000F01B80CCF1040CBCF1020F18BF00F8E4
:10073000012BA8BF20F8022BA1EB0C0100F00DB893
:100740005FEAC17C24BF00F8012B00F8012B48BFF1
:1007500000F8012B70474FF0000200B51346944695
:100760009646203922BFA0E80C50A0E80C50B1F109
:100770002001BFF4F7AF090728BFA0E80C5048BF1D
:100780000CC05DF804EB890028BF40F8042B08BFBB
:10079000704748BF20F8022B11F0804F18BF00F8B7
:1007A000012B704770477047704770B504468569E4
:1007B0000068C10601D5302600E02026C00707D01A
:1007C00070BDD4E9012130469047206A401C206268
:1007D0006D1EF6D570BD70B5044685690078C007FA
:1007E00007D170BDD4E9012120209047206A401C28
:1007F00020626D1EF6D570BD09684A0501D540B26C
:100800007047C905FCD500B2704709684A0501D593
:10081000C0B27047C905FCD580B2704770B50C46B0
:100820000546012A05D02878800600D5EA6900230C
:1008300002E0012305E05B1C934202D2E05C002849
:10084000F9D1A869E618C01AA861286A1844286274
:100850002846FFF7AAFF04E0D5E9012114F8010BAF
:100860009047B442F8D32846FFF7B5FF70BD0000AB
:100870002DE9F0410646002410687529314616A579
:1008800010D0FFF7B9FF002802DA404213A507E0B5
:1008900031688A0701D512A502E0490704D511A5E0
:1008A000012401E0FFF7B1FF00210A2206F124072D
:1008B00009E0B0FBF2FCB0FBF2F302FB1C003030AD
:1008C00078541846491C0028F3D123462A4630465E
:1008D000BDE8F04100F07EBA000000002D000000ED
:1008E0002B0000002000000011680268006A530518
:1008F00001D508700AE0D30501D5088006E013068B
:1009000003D5C217C1E9000200E00860012070476A
:1009100001694A1C02610878704700B58FB0CDE9C3
:1009200001310021059105497944CDE903101146B3
:10093000684600F029F90FB000BD0000E5FFFFFF99
:100940000A6802F8010B0A60704700002DE9FF5F9A
:1009500015468A460446DFF8AC80F8440027D8E9FB
:1009600000103E46CDE9001010E03AF816106A4635
:1009700002A800F041FE411C07D02178890603D56A
:10098000E269391891420DD80744761C2078800618
:1009900002D5E069B84205DDAE42E6DB3AF8160062
:1009A0000028E2D1A069C01BA0612046FFF7FDFE30
:1009B000D8E90010CDE90010002017E03AF818102F
:1009C0006A4602A800F018FEB0F1FF3F81460BD046
:1009D00000250DF1080B05E0D4E901211BF8050005
:1009E00090476D1C4D45F7D308F10100B042804699
:1009F000E4DB206A384420622046FFF7ECFEBDE8C5
:100A0000FF9F0000B6F200002DE9F0418046D21DA4
:100A100022F007020025D2E90002F52915A614D01C
:100A2000011E72F1000106DA0023D0EB030063EB34
:100A3000020211A608E0D8F800108B0701D50FA616
:100A400002E0490701D50EA601251146002408F150
:100A5000240704E000F060F930323A55641C50EA93
:100A60000102F7D12B46324621464046BDE8F0410F
:100A700000F0B0B9000000002D0000002B000000C5
:100A80002000000030B4002100F1240408E002F04E
:100A90000705D208303542EA4372DB086554491C29
:100AA00052EA0305F3D10468002310A2250707D5F5
:100AB000A40600D421B1C46901230DA2641EC4613F
:100AC00030BC00F087B910B5044621461068FFF726
:100AD0009CFE02462046BDE810400023D2E7D21D0E
:100AE00022F00701D1E90023CCE70000000000005C
:100AF00030000000F0B40D460188090502D5214CF4
:100B00007C4402E01F4C7C440E34002100F124069A
:100B100008E002F00F071209E75D42EA03721B09C1
:100B20007754491C52EA0307F3D1027800231207D5
:100B300004D5702D06D009B1022311342246F0BC31
:100B400000F048B901231034F8E770B504460D46AB
:100B500021461068FFF759FE024629462046BDE8A7
:100B600070400023C6E7D21D22F00703D3E900231B
:100B7000C0E70368126843F0200303600823C361E1
:100B80000023B7E718F100002DE9F05F894604461D
:100B90004FF0000ADFF874B1FB44C0F820A02046F3
:100BA000E1688847002874D0252806D0D4E90121BF
:100BB0009047206A401C2062F1E700265F462046ED
:100BC000E16888472028054607DB312D05D27819D2
:100BD00010F8200C08B10643F1E7B00701D526F064
:100BE0000406C4F81CA00027C4F818A02A2D09D0B8
:100BF000284609F011F838B304EB8708303DC8F8EF
:100C0000185019E059F8041B204604EB8702916143
:100C1000E1688847012F054618D1E069002820DAED
:100C200026F020061DE0D8F8180000EB800005EB48
:100C300040003038C8F818002046E168884705466B
:100C400008F0EAFF0028EED1012F0AD02E2D08D19E
:100C50002046E16888477F1C0546022F46F02006A3
:100C6000C4DBA069002803DA404246F00106A06117
:100C7000F00701D026F010066C2D0BD0682D09D09E
:100C80004C2D39D06A2D35D0742D35D07A2D33D0F6
:100C900016E038E0E1682F4620468847B84205460E
:100CA00009D16C2F26D04FF48060E16806432046BE
:100CB0008847054604E06C2F1AD04FF48070064335
:100CC0000DB3A5F14100192802D8203546F400667D
:100CD0004A462946204626604E46FFF7AFFA80B1C5
:100CE00001280BD0F61D26F0070000F1080956E791
:100CF0004020E4E78020D8E70020D6E706F1040989
:100D00004DE7284652E7206ABDE8F09FA8F00000B2
:100D1000004870470884002030B5B0F10A024FEA5D
:100D2000900E71F100034EEA817EB0EB0E0061EB94
:100D300091014FEA101E4EEA017E10EB0E0041EBCE
:100D400011114FEA102E4EEA016E10EB0E0041EB2E
:100D500011214FEA104E4EEA014E10EB0E0041EB0E
:100D60001141401841F100014FEAD00040EA4170C2
:100D70004FEAD10110EB80054FEA810444EA9074F8
:100D800044EB01046D1944EB0404521BA3414FF0E2
:100D9000000348BF0A3200D530BD401C41F10001BC
:100DA00030BD00001FB584B000200A9C06AB04AA29
:100DB00002A90094AFF3008018B1DDE9020108B088
:100DC00010BD0348204000F029FD00200146F6E751
:100DD0000000207C2DE9F0470D46994692460446D6
:100DE00000F124080168880604D5E06921F01001AB
:100DF000216000E00120A84201DD471B00E0002740
:100E0000A1697A1902EB0900081AA0612078C006CE
:100E100002D42046FFF7C9FC002608E0D4E90121EE
:100E20001AF806009047206A401C761C20624E4546
:100E3000F4DB2078C0060AD52046FFF7B6FC06E0B2
:100E4000D4E9012130209047206A401C2062381EDE
:100E5000A7F10107F4DC07E0D4E9012118F8050047
:100E60009047206A401C2062281EA5F10105F3DC92
:100E70002046FFF7B0FC2078000602D50220BDE82E
:100E8000F0870120FBE770472DE9FF4F0C461E4617
:100E90004FF0FF378BB0D2E90001DDF860800A9097
:100EA0008A46C1F30A5505B93D46002108460EF0B1
:100EB0001DF8BAF1000F00F4400005DA00EB8000E5
:100EC0004FF4400101EA50004FEA9059B9F1010F87
:100ED00000DDB9460A9850EA4A000ED044F6105098
:100EE000A5F2FF3545432F14B8F1000F1ED075420F
:100EF000291E1EDDC9F100021CE0B8F1010F4FF000
:100F0000000001D0302103E0F24305E02154401CF1
:100F1000B042FBDB30460022002121540B99C1F87E
:100F20000880C1E900200FB0BDE8F08FBD1B6D1C2B
:100F3000DEE74A4600DA694206A800F0EFFB06AB9E
:100F400093E8070003AB83E8070050460A9900F0D6
:100F50002AFD8DE80700A0F500501F380090039887
:100F6000002D0ADD42F21F014A460844002303A96E
:100F70000390684600F093FF09E0A0F500504A4650
:100F80001F38002303A90390684600F09DFF8DE8F9
:100F900007000004000C03D04FF0FF30410800E0D0
:100FA0001046B8F1000F03D00022009215461EE053
:100FB000751E05D4FFF7B0FE303262556D1EF9D5AF
:100FC000B3460122084302D000227F1C04E02078AF
:100FD000302801D100227F1E002A099784D01DE00D
:100FE000112D07DAFFF798FE303262556D1C50EA7A
:100FF0000102F5D1084302D00098C8B10EE00021EB
:10100000681E05E0235C625C63542254401E491C48
:101010008142F7DBAB46A81B401E0990002004F874
:101020000B000B98099AC0F80880C0E9002B7AE7FA
:1010300011264FF0000857E72DE9F04F8846044687
:10104000D21D22F0070191B0D1E90001CDE90A01DA
:1010500008F09EFD02460B98C00F01D02D2007E03E
:101060002068810701D52B2002E0202101EAC00081
:10107000032A099001D0072A05DB03464146204692
:1010800000F00CFB0BE12078800601D5E06900E060
:101090000620B8F1650F814606D0B8F1660F18D06A
:1010A000B8F1670F70D131E00020B9F1110F009055
:1010B00001DB112301E009F101030AAA01A90CA82F
:1010C000FFF7E2FEDDE90C70002609F10105834619
:1010D00047E001204B4600904FF000470AAA01A9C3
:1010E0000CA8FFF7D1FEDDE90DB00C995D46002696
:1010F00010B909F101000D18B9EB050003D4C0F1D6
:10110000FF3609F10105A5EB09002BE0B9F1010F4C
:1011100001DA4FF001090020B9F1110F00904846A3
:1011200001DD112300E003460AAA01A90CA8FFF77C
:10113000ABFEDDE90C704D460026834620780007A3
:101140000AD4AB4500DA5D4601A8012D04DD411942
:1011500011F8011C302907D04F4502DA17F1040FAE
:1011600004DA012082460FE06D1EEEE7002F02DC5C
:10117000ED1B3E4403E0781CA84200DD7D1CB81B3B
:1011800000F1010A4FF000472078000703D4AA4578
:1011900001DB4FF0FF3A0021B7F1004F0DF143089A
:1011A0008DF8431024D002202B23002F01DA7F4238
:1011B0002D230A21021EA0F1010000DC5FB197FB84
:1011C000F1FC97FBF1F201FB1C7C17460CF1300C93
:1011D00008F801CDEEE7A8F10100037021880905A8
:1011E00001D5452100E06521A0F1010800F8011CAE
:1011F00009980FA9A1EB0807FF1D00B101204119B3
:1012000001EBEA70A1693844081A401EA0612078F9
:10121000C00602D42046FFF7C8FA099828B1D4E9DD
:1012200001219047206A401C20622078C00622D508
:101230002046FFF7BAFA1EE0002E04DBB34502DDBC
:1012400001A8805D00E03020D4E901219047206AA8
:10125000401C2062761CAAF101005FEA000A0AD154
:1012600000F018FAC0680168405CD4E90121904799
:10127000206A401C2062281EA5F10105DCDC07E085
:10128000D4E9012118F8010B9047206A401C206224
:10129000381EA7F10107F3DC2046FFF79CFA032074
:1012A00011B041E62DE9F04F04460D46D21D22F063
:1012B000070089B0D0E900974846394608F068FC35
:1012C0000246F80F01D02D2307E02068810701D5E1
:1012D0002B2302E0202101EAC0038DF820300BB15E
:1012E000012000E00020032A824601D0072A04DB07
:1012F0002946204600F0D2F93FE12078800601D44B
:101300000D2500E0E569C7F30A560D2D49DA0021E5
:101310004FEA175B08460DF0E9FD002F00F440008E
:1013200007DA00EB80004FF4400100EBD07001EAD7
:1013300060008115012901DD4FF0FF3100224FEAE5
:10134000850CBCF1180F06D31346ACF118004FF012
:101350008052C24003E04FF4801323FA0CF30CF1E7
:101360000C0CBCF1200F04D3ACF1200C09FA0CF0EA
:1013700001E007FA0CF000294FF0004801DD18B930
:101380000FE00ED140450CD319EB02095F4121B9A2
:10139000404502D19F4329EA0209BBEB175F00D009
:1013A000761C2088000502D57B48784402E07A4804
:1013B0007844193808AA302302F80A30037C0AF16D
:1013C0000101002E0AF1020A53546A4602DC4FF072
:1013D000300101E04FF031014FF001088DF80010AD
:1013E00002D0A6F2FF3603E059EA470100D06B4E67
:1013F000002D02DC2178090704D54FF002082E21C8
:101400008DF80110C44600210BE0C7F303433F01F0
:10141000C35C491C6D1E02F80830052908F101085B
:1014200001DA002DF1DC00210CE000EB1973491CFE
:101430001B786D1E082902F808304FEA091908F1D7
:10144000010801DA002DF0DC21688B0602D516E0D8
:10145000A8F10108E04505DD02EB080313F8013CA3
:10146000302BF5D0B8F1000F09DD02EB080313F8BB
:10147000013C2E2B03D1090701D4A8F10108002D4E
:1014800005DD3E2102F808106D1E08F10108407CC0
:10149000002E02F8080008F1010804DA2D20764237
:1014A00002F8080002E02B2002F808000A214FF49D
:1014B0007A70864208F101080BDB96FBF0F33033BB
:1014C00002F8083096FBF0F308F1010800FB136600
:1014D00001E0642E0CDB642096FBF0F3303302F85D
:1014E000083096FBF0F308F1010800FB136601E0F9
:1014F0000A2E06DB96FBF1F0303002F8080008F106
:10150000010896FBF1F001FB1060303002F8080092
:10151000A16908F1010808EB050202EB0A00081AAC
:10152000A0612078C00602D42046FFF73EF9216A68
:1015300008AE01EB0A00206204E0D4E9012116F8AC
:10154000010B9047BAF1010AF7D22078C00602D504
:101550002046FFF72AF96E4609E016F8010B3E28EF
:101560000FD0D4E901219047206A401C2062B8F1D5
:101570000108F2D22046FFF72EF909B00320BDE89A
:10158000F08F206A2844206203E0D4E90121302052
:1015900090476D1EEBD3F8E7BAE8000002FCFFFFAE
:1015A00010B5436913B1AFF3008001E0FFF736F9DE
:1015B000012010BD127800F124010A7000224A7047
:1015C0000122EDE711684FF0FF32E9E710B54369FA
:1015D00013B1AFF3008001E0FFF7B8F9012010BDAF
:1015E000128800F1240182840022C2840122EDE7E6
:1015F00011684FF0FF32E9E770B516460C46054614
:1016000000F040F8036893F80101012806D0FF2C90
:101610000FD8185D68B101202C7070BDD3F8070198
:101620003246214603F2071303442846BDE87040C2
:1016300018474FF0FF3070BD70477546FFF768FBE5
:10164000AE4605006946534620F00700854618B0AF
:1016500020B5FEF7CDFEBDE820404FF000064FF06C
:1016600000074FF000084FF0000B21F00701AC46D7
:10167000ACE8C009ACE8C009ACE8C009ACE8C009F6
:101680008D46704710B500F005F8001D10BD00BF75
:10169000C9C8000000487047288400202DE9F041A7
:1016A0001F46044603260168072A01F4006004DB94
:1016B00008B116A505E016A503E008B115A500E0E0
:1016C00015A521F010002060A069C01EA0610FB117
:1016D000401EA0612046FFF768F84FB1D4E9012110
:1016E00038469047206A401C2062C01C206206E0F9
:1016F000206AFAE7D4E9012115F8010B9047761E1C
:10170000F8D22046FFF767F8BDE8F0814E414E0061
:101710006E616E00494E4600696E66002DE9F04725
:10172000814616468AB0354878440DC88DE80D00CC
:1017300032487844801C03AC0DC884E80D0041F6A3
:101740009B300844372190FBF1F290FBF1F5A5F1B5
:10175000800501FB12041B3C02D56442012000E01D
:101760000020DFF898A080460027FA44AAF1BE0ABC
:101770000EE0E0070AD03246684607EB4701012336
:101780000AEB810100F0A0FB8DE8070064107F1CCC
:10179000002CEED1194F7F44AE3F19E0E80715D079
:1017A00007EB04100DF1180A90E80E008AE80E000D
:1017B000C068F04201D1981908903246012306A969
:1017C00003A800F081FB03AB83E807006D10641CE5
:1017D000002DE3D14FF0010332466946B8F1000F06
:1017E00003A802D000F05BFB01E000F06DFBC9E94B
:1017F0000001C9F808200AB0BDE8F087CCE5000078
:1018000010B50446AFF300802046BDE81040FEF757
:101810007ABD002801D000F009B8704710B500F07B
:1018200025F8BDE81040FFF7F4BF0000014918207B
:10183000ABBEFEE72600020070B505460C460A2046
:1018400000E06D1C00F0A8F835B128780028F8D128
:1018500002E0641C00F0A0F814B120780028F8D150
:10186000BDE870400A2000F097B8000010B50228CB
:1018700003D0410103D50DA112E0002010BD0101EC
:1018800001D50FA10CE0C10001D511A108E0810034
:1018900001D512A104E0400001D513A100E0002110
:1018A00015A0FFF7C9FF012010BD0000496E766149
:1018B0006C6964204F7065726174696F6E0000001E
:1018C000446976696465204279205A65726F000028
:1018D0004F766572666C6F7700000000556E646528
:1018E00072666C6F77000000496E657861637420E2
:1018F000526573756C7400005349474650453A2051
:1019000041726974686D6574696320657863657098
:1019100074696F6E3A2000004FF0013C50F8042BC0
:1019200051F8043B9A4221D1A2EB0C03934313EAF2
:10193000CC1317D150F8042B51F8043B9A4215D11F
:10194000A2EB0C03934313EACC130BD150F8042BF6
:1019500051F8043B9A4209D1A2EB0C03934313EADA
:10196000CC13DBD04FF00000704700BFD01A01BA93
:10197000B1FA81F101F0180122FA01F0CB40C1F176
:101980002001DBB2C0B2C01A2CFA01F3D11A914384
:1019900011EAC311E6D1704708B569468DF8000019
:1019A0000320ABBE08BD5FEA400C08BF91F0000FFA
:1019B0004FEA8C234FEAC12243EA51514FEA1C50AF
:1019C00018BF00F5F0404FEA300018BF41F0004169
:1019D0005FEA6C5C00F02980BCF1FF3F08BF40F07B
:1019E00080407047130C06BF12044FF0100C4FF0EC
:1019F000000C130E04BF12020CF1080C130F04BFED
:101A000012010CF1040C930F04BF92000CF1020CB4
:101A1000D30F04BF52000CF1010C11464FF000022D
:101A2000A0F11F00A0EB0C00704711F0004F08BFA1
:101A3000704731F000413FF4D5AF0B0C06BF0904ED
:101A40004FF0100C4FF0000C0B0E04BF09020CF10C
:101A5000080C0B0F04BF09010CF1040C8B0F04BF21
:101A600089000CF1020CCB0F04BF49000CF1010CF2
:101A7000CCF12003A0EB0C0022FA03F302FA0CF2E3
:101A800041EA030100F10100704720F07F4C80EA39
:101A9000030023F07F47ACEB070303F57C5300F012
:101AA000004003F1FF032DE980494FEA154B09B4CB
:101AB0004FEA144325EA0B4E24EA03480FF20426AA
:101AC00006EB132749083E785FEA320203FB0667FC
:101AD000C7F5000707FB06F64FEA54374FEAD6462C
:101AE00006F1020607FB066CCCF1005C4FEA1C47CE
:101AF0002CEA074C07FB06F40CFB06F504EB154635
:101B00004FEA961634BF00204FF000404FEAD1371D
:101B100006FB07FC4FEA1C4C0CFB0BF7D21B03FB2C
:101B20000CF761EB07010CFB0EF7B0EB074072EB13
:101B300017420CFB08F734BFA2EB0742B2EB074297
:101B400061EB17414FEA0C444FEA910706FB07FC93
:101B50004FEA1C4C0CFB0BF7B0EBC74072EB573253
:101B600003FB0CF734BFA2EBC742B2EBC74261EBF9
:101B700057310CFB0EF7B0EBC70072EB57720CFB42
:101B800008F734BFA2EBC702B2EBC70261EB577193
:101B9000039F4FEA816141EA921104EBCC044FEAC2
:101BA000D1374FEA826206FB07FC42EA90124FEA05
:101BB00080604FEA1C4C0CFB0BF7D21B03FB0CF7AD
:101BC00061EB07010CFB0EF7B0EB074072EB17421D
:101BD0000CFB08F734BFA2EB0742B2EB074261EB04
:101BE00017414FEA8C554FEA910704EB9C2406FB02
:101BF00007FC4FEA1C4C0CFB0BF7B0EBC74072EB39
:101C0000573203FB0CF734BFA2EBC742B2EBC7421B
:101C100061EB57310CFB0EF7B0EBC70072EB57725C
:101C20000CFB08F734BFA2EBC702B2EBC70261EBB3
:101C3000577115EB4C254FEA816141EA92114FEA49
:101C400082624FEAD13742EA901206FB07FC44F168
:101C500000044FEA80604FEA1C4C0CFB0BF7D21BD0
:101C600003FB0CF761EB07010CFB0EF7B0EB074031
:101C700072EB17420CFB08F734BFA2EB0742B2EB42
:101C8000074261EB174115EB1C154FEA813141EA20
:101C900092414FEA823242EA90424FEA80304FEA64
:101CA0000C7644F1000448EA03434EEA0B484FF037
:101CB000000EB2EB080C71EB030724BF62463946F5
:101CC0004EEB0E0E4FF0000B0018524149414BEB0A
:101CD0000B0BB2EB080C71EB03077BF1000B24BF7D
:101CE000624639464EEB0E0E4FF0000B0018524183
:101CF00049414BEB0B0BB2EB080C71EB03077BF18B
:101D0000000B24BF624639464EEB0E0E51EA020725
:101D100018BF46F0010616EB0E7655F1000254F19D
:101D2000000103D5BDE88901BDE80088BDE889014F
:101D3000BDE80048B619524141EB0101A3F101038E
:101D4000704780807F7E7D7C7B7A79787776767528
:101D50007473727171706F6E6E6D6C6C6B6A6A69A0
:101D60006868676666656464636362616160605F3A
:101D70005F5E5E5D5D5C5C5B5B5A5A5959585857B3
:101D8000575656555555545453535252525151501B
:101D900050504F4F4F4E4E4D4D4D4C4C4C4B4B4B6E
:101DA0004A4A4A49494948484847474747464646B4
:101DB00045454544444444434343434242424241EF
:101DC0004141002B9C4630D477002BD01CB54FEA04
:101DD000370703B44FF010004FF01001BAF1000FB5
:101DE00006D0BCF1000FDCBF40F0080040F0080155
:101DF0000DF07CF80FBCBDE810400BF1010BBBF1FE
:101E0000010F08BF5FEA170722BF12F1010211F1AB
:101E100001014FF0004143F1000300F0004043EAAC
:101E200000007047F9D35708D0E746EA064613F199
:101E3000400F4FEA16461FDD13F1200FDFBF164398
:101E40000A46002120335B42BED0C3F1200746EA98
:101E5000064602FA07F74FEA164646EA0706C3F1B6
:101E6000200722FA03F201FA07F721FA03F14FF0F3
:101E7000000342EA0702A7E746EA020646EA0646E8
:101E80004FEA164646EA0106BCBF46EA0646360C4D
:101E90004FF000034FF000024FF0000194E72DE9EE
:101EA000804C9A46934670B491E8380007C831EAEE
:101EB000400C48BF34EA430C03D5FFF7E6FDFFF7BB
:101EC00080FFF0BCBDE8008C2DE9804C9A4693461B
:101ED00070B491E8380007C810F0804F08BF13F0C5
:101EE000804F03D100F005F8FFF76BFFF0BCBDE8B1
:101EF000008C20F07F4780EA030023F07F4C07EB43
:101F00000C03A3F57C5300F00040A3F1FE0392F014
:101F1000000F00F0B38095F0000F00F077802DE9FE
:101F200001494FEA11404FEA144621EA004800FBFC
:101F300006FC24EA064708FB06F607FB08F800FB48
:101F400007F718EB06484CEB164C4FEA124B18EB10
:101F500007484FEA15464CEB174022EA0B4E0BFBA5
:101F600006FC25EA06470EFB06F607FB0EFE0BFBFA
:101F700007F71EEB064E4CEB164C4FF000061EEB1F
:101F8000074E4CEB174B18EB0B0840F1000018EB19
:101F90000E0B58EB000840F100008F1A4FF00001C3
:101FA0003CBFC943661B14BFB5EB040C00213CBF0A
:101FB000C943F61B4FEA17444EEA8E0E27EA044542
:101FC0004FEA1C4704FB07622CEA074C05FB07F7A6
:101FD0000CFB05F604FB0CFC16EB074642EB174224
:101FE00016EB0C4642EB1C421BEB060658EB0202BA
:101FF000414146EA9E0601D5BDE80189B619524124
:1020000041EB0101A3F10103BDE801894FEA144549
:102010004FEA114724EA054621EA074C05FB07F47D
:1020200006FB07F70CFB06F105FB0CFC11EB074167
:1020300044EB17444FEA124711EB0C4144EB1C44AC
:1020400022EA074C05FB07F206FB07F70CFB06F636
:1020500005FB0CFC16EB074642EB174216EB0C4651
:1020600042EB1C456A1854F1000148BF7047B6198D
:10207000524141EB0101A3F10103704795F0000FBC
:1020800037D04FEA11424FEA144721EA024624EAC8
:10209000074C02FB07F106FB07F70CFB06F402FBFB
:1020A0000CFC14EB074441EB17414FEA154714EBC6
:1020B0000C4441EB1C4125EA074C02FB07F506FBEB
:1020C00007F70CFB06F602FB0CFC16EB074645EB8C
:1020D000174516EB0C4645EB1C42121951F1000155
:1020E00048BF7047B619524141EB0101A3F101030A
:1020F00070474FEA14454FEA114724EA054621EAA2
:10210000074C05FB07F106FB07F70CFB06F24FF047
:10211000000605FB0CFC12EB074241EB174112EBEA
:102120000C4251EB1C4148BF7047921841EB010132
:10213000A3F10103704700BFFEE7000010B502489D
:1021400000F0C9FF10BD00004C0A002010B5024885
:1021500000F0C1FF10BD0000740A002038B504462D
:102160002E200949086000208860C86008200861A6
:10217000200A064908704C706B460A46024904481A
:1021800000F0ACFD38BD0000A07300203E0100202F
:10219000740A0020F8B504460D4616462F200C4957
:1021A000086000208860C860082008613F20094955
:1021B000087048708870C870087148718871C8715B
:1021C0006B460A460249044800F088FDF8BD00004D
:1021D000D07300204E010020740A0020F8B5074695
:1021E0000C4615461E464FF400700D49086000204D
:1021F0008860C86008200861380A0A4908704F7072
:10220000200A8870CC70280A08714D71300A8871D4
:10221000CE716B460A460249034800F05FFDF8BDE7
:10222000607300201C010020740A002008B54FF4E0
:10223000E0600C49086000208860C86008200861E0
:1022400000200949087048708870C870087148718A
:102250008871C8716B460A460249044800F03EFD89
:1022600008BD0000607300201C010020740A0020DB
:10227000F8B507460C4615461E4640F2FF100D49BC
:10228000086000208860C86008200861380A0A4990
:1022900008704F70200A8870CC70280A08714D7140
:1022A000300A8871CE716B460A460249034800F035
:1022B00015FDF8BD4873002014010020740A0020A9
:1022C00010B5024801F0CEFA10BD0000880E0020C3
:1022D00010B5FE48C06C0068FD49884276D9FC48BC
:1022E00054380068F949C96C0968FA4A914201D129
:1022F000202169E0F549C96C0968F54A483A9142DC
:1023000001D1202160E0F149C96C0968F14A6032CD
:10231000914201D1202157E0EC49C96C0968EC4A8F
:102320001832914201D120214EE0E849C96C096878
:10233000E84A1832914201D1C91445E0E349C96C19
:102340000968E34A303A914201D1C9143CE0DF49BF
:10235000C96C0968DF4A7832914201D1C91433E06F
:10236000DA49C96C0968DA4A3032914201D1C9149C
:102370002AE0D649C96C0968D64A3032914202D166
:102380004FF4001120E0D149C96C0968D04A183ACD
:10239000914202D14FF4001116E0CC49C96C096892
:1023A000CC4A9032914202D14FF400110CE0C7495F
:1023B000C96C0968C64A4832914203D14FF40011F2
:1023C00002E003E04FF00061084070E1BF48C06CDC
:1023D0000068C049A831884276D9BD48583800689D
:1023E000BA49C96C0968BB4A914201D1202169E010
:1023F000B649C96C0968B64A483A914201D12021D0
:1024000060E0B249C96C0968B24A6032914201D1B8
:10241000202157E0AD49C96C0968AD4A1832914294
:1024200001D120214EE0A949C96C0968A94A183296
:10243000914201D1C91445E0A449C96C0968A44A74
:10244000303A914201D1C9143CE0A049C96C0968F5
:10245000A04A7832914201D1C91433E09B49C96C3A
:1024600009689B4A3032914201D1C9142AE0974948
:10247000C96C0968974A3032914202D14FF4001179
:1024800020E09249C96C0968914A183A914202D1F8
:102490004FF4001116E08D49C96C09688D4A9032DD
:1024A000914202D14FF400110CE08849C96C0968CF
:1024B000874A4832914203D14FF4001102E003E011
:1024C0004FF000610840F2E08048C06C006881492C
:1024D0004831884276D97F48103840687B49C96CBA
:1024E00009687C4A914201D1202169E07749C96C91
:1024F0000968774A483A914201D1202160E0734946
:10250000C96C0968734A6032914201D1202157E0B9
:102510006E49C96C09686E4A1832914201D1202176
:102520004EE06A49C96C09686A4A1832914201D181
:10253000C91445E06549C96C0968654A303A914259
:1025400001D1C9143CE06149C96C0968614A78321B
:10255000914201D1C91433E05C49C96C09685C4AF5
:102560003032914201D1C9142AE05849C96C096836
:10257000584A3032914202D14FF4001120E05349C1
:10258000C96C0968524A183A914202D14FF40011BD
:1025900016E04E49C96C09684E4A9032914202D108
:1025A0004FF400110CE04949C96C0968484A4832A7
:1025B000914203D14FF4001102E003E04FF00061BB
:1025C000084074E04348103800684049C96C096805
:1025D000404A914201D1202168E03C49C96C096818
:1025E0003B4A483A914201D120215FE03749C96C0A
:1025F0000968384A6032914201D1202156E03349BE
:10260000C96C0968324A1832914201D120214DE04B
:102610002E49C96C09682F4A1832914201D1C91458
:1026200044E02A49C96C0968294A303A914201D1EB
:10263000C9143BE02549C96C0968264A78329142A1
:1026400001D1C91432E02149C96C0968204A3032ED
:10265000914201D1C91429E01C49C96C09681D4A7D
:102660003032914202D14FF400111FE01749C96C7A
:102670000968174A183A914202D14FF4001115E047
:102680001249C96C0968134A9032914202D14FF441
:1026900000110BE00D49C96C09680D4A483291429E
:1026A00002D14FF4001101E04FF000610840002812
:1026B0006FD00648C06C0068054988427BD9034842
:1026C000C06C00680349884208D105E0100B002067
:1026D0005864024010600240202068E0FE48C06C50
:1026E0000068FE49884201D1202060E0FA48C06CB1
:1026F0000068FB49884201D1202058E0F648C06CB0
:102700000068F6496031884201D120204FE0F2484C
:10271000C06C0068F2494839884201D1C01446E0D3
:10272000ED48C06C0068ED491831884201D1C014F1
:102730003DE0E948C06C0068E9491831884201D1A0
:10274000C01434E0E448C06C0068E4497831884241
:1027500001D1C0142BE0E048C06C0068E04930397A
:10276000884202D14FF4001021E0DB48C06C0068C1
:10277000DA493031884202D14FF4001017E0D648D0
:10278000C06C0068D6493031884204D14FF4001043
:102790000DE0DFE10FE0D048C06C0068CF49903118
:1027A000884202D14FF4001001E04FF00060CB49A5
:1027B000091F08606AE1C848C06C0068C849483110
:1027C000884274D9C448C06C0068C54960398842E1
:1027D00001D1202066E0C048C06C0068BF49884233
:1027E00001D120205EE0BC48C06C0068BC49884232
:1027F00001D1202056E0B848C06C0068B74960316C
:10280000884201D120204DE0B348C06C0068B44933
:102810004839884201D1C01444E0AF48C06C006818
:10282000AE491831884201D1C0143BE0AA48C06CBF
:102830000068AB491831884201D1C01432E0A64883
:10284000C06C0068A5497831884201D1C01429E0E4
:10285000A148C06C0068A2493039884202D14FF4C7
:1028600000101FE09C48C06C00689C4930318842D1
:1028700002D14FF4001015E09748C06C00689849E9
:102880003031884202D14FF400100BE09248C06C06
:10289000006892499031884202D14FF4001001E063
:1028A0004FF000608D4908390860EFE0FFE78A4883
:1028B000C06C00688A491839884274D98648C06C4F
:1028C000006887496039884201D1202066E082484B
:1028D000C06C00688149884201D120205EE07E48BA
:1028E000C06C00687E49884201D1202056E07A48B9
:1028F000C06C006879496031884201D120204DE0E8
:102900007548C06C006876494839884201D1C014C6
:1029100044E07148C06C006870491831884201D1A8
:10292000C0143BE06C48C06C00686D4918318842A7
:1029300001D1C01432E06848C06C00686749783142
:10294000884201D1C01429E06348C06C0068644922
:102950003039884202D14FF400101FE05E48C06C4D
:1029600000685E493031884202D14FF4001015E012
:102970005948C06C00685A493031884202D14FF43E
:1029800000100BE05448C06C0068544990318842F4
:1029900002D14FF4001001E04FF00060504970394F
:1029A000C86073E0FFE74C48C06C00684C49603970
:1029B000884201D1202066E04748C06C0068474942
:1029C000884201D120205EE04348C06C0068444941
:1029D000884201D1202056E03F48C06C00683F4942
:1029E0006031884201D120204DE03B48C06C006836
:1029F0003B494839884201D1C01444E03648C06C94
:102A0000006836491831884201D1C0143BE0324891
:102A1000C06C006832491831884201D1C01432E0DC
:102A20002D48C06C00682D497831884201D1C0140E
:102A300029E02948C06C006829493039884202D110
:102A40004FF400101FE02448C06C00682349303167
:102A5000884202D14FF4001015E01F48C06C006896
:102A60001F493031884202D14FF400100BE01A4860
:102A7000C06C006819499031884202D14FF40010AF
:102A800001E04FF000601649703988601548007801
:102A900000F0020078B11348007820F002001149DC
:102AA00008700846007840F00400087001221146C2
:102AB0000D4801F0D7F90D48007800F00200E0B1B0
:102AC0000A48007820F0020008490870084600789B
:102AD00040F0040008700BE0100B0020106402406E
:102AE00070600240D101002000040240D2010020A9
:102AF00001221021184801F0B5F91848007800F0BB
:102B0000020078B11548007820F0020013490870DF
:102B10000846007840F004000870012210210E4899
:102B200001F0A0F908F088FA0D48007800F00400E0
:102B300080B10B48007820F004000949087008466D
:102B4000007840F0080008700648006840F0010076
:102B50000449086010BD000000000240D3010020BD
:102B6000D1010020103C014010B5024800F07AFE6F
:102B700010BD0000E80E0020014608781038182328
:102B8000B0FBF3F20848805CC865032A05D90868E1
:102B90006FF30900001D886503E008686FF3090002
:102BA0008865886D70470000D0F00008014600205D
:102BB0008A6A8B69CBB932B1012A0DD0022A03D0BF
:102BC000032A10D10EE000BFCB6A03F08073B3F18B
:102BD000807F00D1012007E0CB6AB3F1C07F00D134
:102BE000012001E000E000BF34E08B69B3F5005F35
:102BF0001AD132B1012A07D0022A03D0032A11D1F7
:102C00000AE000BF01200EE0CB6A03F08073B3F14D
:102C1000807F00D1012006E0CB6AB3F1C07F00D1F4
:102C2000012000E000BF15E032B1012A05D0022AE0
:102C300004D0032A0CD103E000BF00BF012008E04C
:102C4000CB6A03F08073B3F1807F00D1012000E0F4
:102C500000BF00BF7047704700EE100AB8EE400A90
:102C6000DFED060A20EE200ADFED050A80EE201ACD
:102C70009FED040A31EE400A70470000DB0FC940A7
:102C800000000046DB0F494010B5012000F0DCFFDA
:102C900010BD10B5082000F0D7FF10BD10B51020F2
:102CA00000F0D2FF10BD10B5202000F0CDFF10BD08
:102CB000704710B5024692F82030012B01D0022B4C
:102CC00006D110684069084314686061002010BD97
:102CD000506A40F4802050620120F8E7F0B50446C5
:102CE0000D461E4694F8207020688368A86800B9D5
:102CF00000E000BF012F01D0022F7CD103F08060E3
:102D000030B903F0006018B903F08050002873D088
:102D1000C3F30161022905D9606A40F400006062D2
:102D20000120F0BD012088403060A86860B9B5F886
:102D300000C0E86840EA4C5C206800F5C07000EB19
:102D40000110C0F800C00FE0D5E901C040EACC0096
:102D5000D5F80CC040EA0C00D4F800C00CF5C07CDB
:102D60000CEB011CCCF80000D5F810C0206800F571
:102D7000C07000EB0110C0F804C0287D01280ED1FE
:102D8000206800F5C07000EB0110406840F4807CC2
:102D9000206800F5C07000EB0110C0F804C0D079C5
:102DA000000692F806C040EA0C4092F805C040EADE
:102DB0000C2C10794CEA000C206800F5C07000EB78
:102DC0000110C0F80CC0D078000692F802C040EAAA
:102DD0000C4092F801C040EA0C2092F800C040EA92
:102DE0000C00D4F800C00CF5C07C0CEB011CCCF836
:102DF0000800206801E016E00FE000F5C07000EB6D
:102E00000110006840F0010C206800F5C07000EB74
:102E10000110C0F800C0002083E7606A40F4001091
:102E2000606201207DE7606A40F4802060620120DA
:102E300077E70000F0B504460A46216894F8205070
:102E4000012D01D0022D7ED1424901F500710868A3
:102E500040F001000860086820F47C5008600868B1
:102E6000566A40EA06200860107D00F01F06012027
:102E700000FA06F3C8699843C861A1F50071D069EA
:102E8000C8B9D1F80C029843C1F80C02908880B2FE
:102E9000968940EA064601F51070576940F8376098
:102EA000108880B2168940EA064601F5107057690D
:102EB00000EBC7004660D069012819D1D1F80C0297
:102EC0001843C1F80C02908880B2168840EA064682
:102ED00001F51070576940F83760908980B2168903
:102EE00040EA064601F51070576900EBC7004660DE
:102EF000906928B9D1F804029843C1F8040204E0AB
:102F0000D1F804021843C1F80402106928B9D1F8B5
:102F100014029843C1F8140204E0D1F814021843D3
:102F2000C1F81402106A012804D1D1F81C02184318
:102F3000C1F81C02D1F8000220F00100C1F8000223
:102F40000020F0BDFFE7606A40F48020606201204D
:102F5000F7E7000000640040704770B5044694F83D
:102F60002050012D01D0022D7CD151B92068C068BC
:102F700000F0030080B9606A40F400106062012034
:102F800070BD2068006900F0030028B9606A40F451
:102F9000001060620120F3E7206800F5D87000EBB4
:102FA0000110006800F004009060906840B920684B
:102FB00000F5D87000EB01100068400D106007E0CC
:102FC000206800F5D87000EB01100068C008506060
:102FD000206800F5D87000EB0110006800F00200D6
:102FE0004008D060206800F5D87000EB0110406800
:102FF00000F00F001061206800F5D87000EB0110A0
:10300000406800F47F40000A9061206800F5D870A5
:1030100000EB01104068000C5061206800F5D8708A
:1030200000EB011080681870206800F5D87000EB84
:103030000110806800F47F40000A5870206800F595
:10304000D87000EB0110806800F47F00000C9870CD
:10305000206800F5D87000EB01108068000ED87071
:10306000206800E031E000F5D87000EB0110C06886
:103070001871206800F5D87000EB0110C06800F4EA
:103080007F40000A5871206800F5D87000EB0110ED
:10309000C06800F47F00000C9871206800F5D870BB
:1030A00000EB0110C068000ED87131B92068C0680B
:1030B00040F020002668F06005E02068006940F0DC
:1030C00020002668306100205AE7606A40F48020C2
:1030D0006062012054E72DE9F05F04460025206876
:1030E00046692068D0F80490206887682068D0F886
:1030F0000CA02068D0F810B02068D0F8188006F036
:103100000100002855D007F00100C0B1012021685E
:10311000886007F0020018B1204600F088FB0EE03E
:1031200007F0040010B145F4006508E007F008005E
:1031300010B145F4805502E0204600F077FB07F41B
:103140008070C8B14FF480702168886007F4007007
:1031500018B1204600F06DFB0EE007F4806010B15E
:1031600045F4005508E007F4006010B145F48045CF
:1031700002E0204600F05CFB07F48030C8B14FF459
:1031800080302168886007F4003018B1204600F0D4
:1031900052FB0EE007F4802010B145F4004508E032
:1031A00007F4002010B145F4803502E0204600F01D
:1031B00041FB06F0080038B10AF0100020B145F4D8
:1031C000007510202168C86006F0040040B10AF0C4
:1031D000080028B108202168C860204600F00CFAD9
:1031E00006F0020038B12068C06800F0030010B19A
:1031F000204600F003FA06F0400038B10BF0100052
:1032000020B145F4806510202168086106F0200097
:1032100040B10BF0080028B1082021680861204661
:1032200000F0D2FA06F0100038B12068006900F012
:10323000030010B1204600F0C8FA06F4003040B197
:1032400009F0100028B1102021684860204600F0E5
:10325000BDFA06F4803040B109F0080028B108201A
:1032600021684860204600F0E7FA06F4004088B381
:1032700009F0040078B306F4807020B108F0010072
:1032800008B145F0010506F4007020B108F0020015
:1032900008B145F0020506F4806020B108F0040092
:1032A00008B145F0040506F40060A0B108F0700014
:1032B00088B108F07000402817D006DC10280BD029
:1032C00020280CD0302819D10CE0502810D06028CC
:1032D00014D110E01DE019E045F008050FE045F0BD
:1032E00010050CE045F0200509E045F0400506E03A
:1032F00045F0800503E045F4807500E000BF00BFA5
:103300002068806920F070002168886104202168AD
:1033100048602DB1606A284360622046FFF71CFEBA
:10332000BDE8F09F70B504460CB9012070BD94F85B
:10333000200010B9204600F0AFF82068006820F0A7
:1033400002002168086000F093FD05460DE000F0E2
:103350008FFD401B0A2808D9606A40F40030606283
:10336000052084F820000120E0E72068406800F094
:1033700002000028EBD12068006840F001002168BD
:10338000086000F075FD05460DE000F071FD401B82
:103390000A2808D9606A40F400306062052084F889
:1033A00020000120C2E72068406800F001000028EA
:1033B000EBD0207E012806D12068006840F0800014
:1033C0002168086005E02068006820F0800021681E
:1033D0000860607E012806D12068006840F0400047
:1033E0002168086005E02068006820F0400021683E
:1033F0000860A07E012806D12068006840F0200007
:103400002168086005E02068006820F0200021683D
:103410000860E07E012806D12068006820F01000D6
:103420002168086005E02068006840F0100021680D
:103430000860207F012806D12068006840F008005D
:103440002168086005E02068006820F00800216815
:103450000860607F012806D12068006840F0040001
:103460002168086005E02068006820F004002168F9
:103470000860D4E9020108432169084361690843EF
:103480006168491E08432168C8610020606201200C
:1034900084F82000002049E710B586B004461421C6
:1034A00001A8FDF758F94E492068884241D14D489E
:1034B0000068401C4B4908600846006801280FD18D
:1034C00000BF002000904848006840F00070464966
:1034D00008600846006800F00070009000BF00BF60
:1034E00000BF0020009040481038006840F00800FD
:1034F0003D49103908600846006800F00800009057
:1035000000BF00BF03200190022002900020039022
:10351000032004900920059001A9344800F0A2FB83
:1035200000220621142000F073FE142000F060FE3B
:1035300054E02F492068884250D100BF00200090FD
:103540002948006840F08060274908600846006804
:1035500000F08060009000BF00BF22480068401C5F
:10356000204908600846006801280FD100BF0020EC
:1035700000901D48006840F000701B490860084634
:10358000006800F00070009000BF00BF00BF002086
:10359000009015481038006840F0020012491039B8
:1035A00008600846006800F00200009000BF00BFFD
:1035B00060200190022002900020039003200490DC
:1035C0000920059001A90B4800F04CFB00220621C0
:1035D000402000F01DFE402000F00AFE06B010BDA5
:1035E000006400402800002040380240000C0240E7
:1035F00000680040000402407047000010B58CB025
:10360000044603AB05AA00212046FFF7A6FC40F2C2
:1036100002220598811A904215D00ADC02287DD03A
:10362000032860D005287AD0A0F20120002877D1A5
:1036300008E0012908D0022907D0032906D004296F
:10364000F5D104E000BF00BF00BF00BF00BF059878
:10365000401E574908700846007800EB8000554925
:1036600031F8100000B25249097801EB8101514A4A
:1036700002EB410108819DF80D009DF80C1040EA15
:1036800001204B49097801EB810122F811009DF8D6
:103690000F009DF80E1040EA012000B2444909785D
:1036A00001EB810102EB410148809DF811009DF87A
:1036B000101040EA012000B23D49097801EB810178
:1036C00002EB410188809DF812003949097801EB2D
:1036D000810102EB4101887135490978491CC8B262
:1036E00007F008F961E0002004E003A9095C01AAE1
:1036F0001154401C0828F8D32F4801990160029901
:10370000416000882D4908802B48408848802A481D
:103710008088888028488079887102E024E036E03B
:1037200042E02548C079C009C8712348C079C0F378
:10373000801008722048C079C0F3401048721E48BB
:10374000C079C0F3001088721B48C079C0F3C00074
:10375000C8721948C079C0F3800008731648C07950
:10376000C0F34000487320E0002004E003A9095C96
:1037700001AA1154401C0828F8D39DED010A1048F5
:1037800080ED000A9DED020A80ED010A0DE00020A7
:1037900004E003A9095C02AA1154401C0428F8D3D0
:1037A00008480299016000E000BF00BF0CB010BDE6
:1037B00056010020007300202401002078730020AF
:1037C0002C0100203401002070477047704770B50D
:1037D000044694F82000012822D1022084F8200019
:1037E0002068006820F001002168086000F040FBBC
:1037F00005460DE000F03CFB401B0A2808D9606A32
:1038000040F400306062052084F82000012070BD83
:103810002068406800F001000028EBD16062F6E704
:10382000606A40F4002060620120F0E77047704752
:1038300070477047704770477047014691F83500F0
:10384000022803D08020486501207047052081F8B8
:1038500035000868006820F001000A681060002048
:10386000F3E70000F8B50446002000908C4800689B
:103870004FF41651B0FBF1F7A56D2E6894F85C106B
:1038800008208840304098B12068006800F00400AB
:1038900070B12068006820F004002168086094F886
:1038A0005C1008208840A860606D40F001006065F1
:1038B00094F85C1001208840304068B1206840696D
:1038C00000F0800040B194F85C1001208840A860AE
:1038D000606D40F00200606594F85C100420884040
:1038E000304068B12068006800F0020040B194F8F0
:1038F0005C1004208840A860606D40F004006065A2
:1039000094F85C1010208840304078B3206800683C
:1039100000F0080050B394F85C1010208840A860B4
:103920002068006800F4802080B12068006800F4FE
:10393000002028B9206CC8B12046216C884715E0CA
:10394000A06C98B12046A16C88470FE02068006801
:1039500000F4807028B92068006820F00800216811
:103960000860206C10B12046216C884794F85C10E8
:10397000202088403040002865D02068006800F092
:10398000100000285FD094F85C1020208840A860C8
:1039900094F83500052828D12068006820F016002A
:1039A000216808602068406920F080002168486133
:1039B000206C08B9A06C28B12068006820F00800CD
:1039C0002168086094F85C103F208840A86000BF20
:1039D000002084F8340000BF012084F83500206DF9
:1039E00010B12046216D8847F8BD2068006800F4BA
:1039F000802080B12068006800F4002028B9606C45
:103A000010B12046616C88471DE0E06BD8B12046BC
:103A1000E16B884717E02068006800F4807068B99F
:103A20002068006820F010002168086000BF0020B6
:103A300084F8340000BF012084F83500E06B10B139
:103A40002046E16B8847606D38B3606D00F001007F
:103A5000F0B1052084F835002068006820F00100EE
:103A60002168086000BF0098401C0090B84200D94F
:103A700005E02068006800F001000028F3D100BFD5
:103A800000BF002084F8340000BF012084F8350016
:103A9000E06C10B12046E16C884700BFA4E700004D
:103AA000380000202DE9F0410446002500F0E0F93F
:103AB000074614B90120BDE8F081606A00B100BF7B
:103AC00000BF002084F8340000BF022084F83500D5
:103AD0002068006820F00100216808600AE000F01A
:103AE000C7F9C01B052805D920206065032084F88C
:103AF0003500E0E72068006800F001000028EED102
:103B00002068056821480540D4E901010843E168BF
:103B100008432169084361690843A1690843E169D1
:103B20000843216A08430543606A042803D1D4E9A5
:103B30000B0108430543206805602068456925F0AE
:103B40000705606A0543606A04280DD1A06A054331
:103B5000E06A48B12046FFF729F828B140206065A7
:103B6000012084F83500A6E7206845612046FFF76C
:103B700003F8064694F85C103F208840B0600020AF
:103B80006065012084F83500002094E73F8010F044
:103B900010B50446102C14D1092006F0ABFE2248C3
:103BA000007840F00100204908702048007840F07B
:103BB00001001E4908701E480078A0B307F03CFAC7
:103BC00031E0202C0ED1082006F094FE1948007830
:103BD00040F00100174908701548007818B307F045
:103BE0002BFA20E0082C09D10A2006F083FE1248A7
:103BF000007840F001001049087014E0012C12D147
:103C000009F02AFF01280ED00C490D48006809F080
:103C10001DF90A48006830B120070A490860BFF35F
:103C20004F8FBFF36F8F10BDD2010020D301002052
:103C3000D5010020D1010020D4010020480200203D
:103C4000AC01002004ED00E010B504460448006813
:103C5000204020B1024804602046FFF799FF10BDC4
:103C6000143C0140F8B502460B4600250024002014
:103C70000021DCE0012606FA01F51E6806EA0504CB
:103C8000AC4273D15E68022E02D05E68122E13D150
:103C9000CF0802F1200656F827004E07F70E0F2630
:103CA000BE40B0434F07FF0E1E69BE403043CF08F1
:103CB00002F1200646F8270010684F000326BE4098
:103CC000B0431E7906F003064F00BE40304310603B
:103CD0005E68012E08D05E68022E05D05E68112E47
:103CE00002D05E68122E13D190684F000326BE40AA
:103CF000B0434F00DE68BE403043906050680126FC
:103D00008E40B0431E79C6F300168E40304350609B
:103D1000D0684F000326BE40B0434F009E68BE40AF
:103D20003043D0605E6806F08056B6F1805F7DD18A
:103D300000BF00260096404E366846F480463E4F4F
:103D40003E603E46366806F48046009600BF00BFDF
:103D50003A4E8F0856F827008E07370F0F26BE40C1
:103D6000B043374EB24202D1002624E05EE0354E29
:103D7000B24201D101261EE0334EB24201D10226E9
:103D800019E0324EB24201D1032614E0304EB24265
:103D900001D104260FE02F4EB24201D105260AE0E0
:103DA0002D4EB24201D1062605E02C4EB24201D181
:103DB000072600E008268F073F0FBE4030431F4E06
:103DC0008F0846F82700264E3068A0435E6806F448
:103DD0008036B6F5803F00D12043214E3060361D3D
:103DE0003068A0435E6806F40036B6F5003F00D1A7
:103DF00020431B4E361D3060361D3068A0435E6880
:103E000006F48016B6F5801F00D12043144E083604
:103E10003060361D3068A0435E6806F40016B6F5C3
:103E2000001F00D120430E4E0C363060491C102973
:103E3000FFF420AFF8BD00004438024008380140CC
:103E4000000002400004024000080240000C024052
:103E5000001002400014024000180240001C024002
:103E6000003C01400AB1816101E00B0483617047AD
:103E700001480068704700002C00002070B504461F
:103E80000CB9012070BD94F83D0028B9002084F8D9
:103E90003C00204600F0CEF8242084F83D00206845
:103EA000006820F001002168086000F099FB0546D9
:103EB0005C496068884206D85B48854201D201208F
:103EC00007E0002005E05948854201D2012000E0CA
:103ED0000020012800D1D5E75548B5FBF0F6206851
:103EE000406820F03F003043216848604D496068D9
:103EF000884201D8701C07E04FF4967070434FF46D
:103F00007A71B0FBF1F0401C2168096A21F03F0191
:103F100008432168086243496068884214D8681ED3
:103F200061684900B0FBF1F0401CC0F30B000428AD
:103F300001D204203DE0681E61684900B0FBF1F049
:103F4000401CC0F30B0034E0A06838B9681E6168FB
:103F500001EB4101B0FBF1F0401C0AE0681E616812
:103F600001EBC10202EB0111B0FBF1F0401C40F487
:103F70008040C0F30B0008B901201AE0A06848B9DE
:103F8000681E616801EB4101B0FBF1F0401CC0F319
:103F90000B000CE0681E616801EBC10202EB01112D
:103FA000B0FBF1F0401CC0F30B0040F4804040F443
:103FB00000402168C9694CF6FF72914308432168AB
:103FC000C861D4E9070108432168096821F0C001EC
:103FD000084321680860D4E9031008432168896810
:103FE00048F2FF329143084321688860D4E9050113
:103FF00008432168C96821F0FF0108432168C860AF
:104000002068006840F001002168086000202064FA
:10401000202084F83D000020206384F83E0000BF8B
:1040200030E70000A086010080841E0000093D00EA
:1040300040420F0010B586B00446142101A8FCF7D9
:104040008AFB2A49206888424DD100BF0020009099
:104050002748006840F004002549086008460068C9
:1040600000F00400009000BF00BF00BF00200090DF
:104070000846006840F0010008600846006800F04B
:104080000100009000BF00BF48150190122002906F
:1040900001200390032004900420059001A91548F5
:1040A000FFF7E0FD4FF48070019012200290012094
:1040B0000390032004900420059001A90E48FFF707
:1040C000D1FD00BF0020009009481030006840F486
:1040D00000000749103108600846006800F400003D
:1040E000009000BF00BF06B010BD0000005C0040A3
:1040F00030380240000802400000024003480068D7
:104100000349097808440149086070472C000020E1
:104110003400002010B50D48006840F400700B49D1
:1041200008600846006840F480600860084600683F
:1041300040F480700860032000F0A8F80F2000F021
:1041400007F800F02BF8002010BD0000003C0240F2
:1041500070B504460E4800784FF47A71B1FBF0F068
:104160000C490968B1FBF0F5284600F05DFE08B186
:10417000012070BD102C07D200222146501E00F0F5
:1041800047F80548046001E00120F2E70020F0E76D
:1041900034000020380000203000002008B500BFA7
:1041A000002000901148006840F480400F490860EA
:1041B0000846006800F48040009000BF00BF00BFC8
:1041C00000200090081F006840F08050091F086020
:1041D0000846006800F08050009000BF00BF002239
:1041E0000F21901E00F014F808BD00004438024072
:1041F00001460846002809DB00F01F0301229A400F
:1042000043099B0003F1E023C3F8002100BF70477E
:104210002DE9F05F80460D461646002705F0D0FCDC
:10422000074639462A46334601F00700C0F1070A1F
:10423000BAF1040F02D94FF0040A01E0C0F1070AF5
:10424000D14600F1040ABAF1070F02D24FF0000A7A
:1042500001E0A0F1030AD4464FF0010A0AFA09FA74
:10426000AAF1010A0AEA020A0AFA0CFA4FF0010B53
:104270000BFA0CFBABF1010B0BEA030B4AEA0B0444
:104280002146404605F0A4FCBDE8F09F00BF00F0C9
:104290000702064B19684FF6FF031940044B0B4306
:1042A00043EA0221014B196000BF70470CED00E0AA
:1042B0000000FA05F8B5044600250026207800F035
:1042C000010020B9207800F0040004282FD100203C
:1042D0005B498866FFF7CCFD054606E0FFF7C8FDA1
:1042E000401B022801D90320F8BD56480068C0F3DE
:1042F000C0600028F2D160688101207A41EA007034
:1043000050498431086001204D498866FFF7B0FDAF
:10431000054606E0FFF7ACFD401B022801D903204B
:10432000E2E748480068C0F3C0600028F2D0207877
:1043300000F0020002287DD100BF0020009041481B
:104340004030006840F080503E49403108600846E7
:10435000006800F08050009000BF00BF3A4800683D
:1043600040F4807038490860FFF782FD054606E09A
:10437000FFF77EFD401B022801D90320B4E7324835
:10438000006800F480700028F2D02E487030006879
:1043900000F440764EB3A08900F44070B04224D0BF
:1043A00028487030006820F44076012027490860D2
:1043B00000200860234870300660006800F00100AB
:1043C00098B1FFF755FD054608E0FFF751FD401B8A
:1043D00041F28831884201D9032085E719487030BD
:1043E0000068C0F340000028EFD000BFA08900F4AF
:1043F0004070B0F5407F0CD112480830006820F4BE
:10440000F810134AE168114008430E49083108606A
:1044100007E00C480830006820F4F810094908311A
:104420000860084870300068A189C1F30B01084397
:10443000044900E002E07031086000BF002053E74B
:10444000000047420038024000700040400E4742E2
:10445000FFFCFF0F70B504460D460CB9012070BD7E
:104460005848006800F00F00A84209D255490D7065
:104470000846006800F00F00A84201D00120EEE7D6
:10448000207800F0020002281DD1207800F00400FE
:10449000042805D14C48006840F4E0504A490860BF
:1044A000207800F00800082805D14748006840F44B
:1044B0006040454908604448006820F0F000A16869
:1044C000084341490860207800F00100A8B3606803
:1044D000012807D13C4808380068C0F34040B8B90B
:1044E0000120BCE76068022802D06068032807D179
:1044F000354808380068C0F3406048B90120AEE78D
:10450000314808380068C0F3400008B90120A6E728
:104510002D48006820F00300616808432A490860BC
:10452000FFF7A6FC064609E0FFF7A2FC801B41F25C
:104530008831884202D9032091E707E022480068C9
:1045400000F00C006168B0EB810FEDD11D480068F0
:1045500000F00F00A84209D91A490D7008460068FA
:1045600000F00F00A84201D0012078E7207800F089
:104570000400042807D11448006820F4E050E168E2
:10458000084311490860207800F00800082808D185
:104590000D48006820F46040216940EAC1000A49E2
:1045A000086000F03DF808490968C1F30311074AA3
:1045B000515CC840064908600F20FFF7C9FD002084
:1045C0004DE70000003C024008380240D8F00008E7
:1045D00038000020014800687047000038000020C3
:1045E00000B5FFF7F7FF04490968C1F38221034AC8
:1045F000515CC84000BD000008380240E8F00008E7
:1046000000B5FFF7E7FF04490968C1F34231034AE7
:10461000515CC84000BD000008380240E8F00008C6
:104620002DE9F047002400250026A1462548006812
:1046300000F00C0020B1042805D008283AD105E08C
:10464000DFF8849039E0DFF8849036E01D48001FE1
:10465000006800F03F041B48001F006800F4800061
:1046600078B11A481749091F0968C1F38811A0FBDE
:1046700001700146224600233846FBF741FF0546FC
:104680000EE011480F49091F0968C1F38811A0FB0A
:1046900001700146224600233846FBF731FF0546EC
:1046A0000848001F0068C0F30140401C4600B5FBED
:1046B000F6F902E0DFF8109000BF00BF4846BDE801
:1046C000F0870000083802400024F400001BB70007
:1046D000F8B504460CB90120F8BD207800F00100BF
:1046E000002874D0F948006800F00C0004280DD0B0
:1046F000F648006800F00C00082813D1F348001FAA
:10470000006800F48000B0F5800F0BD1EF48083846
:104710000068C0F34040002859D06068002856D196
:104720000120D9E700BF6068B0F5803F08D1E748B5
:104730000838006840F48030E449083908601EE019
:104740006068B0F5A02F0DD1E0480838006840F44B
:104750008020DE49083908600846006840F480304F
:1047600008600CE0D9480838006820F48030D74948
:10477000083908600846006820F48020086000BFFF
:10478000606890B1FFF774FB054606E0FFF770FB29
:10479000401B642801D903209EE7CC4808380068F4
:1047A000C0F340400028F1D011E0FFF761FB05465F
:1047B00006E0FFF75DFB401B642801D903208BE76F
:1047C000C24808380068C0F340400028F1D1207882
:1047D00000F0020002285FD1BC48006800F00C0025
:1047E00058B1BA48006800F00C0008281CD1B7483E
:1047F000001F006800F48000B0B9B44808380068B1
:10480000C0F3400020B1E068012801D0012063E737
:10481000AE480838006820F0F800216940EAC1007D
:10482000AA490839086037E0E06800B30120A849C8
:104830000860FFF71DFB054606E0FFF719FB401B6C
:10484000022801D9032047E7A04808380068C0F3D0
:1048500040000028F1D09D480838006820F0F8009A
:10486000216940EAC10099490839086014E0002034
:1048700097490860FFF7FCFA054606E0FFF7F8FAEB
:10488000401B022801D9032026E790480838006819
:10489000C0F340000028F1D1207800F0080008287B
:1048A0002CD16069A8B101208A490860FFF7E0FABD
:1048B000054606E0FFF7DCFA401B022801D9032079
:1048C0000AE782486C300068C0F340000028F1D04D
:1048D00014E000207F490860FFF7CAFA054606E0A9
:1048E000FFF7C6FA401B022801D90320F4E67748F7
:1048F0006C300068C0F340000028F1D1207800F04F
:104900000400042870D1002670483830006800F098
:10491000805090B900BF002000906C48383000688B
:1049200040F080506949383108600846006800F05E
:104930008050009000BF00BF01266748006800F467
:104940008070B0B96448006840F4807062490860C3
:10495000FFF78EFA054606E0FFF78AFA401B0228A9
:1049600001D90320B8E65C48006800F48070002894
:10497000F2D000BFA068012808D154486830006810
:1049800040F001005149683108601DE0A068052829
:104990000DD14E486830006840F004004B49683142
:1049A00008600846006840F0010008600CE04748D5
:1049B0006830006820F0010044496831086008460A
:1049C000006820F00400086000BFA068A8B1FFF7ED
:1049D0004FFA054609E0FFF74BFA401B41F28831D8
:1049E000884202D9032077E626E03848683000681C
:1049F000C0F340000028EED013E0FFF739FA054677
:104A000008E0FFF735FA401B41F28831884201D9AE
:104A1000032061E62D4868300068C0F3400000289C
:104A2000EFD1012E07D129483830006820F080509E
:104A300026493831086000BFA069B8B32348006830
:104A400000F00C0008285ED0A069022846D10020A2
:104A50001F490866FFF70CFA054606E0FFF708FA5B
:104A6000401B022801D9032036E6184808380068A0
:104A7000C0F340600028F1D1D4E907010843616A1E
:104A800040EA81110122A06AC2EB500041EA0041D4
:104A90002C20005D41EA00600C49091F08600120DC
:104AA0000B490866FFF7E4F9054607E02DE0FFF73C
:104AB000DFF9401B022801D903200DE6034808381E
:104AC0000068C0F340600028F1D01EE008380240C2
:104AD00000004742800E47420070004000200C4911
:104AE0000866FFF7C5F9054606E0FFF7C1F9401B68
:104AF000022801D90320EFE506480068C0F34060B2
:104B00000028F2D101E00120E6E50020E4E5000004
:104B1000000047420038024010B504460CB901209D
:104B200010BD607F20B900202077204600F060F89B
:104B30000220607700BFCA202168486253202168A4
:104B4000486200BF204601F059FE40B100BFFF207F
:104B50002168486200BF042060770120E0E72068F8
:104B6000806822490840216888602169606808439C
:104B70006169084321688968084321688860216861
:104B8000E068086120680169208941EA00402168E5
:104B900008612068C06820F080002168C860206833
:104BA000806800F0200060B9204600F02DF840B188
:104BB00000BFFF202168486200BF04206077012009
:104BC000AEE72068006C20F480202168086420682B
:104BD000006CA16908432168086400BFFF202168B8
:104BE000486200BF01206077002099E7BFFF8FFF78
:104BF000034A0168914202D10121024A11607047C3
:104C0000002800403C0E474270B50446002520684D
:104C1000C06820F0A0002168C860FFF729F90546A8
:104C200007E0FFF725F9401BB0F57A7F01D9032093
:104C300070BD2068C06800F020000028F1D000207E
:104C4000F6E710B504460CB9012010BD606A00B942
:104C500000BF0021A16294F8510028B9002084F817
:104C60005000204600F034F8022084F851002068FB
:104C7000006820F0400021680860D4E90101084381
:104C8000E16808432169084361690843218B01F405
:104C900000710843E1690843216A0843A16A084397
:104CA000216808600421A06901EA1040616A084394
:104CB000216848602068C06920F400602168C861EC
:104CC00000206065012084F851000020BDE700004D
:104CD00010B586B00446142101A8FBF73CFD4B49F2
:104CE000206888427ED100BF0020009048480068BC
:104CF00040F48050464908600846006800F480503F
:104D0000009000BF00BF00BF002000904048143852
:104D1000006840F002003E49143908600846006807
:104D200000F00200009000BF00BF00BF0020009014
:104D30000846006840F0010008600846006800F07E
:104D40000100009000BF00BF1820019002200290D7
:104D500001200390032004900520059001A92D480F
:104D6000FEF780FF80200190022002900120039036
:104D7000032004900520059001A92748FEF772FF43
:104D80002648274908604FF0C06048600021244849
:104D90008160C1604FF480610161002141618161E6
:104DA000C1614FF44031016200214162FEF77AFE99
:104DB00008B1FDF77DFF00BF1948E064846300BFC0
:104DC00016481830174908604FF0C060486040210D
:104DD000144881600021C1604FF4806101610021AD
:104DE000416100E010E08161C1614FF40031016276
:104DF00000214162FEF756FE08B1FDF759FF00BFE2
:104E00000848A064846300BF06B010BD00300140B4
:104E10004438024000040240000002404064024066
:104E2000680B0020C80B002070B504462546681E9C
:104E3000B0F1807F01D301200FE0681E4FF0E02128
:104E400048610F214FF0FF3004F0C2FE00204FF008
:104E5000E021886107200861002070BD10B502467E
:104E600000BF92F83C00012801D1022010BD0120B2
:104E700082F83C0000BF022082F83D0010684368C1
:104E80001068846823F070030868034324F08004EA
:104E9000486804431068436010688460012082F809
:104EA0003D0000BF002082F83C0000BF00BFDDE7EE
:104EB00010B504460CB9012010BD94F83D0028B986
:104EC000002084F83C00204600F00CF8022084F812
:104ED0003D00211D206804F0F5F8012084F83D0014
:104EE0000020E9E708B5344A016891420FD100BFBC
:104EF000002100913149096841F002012F4A1160F7
:104F00001146096801F00201009100BF53E02C4AEC
:104F1000016891420FD100BF002100912749096823
:104F200041F00401254A11601146096801F00401AD
:104F3000009100BF3FE0234A016891420FD100BFBA
:104F4000002100911D49096841F008011B4A1160C8
:104F50001146096801F00801009100BF2BE01A4AD0
:104F60000168914211D100BF002100911349091D30
:104F7000096841F00201114A121D116011460968C9
:104F800001F00201009100BF15E0104A0168914252
:104F900011D100BF002100910849091D096841F4A1
:104FA0000031064A121D11601146096801F40031F2
:104FB000009100BF00BF08BD00040040403802401F
:104FC00000080040000C0040000401400044014083
:104FD0000146022081F83D000868806800F0070261
:104FE000062A05D00868006840F001000B681860C8
:104FF000012081F83D00002070472DE9F041044672
:105000000D4600BF94F83C00012802D10220BDE803
:10501000F081012084F83C0000BF022084F83D00AC
:105020002068866826F0770626F47F46206886602A
:105030002868502833D00CDC202850D004DC00280D
:105040004BD0102851D149E0302849D040284CD1CC
:1050500039E060282DD0702807D0B0F5805F03D0EC
:10506000B0F5005F41D10DE040E0D5E902136A6878
:10507000206804F0A4F82068866846F07706206867
:10508000866033E0D5E902136A68206804F097F877
:105090002068806840F480402168886026E0EA68E3
:1050A0006968206804F07CF95021206804F092F8C7
:1050B0001CE0EA686968206804F085F960212068CE
:1050C00004F088F812E0EA686968206804F068F97A
:1050D0004021206804F07EF808E000BF00BF00BF58
:1050E0002968206804F076F800E000BF00BF0120C6
:1050F00084F83D0000BF002084F83C0000BF00BFE2
:1051000085E7000010B586B00446142101A8FBF71E
:1051100022FB58492068884224D100BF002000901B
:105120005548006840F0040053490860084600688C
:1051300000F00400009000BF00BF8815019002201D
:1051400002900120039002200490059001A94B4891
:10515000FEF788FD4A48FFF73BFF0821484800F06A
:1051600043F984E047492068884225D100BF0020E8
:1051700000904148006840F008003F490860084638
:10518000006800F00800009000BF00BF4FF48040AE
:1051900001900220029001200390022004900590CB
:1051A00001A93948FEF75EFD3848FFF711FF0821D5
:1051B000364800F019F95AE03549206888422DD167
:1051C00000BF002000902C48006840F080002A4971
:1051D00008600846006800F08000009000BF00BF33
:1051E0004FF4E05001900220029001200390022031
:1051F0000490059001A92748FEF734FD2648FFF7E3
:10520000E7FE0021244800F0EFF80421224800F0D6
:10521000EBF80821204800F0E7F828E01F49206853
:10522000884224D100BF002000901348006840F05D
:105230002000114908600846006800F02000009036
:1052400000BF00BF40200190022002900120039087
:10525000022004900320059001A91148FEF702FDE9
:105260001048FFF7B5FE00210E4800F0BDF806B06B
:1052700010BD000000040040303802400008024029
:10528000280C002000080040000C0240680C0020A0
:10529000000C0040001C0240A80C0020004401400B
:1052A00000140240280D002070B504460D46164635
:1052B00000BF94F83C00012801D1022070BD0120FC
:1052C00084F83C0000BF022084F83D0036B1042E73
:1052D0001BD0082E31D00C2E5ED145E02946206827
:1052E00003F082FF2068806940F00800216888612F
:1052F0002068806920F00400216888612068806946
:10530000296908432168886147E02946206803F03D
:10531000A3FF2068806940F40060216888612068EC
:10532000806920F48060216888612068806929692B
:1053300040EA0120216888612FE02946206803F0B7
:10534000C9FF2068C06940F008002168C861206872
:10535000C06920F004002168C8612068C06929691B
:1053600008432168C86118E02946206803F0EEFF71
:105370002068C06940F400602168C8612068C06985
:1053800020F480602168C8612068C069296940EA0A
:1053900001202168C86100E000BF00BF012084F83F
:1053A0003D0000BF002084F83C0000BF00BF85E73F
:1053B00010B504460CB9012010BD94F83D0028B981
:1053C000002084F83C00204600F00CF8022084F80D
:1053D0003D00211D206803F075FE012084F83D008A
:1053E0000020E9E77047000070B504460E46012230
:1053F0003146206803F0D2FE0F492068884203D06E
:105400000E492068884201D1012000E0002028B127
:105410002068406C40F4004021684864206880683F
:1054200000F00705062D05D02068006840F0010057
:1054300021680860002070BD0000014000040140A8
:10544000704700002DE9F047044620680568206891
:10545000C668206847694FF00008C14605F00F088C
:10546000B8F1000F0AD105F0200038B106F0200095
:1054700020B1204603F0E5FFBDE8F087B8F1000F4A
:105480006ED007F0010018B906F49070002867D0BC
:1054900005F0010030B106F4807018B1E06B40F007
:1054A0000100E06305F0040030B107F0010018B11D
:1054B000E06B40F00200E06305F0020030B107F05D
:1054C000010018B1E06B40F00400E06305F0080053
:1054D00030B107F0010018B1E06B40F00800E06364
:1054E000E06B70B305F0200028B106F0200010B189
:1054F000204603F0A6FF20684069C0F38019E06BE6
:1055000000F0080010B9B9F1000F23D0204603F0D5
:1055100078FF2068406900F04000402816D12068DC
:10552000406920F0400021684861606B50B1174825
:10553000616B0865606BFEF780F910B1606B016DFF
:1055400088470CE02046FFF77BFF08E02046FFF786
:1055500077FF04E02046FFF773FF0020E0638BE74E
:1055600005F0800030B106F0800018B1204604F04C
:105570006FF981E705F0400030B106F0400018B146
:10558000204603F04EFF77E700BF75E7EF93000872
:1055900010B504460CB9012010BDA06900B100E0AF
:1055A00000BF94F8390028B9002084F8380020465C
:1055B00000F028F8242084F839002068C06820F41E
:1055C00000502168C860204603F08EFF2068006903
:1055D00020F49040216808612068406920F02A008A
:1055E000216848612068C06840F400502168C860A4
:1055F0000020E063202084F8390084F83A0000207D
:10560000CAE7000010B586B00446142101A8FBF7D4
:10561000A2F89D492068884256D100BF0020009022
:105620009A48006840F010009849086008460068F1
:1056300000F01000009000BF00BF00BF00200090ED
:1056400092481438006840F002009049143908600C
:105650000846006800F00200009000BF00BF00BFD5
:10566000002000900846006840F0010008600846ED
:10567000006800F00100009000BF00BF8020019092
:10568000022002900120039003200490072005903F
:1056900001A97F48FEF7E6FA4FF40070019002205E
:1056A000029001200390032004900720059001A997
:1056B0007848FEF7D7FA002205212520FEF7A8FD3D
:1056C0002520FEF795FDDDE07349206888425BD117
:1056D00000BF002000906D48001F006840F480204B
:1056E0006A49091F08600846006800F4802000909D
:1056F00000BF00BF00BF002000906448143800685D
:1057000040F004006149143908600846006800F060
:105710000400009000BF00BF4FF4406001900220E1
:10572000029001200390032004900720059001A916
:105730005A48FEF797FA5A485A4908604FF00060F5
:105740004860002157488160C1604FF48061016169
:10575000002141618161C1614FF40031016200218A
:105760004162FEF79FF908B1FDF7A2FA00BF4D486C
:105770006063846300BF002204212720FEF748FDF8
:105780002720FEF735FD7DE047492068884279D122
:1057900000BF002000903D48006840F020003B49D9
:1057A00008600846006800F02000009000BF00BFBD
:1057B00000BF0020009035481438006840F04000D9
:1057C0003249143908600846006800F04000009033
:1057D00000BF00BF4FF484400190022002900120DE
:1057E0000390032004900820059001A92F48FEF79C
:1057F00039FA2F482F4908608005486000212D485C
:105800008160C1604FF4806101610021416181616B
:10581000C1614FF40031016200214162FEF742F99B
:1058200008B1FDF745FA00BF22486063846300BFFA
:105830001F487830204908604FF0206048604021C0
:105840001D4881600021C1604FF480610161002129
:1058500041618161C1614FF4803101620021416287
:10586000FEF720F908B1FDF723FA00BF12482063C4
:10587000846300BF002205214720FEF7C9FC4720B2
:10588000FEF7B6FC06B010BD0010014044380240DF
:1058900000040240000002400048004000080240AE
:1058A00028600240280E0020001401400018024029
:1058B00028640240880E0020E80E002070472DE981
:1058C000F84304460D4616461F464FF0000994F86B
:1058D000390020285CD105B116B90120BDE8F88354
:1058E00000BF94F83800012801D10220F6E701201A
:1058F00084F8380000BF0020E063212084F83900DC
:10590000FEF7B6FA8146A684E6842BE0E08C401EC2
:10591000E084A068B0F5805F16D14B46002280215C
:105920002046009703F0C8FF08B10320D6E7A84639
:10593000B8F80000C0F3080021684860206908B981
:10594000AD1C0FE06D1C0DE04B460022802120466F
:10595000009703F0B1FF08B10320BFE715F8010B72
:1059600021684860E08C0028D0D14B4600224021BD
:105970002046009703F0A0FF08B10320AEE72020E7
:1059800084F8390000BF002084F8380000BFA5E784
:105990000220A3E7704700BFFEE7000070B5044691
:1059A0000D461646308888B9184890ED000A184808
:1059B00080ED000A154890ED010A154880ED010AB6
:1059C000124890ED020A124880ED020A324611494F
:1059D0000F4805F007FB0E4890ED000A85ED000A20
:1059E00090ED010A85ED010A90ED020A85ED020AAB
:1059F000B7EE000A84ED000AB7EE000A84ED010A52
:105A0000B7EE000A84ED020A70BD0000AC790020F8
:105A1000A0790020647A002091ED000A0E4A82ED00
:105A2000000A91ED010A82ED010A91ED020A82ED70
:105A3000020A92ED000A094A82ED000A064A92ED36
:105A4000010A064A82ED010A034A92ED020A034A5C
:105A500082ED020A70470000AC790020A079002096
:105A60009FED0E1A80ED001A9FED0C1A80ED051ABD
:105A700080ED090AC0ED0A0AB7EE001A80ED071A98
:105A80009FED061A80ED081AB7EE001A80ED0B1A8A
:105A900090ED001A80ED011A704700000000000030
:105AA00010B50E480E4908600320486000210C48DC
:105AB0008160C1604FF4102101614FF40011416118
:105AC0000021017641768176C17601774177FDF735
:105AD00029FC08B1FDF7ECF810BD0000006400409F
