:020000040800F2
:1000000078CA002029030008E35D0008CB4B0008F4
:10001000E15D0008991100084D8E00080000000005
:10002000000000000000000000000000690200085D
:100030002D17000800000000C5020008F176000836
:100040004303000843030008430300084303000878
:1000500043030008430300086F1700084303000828
:1000600043030008751700087B17000843030008C6
:100070004303000843030008430300084303000848
:100080004303000843030008430300084303000838
:100090009D1100084303000843030008811700086E
:1000A0004303000843030008430300084303000818
:1000B0004303000843030008430300084303000808
:1000C00043030008430300084303000843030008F8
:1000D00043030008DD7D000843030008857E000817
:1000E00043030008430300084303000843030008D8
:1000F0004303000843030008430300086D1300088E
:1001000043030008430300084303000843030008B7
:1001100043030008430300084303000843030008A7
:1001200043030008C5130008D11300084303000867
:100130004303000843030008430300084303000887
:10014000D51200084303000843030008695E000855
:100150008D16000899160008A5160008317F0008C2
:100160004303000843030008430300084303000857
:100170004303000843030008430300080000000095
:10018000430300084303000800F002F800F05CF8A5
:100190000AA090E8000C82448344AAF10107DA45E2
:1001A00001D100F051F8AFF2090EBAE80F0013F0D8
:1001B000010F18BFFB1A43F00103184730EE00008F
:1001C00050EE00000A444FF0000C10F8013B13F011
:1001D000070408BF10F8014B1D1108BF10F8015BA0
:1001E000641E05D010F8016B641E01F8016BF9D193
:1001F00013F0080F1EBF10F8014BAD1C0C1B09D1EA
:100200006D1E58BF01F801CBFAD505E014F8016B5B
:1002100001F8016B6D1EF9D59142D6D370470000ED
:100220000023002400250026103A28BF78C1FBD8FF
:10023000520728BF30C148BF0B6070471FB50EF092
:100240008BF81FBD10B510BD00F091FA1146FFF7F5
:10025000F5FF0AF045FF00F0AFFA03B4FFF7F2FF35
:1002600003BC00F0BFFA00002C4B19680868B0E826
:10027000F04F80F30988BFF36F8F4FF0000080F3D9
:10028000118870470000000008480068006880F38B
:1002900008884FF0000080F3148862B661B6BFF39F
:1002A0004F8FBFF36F8F00DF00BF00BF08ED00E08E
:1002B000DFF80C00016841F470010160704700BF75
:1002C00088ED00E0EFF30980BFF36F8F134B1A68DE
:1002D0001EF0100F08BF20ED108A20E9F04F1060CB
:1002E00009B44FF0500080F31188BFF34F8FBFF374
:1002F0006F8F0CF0BFFA4FF0000080F3118809BC3B
:1003000019680868B0E8F04F1EF0100F08BFB0EC95
:10031000108A80F30988BFF36F8F7047D0020020E6
:10032000EFF30580704700000948804709480047FF
:10033000FEE7FEE7FEE7FEE7FEE7FEE7FEE7FEE795
:10034000FEE7FEE704480549054A064B70470000F2
:10035000A577000889010008788A002078CA002063
:1003600078AA002078AA00209FED1A1AF5EE000A5C
:1003700040EE010ABDEEE00AF5EEC00A10EE100AEA
:10038000F1EE10FA38BF401E00EE100A1349F7EEE6
:10039000001AB8EEC00A30EEC00ADFED0F0A20EEF8
:1003A000200AFCEEC00A10EE900AC0F3080000EE2E
:1003B000900A01EB8000F8EE600A90ED011A70EEF1
:1003C000600A90ED000A71EEE01A21EE800A00EE5C
:1003D000810A704783F9223E0000004494E7000838
:1003E000DFED190AB5EEC00A60EE200ABDEEE01A94
:1003F00011EE100AF1EE10FA38BF401E00EE100A9E
:100400001349F7EE001AB8EEC00A30EEC00ADFED6D
:100410000F0A60EE200ABCEEE00A10EE100AC0F3EC
:10042000080000EE100A01EB8000B8EE400A90EDE3
:10043000011A70EEC00A90ED000A71EEE01A21EE8A
:10044000800A00EE810A704783F9223E00000044D2
:1004500094E7000853EA020C00F069802DE9F04BA4
:100460004FF00006002B1FBFB3FA83F503FA05F423
:1004700024FA05F65E4012BF1643B2FA82F502FA7C
:1004800005F4C5F120051EBF22FA05FC44EA0C0460
:10049000203556EA044C4FEA144418BF641C4FF050
:1004A00000084FF00009904271EB030C39D300298A
:1004B00019BFB1FA81F701FA07F6B0FA80F700FA2E
:1004C00007F6C7F120071EBF20FA07FC46EA0C0614
:1004D0002037B6FBF4FCA7EB0507103F07F01F0B16
:1004E000CBF120060CFA0BFB2CFA06F644BFB34600
:1004F0000026202FA4BF5E464FF0000B5BEA060CDF
:1005000008BF4FF0010B19EB0B09ABFB027C48EB6A
:100510000608C01B06FB02CC0BFB03CC71EB0C01E5
:10052000C1E70B46024641464846BDE8F08B13B58D
:100530004FF000004FF00001AFF30080BDE81C4019
:10054000704710B5431C02E010F8011B71B1810720
:10055000FAD14FF0013202C88C1A8C4314EAC2114E
:10056000F9D0C01A0A0603D0C01E10BDC01A10BDB3
:100570000A0401D0801E10BD0902FCD0401E10BD2F
:10058000032A40F2308010F0030C00F0158011F8BF
:10059000013BBCF1020F624498BF11F801CB00F897
:1005A000013B38BF11F8013BA2F1040298BF00F8EB
:1005B00001CB38BF00F8013B11F0030300F02580A8
:1005C000083AC0F0088051F8043B083A51F804CBCF
:1005D000A0E80810F5E7121D5CBF51F8043B40F895
:1005E000043BAFF30080D20724BF11F8013B11F8A0
:1005F00001CB48BF11F8012B24BF00F8013B00F8E4
:1006000001CB48BF00F8012B704710B5203AC0F06D
:100610000B80B1E81850203AA0E81850B1E8185003
:10062000A0E81850BFF4F5AF5FEA027C24BFB1E840
:100630001850A0E8185044BF18C918C0BDE81040B1
:100640005FEA827C24BF51F8043B40F8043B08BFBA
:100650007047D20728BF31F8023B48BF11F8012B81
:1006600028BF20F8023B48BF00F8012B704702F07A
:10067000FF0343EA032242EA024200F002B84FF0CD
:1006800000020429C0F0128010F0030C00F01B805F
:10069000CCF1040CBCF1020F18BF00F8012BA8BF6D
:1006A00020F8022BA1EB0C0100F00DB85FEAC17C31
:1006B00024BF00F8012B00F8012B48BF00F8012BE4
:1006C00070474FF0000200B5134694469646203915
:1006D00022BFA0E80C50A0E80C50B1F12001BFF4FB
:1006E000F7AF090728BFA0E80C5048BF0CC05DF861
:1006F00004EB890028BF40F8042B08BF704748BFAF
:1007000020F8022B11F0804F18BF00F8012B704722
:1007100070477047704710B500F00CF8006810BDC6
:1007200010B5044600F006F8046010BD004870479C
:10073000188A002000487047188A00201FB584B02E
:1007400000200A9C06AB04AA02A90094AFF3008023
:1007500018B1DDE9020108B010BD0348204000F0E7
:1007600039F800200146F6E70000207C7047754606
:10077000FFF7DCFFAE4605006946534620F0070050
:10078000854618B020B5FFF7DDFDBDE820404FF0ED
:1007900000064FF000074FF000084FF0000B21F06B
:1007A0000701AC46ACE8C009ACE8C009ACE8C00938
:1007B000ACE8C0098D46704710B50446AFF3008021
:1007C0002046BDE81040FFF748BD002801D000F0EA
:1007D00009B8704710B500F025F8BDE81040FFF7E4
:1007E000F4BF000001491820ABBEFEE7260002005E
:1007F00070B505460C460A2000E06D1C00F068F854
:1008000035B128780028F8D102E0641C00F060F8C7
:1008100014B120780028F8D1BDE870400A2000F01B
:1008200057B8000010B5022803D0410103D50DA12F
:1008300012E0002010BD010101D50FA10CE0C100A4
:1008400001D511A108E0810001D512A104E040000A
:1008500001D513A100E0002115A0FFF7C9FF012079
:1008600010BD0000496E76616C6964204F7065723E
:100870006174696F6E0000004469766964652042A6
:1008800079205A65726F00004F766572666C6F77DB
:1008900000000000556E646572666C6F77000000A2
:1008A000496E657861637420526573756C740000DD
:1008B0005349474650453A2041726974686D6574E2
:1008C000696320657863657074696F6E3A20000013
:1008D00008B569468DF800000320ABBE08BD0000D6
:1008E000464910B54A6822F440324A604A68436873
:1008F0001A434A6001684A6822F480724A600168BB
:100900004A68036942EA03224A6001684A6822F0A1
:1009100040724A6001684A6883681A434A60016805
:100920008A6822F400628A6001688A68C3681A4390
:100930008A60816A6FF07062D14201688A6822F031
:1009400070628A6001688A680CD0836A1A438A6080
:1009500001688A6822F040528A6001688A68C36A26
:100960001A4301E022F040528A6001688A6822F04E
:1009700002028A6001688A68037E42EA43028A6052
:1009800090F82010002901684A680FD042F40062F4
:100990004A6001684A6822F460424A6001684A6815
:1009A000174C436A04EB43331A4301E022F400621C
:1009B0004A600168CA6A22F47002CA620168CA6A9F
:1009C000838B104C04EB03531A43CA6201688A6894
:1009D00022F400728A6001688A6890F8303042EA36
:1009E00043228A6001688A6822F480628A60016812
:1009F0008A68406942EA8020886010BD0023014077
:100A000000E0FFFF0000F0FF08F044BA08F0D8BA99
:100A1000FFF7AABCF0EE400AF5EEC00AF1EE10FABC
:100A200002DDB0EE600A7047B1EE600AFBE700003D
:100A3000002803D09FED020A80ED000A70470000F5
:100A400000000000002803D0B3EE060A80ED000A83
:100A50007047000070B52DED0C8B84B006460C4637
:100A600015469FED990AF0EE408A9FED970AB0EE89
:100A7000409A9FED950AF0EE40BA9FED930AF0EE92
:100A8000409A9FED910AB0EE40AA0EB104B11DB993
:100A900004B0BDEC0C8B70BD8C48FFF7C9FF8C48CF
:100AA000FFF7D0FF8A48D0ED000A9FED8A1A60EE6A
:100AB000810AB0EE600A00F025F9F0EE408A28EED7
:100AC000A80AF0EE408A8248D0ED000AB0EE001A83
:100AD00060EE810A9FED7F1A60EE810AB0EE600A37
:100AE00000F010F9B0EE409A29EE090AB0EE409AF3
:100AF000DFED790AB7EE000A00EEA80ADFED770A0B
:100B000000EEC90ADFED760A20EE200A754880ED76
:100B1000000A6E4890ED000ADFED730A80EE201A9D
:100B2000B7EE000A31EE000A20EE000A6D48D0ED63
:100B3000000A80EE801A6D4880ED001A94ED000ADC
:100B4000B5EEC00AF1EE10FA0DD194ED010AB5EE42
:100B5000C00AF1EE10FA06D194ED020AB5EEC00A11
:100B6000F1EE10FA46D09FED580AB0EE408A002010
:100B7000019002900390D4ED000A60EEA00A94ED7B
:100B8000011AD4ED011A41EE210A94ED021AD4EDB6
:100B9000021A41EE210AB0EE600A00F0A9F8B0EEA8
:100BA000408A94ED000A20EE080A8DED010A94EDCA
:100BB000010A20EE080A8DED020A94ED020A20EEE9
:100BC000080A8DED030ADDED010AF1EE600AB0EED0
:100BD000600AFFF719FFF0EE409A9DED031AF0EE60
:100BE000410A9DED021AB0EE410AFFF70FFFB0EE89
:100BF00040AA07E09FED340AF0EE409A9FED320ADA
:100C0000B0EE40AA95ED000AB5EEC00AF1EE10FA7A
:100C10000DD195ED010AB5EEC00AF1EE10FA06D13C
:100C200095ED020AB5EEC00AF1EE10FA3CD0B0EE36
:100C3000690A00F067F8B0EE408AB0EE690AFFF783
:100C4000E7FEB0EE40DAB0EE4A0A00F05BF8F0EEF4
:100C500040AAB0EE4A0AFFF7DBFEB0EE40BA28EE3B
:100C60002A0AD5ED010A20EE200AD5ED000A0DEE84
:100C7000200A68EE0B0A95ED021A00EE810AB0EE2A
:100C800040CA95ED010A20EE0B0AD5ED020A0AEEE4
:100C9000E00AF0EE40CAF0EE6C0AB0EE4C0AFFF744
:100CA000B5FEF0EE40BA03E09FED070AF0EE40BA61
:100CB000B0EE4A1AF0EE690AB0EE6B0A304608F060
:100CC000C5FC00BFE4E6000000000000480300206F
:100CD0004C03002035FA8E3CC1BFAD3B9DF8C536B4
:100CE0002F7C1C4150030020506CC24A540300204A
:100CF00010B508F08DFAB7EE001AC1EE000AB0EE9A
:100D0000600A10BDFFF76CBB2DE9F0412DED028BA1
:100D10009AB00546B0EE408A0E4617469846002027
:100D20001790189019901490159016904DB146B1E7
:100D30003FB1B8F1000F04D0B5EEC08AF1EE10FA61
:100D400005D100201AB0BDEC028BBDE8F08196ED14
:100D5000000A8DED170A96ED010A8DED180A96ED41
:100D6000020A8DED190A97ED000A8DED140A97ED30
:100D7000010A8DED150A97ED020A8DED160A17AAE4
:100D800014A9284608F096FA402104A8FFF799FC18
:100D900000200090019002900390002417A904A85D
:100DA0000BF088FA00BF30E004A800EB041090EDCF
:100DB000000AD5ED000A20EE200A04A800EB04107A
:100DC000D0ED010A95ED011A00EE810A04A800EBAE
:100DD0000410D0ED020A95ED021A00EE810A04A873
:100DE00000EB0410D0ED030A95ED031A00EE810A22
:100DF00020EE080AF0EE000A80EE201A684600EBAA
:100E0000840080ED001A601CC4B2042CCCDB0024EA
:100E100010E005EB840090ED000A684600EB8400CA
:100E2000D0ED000A30EE200A05EB840080ED000AC8
:100E3000601CC4B2042CECDB28460AF0EDFE012055
:100E400080E7000001221021014801F053BD00009D
:100E50000000024000221021014801F04BBD0000BB
:100E6000000002407047000001221146014801F0D5
:100E700041BD00000004024000220121014801F0B0
:100E800039BD00000004024030B5437804781B02ED
:100E90001BB2234300EE103A194CB8EEC00AD4ED51
:100EA000000A20EE200A81ED000AC37885781B0233
:100EB0001BB22B4300EE103AF8EEC00A94ED000A84
:100EC00060EE800AC1ED010A437904791B021BB26E
:100ED000234300EE903AF8EEE00A20EE800ADFEDC0
:100EE000090A81ED020AD0F8060020F07F4000EEEA
:100EF000100AB8EE400A20EE200A82ED000A30BD4A
:100F00009802002000401C4270470AF0E5B909F041
:100F1000E1B8000010B542780378120212B21A4309
:100F200000EE102A124BB8EEC00AD3ED010A20EEF3
:100F3000200A81ED000AC2788478120212B222439C
:100F400000EE102AF8EEC00A93ED010A60EE800A66
:100F5000C1ED010A42790079120212B2024300EE99
:100F6000902AF8EEE00A20EE800A81ED020A10BD18
:100F70009802002010B5FFF775FFFFF7C5FF08F0D6
:100F8000AFFC08B1802402E008F016FC044608F02B
:100F900073FE10B144F0400010BD08F0FFFD204387
:100FA00010BD00002DE9FC410546002016460C4608
:100FB00000900190FFF74EFF922000F0BDF806224E
:100FC0006946122000F09AF8FFF73CFF9DF80100F7
:100FD0009DF80010000200B2084300EE100A464FD0
:100FE000B8EEC00AD7ED000A20EE200A84ED000A10
:100FF0009DF803009DF80210000200B2084300EEC5
:10100000100AF8EEC00A97ED000A60EE800AC4EDFF
:10101000010A9DF805009DF80410000200B2084383
:1010200000EE900AF8EEE00A20EE800A84ED020A53
:10103000FFF722FF08226946002000F05FF8FFF763
:1010400013FF9DF800000F2830D19DF803009DF894
:101050000210000200B2084300EE100AD7ED010AA8
:10106000B8EEC00A20EE200A85ED000A9DF80500C2
:101070009DF80410000200B2084300EE100AF8EEDA
:10108000C00A97ED010A60EE800AC5ED010A9DF8DD
:1010900007009DF80610000200B2084300EE900A17
:1010A000F8EEE00A20EE800A85ED020AFFF7D2FE94
:1010B000A22000F041F802226946222000F01EF82A
:1010C000FFF7C0FE9DF800009DF80110C00040EA47
:1010D0005110B0F5806F01DBA0F5006000EE100A42
:1010E000B4EE001AF8EEC00AB3EE070A00EE810A69
:1010F00086ED000ABDE8FC819802002070B5144618
:101100000D4640F0800000F017F806E0552000F092
:1011100013F8641E05F8010BE4B2002CF6D170BD83
:1011200010B50C4640F0800000F006F8552000F0A5
:1011300003F8207010BD000001B582B04FF47A7042
:101140000090012301AA02A9024802F097FF9DF82E
:1011500004000EBD6C0C002002784078D20042EAF8
:101160005010B0F5806F01DBA0F5006000EE100AB2
:10117000B4EE001AF8EEC00AB3EE070A00EE810AD8
:1011800081ED000A704710B50C46FFF7D5FF2046E9
:10119000BDE81040FFF7D0BFFEE70000014800F0B7
:1011A00064BE0000900A00203EB509F0C7FA314C39
:1011B000E0600188ADF800108188ADF80210C088A9
:1011C000ADF8040009F02CFAA06000788DF8060054
:1011D00000238DF80730E068808AC10702D08021A3
:1011E0008DF80710410705D59DF8071041F0400123
:1011F0008DF80710810705D59DF8071041F02001F3
:101200008DF80710010705D59DF8071041F0100172
:101210008DF80710010605D59DF8071041F008016B
:101220008DF80710810505D59DF8071041F00401E0
:101230008DF80710400505D59DF8070040F0020025
:101240008DF807000B4A0020694630320C5C1454BC
:10125000401C0828FAD308480321064A836001602D
:101260000821C0E90331014602AB3032034800F0E7
:101270009DFC3EBD4802002090270020900A0020DF
:101280000EB509F0D5F990ED000A8DED000A09F0D0
:1012900089FA90ED060A0C4A8DED010A0020694694
:1012A0000B5C1354401C0828FAD30848022102ABF7
:1012B000016000218160C160082101610146024A8C
:1012C000034800F073FC0EBD700200207827002058
:1012D000900A0020014800F0C8BD0000B80A0020B4
:1012E00038B50E4C40F2FF1525600025A560E5607D
:1012F000082525610A4C050A25706070080AA0704F
:10130000E170100A20716271180AA071E3716B46D6
:1013100022460249034800F049FC38BD302700202E
:1013200058020020B80A002038B50D4A4FF4007367
:101330000824136000239360C2E90334094A040AB5
:1013400014705070080A9070D170137153719371BA
:10135000D3716B460249044800F028FC38BD0000F8
:101360004827002060020020B80A0020124A10B569
:10137000506800011ED5114B114C4FF00061586BA5
:101380000068A04202D90E484C3805E00A4CB83437
:10139000A04203D90A485038016006E0064C583490
:1013A000A04201D9D16000E091601868016841F461
:1013B0000071016010BD000000600240340B00208D
:1013C00058640240014801F029B800003C11002097
:1013D0002DE9F05FA548A64AA54DC06CA54EA44FC7
:1013E0000068DFF890C2DFF88882DFF88892DFF8C3
:1013F00080A2DFF880B2DFF878E29E4C483D60368C
:101400001837D1140CF1180CA8F1300809F178093B
:101410000AF1300A0BF1300BAEF1180E90421ED9D2
:10142000934A543A21E0B8422ED1202208E0504598
:1014300031D10A4604E04FF4001201E04FF000629F
:10144000134276D08A4A90424ED9A04205D0A84293
:1014500003D0B04201D0B8422AD1202141E0854AD0
:10146000A832904203D9824A583A136805E0814A6B
:1014700048329042804AF8D95368A042D5D0A84259
:10148000D3D0B042D1D0CEE76045D2D04045D0D005
:101490004845CED0CBE75845CDD07045CBD0754A26
:1014A00090329042C7D0724A48329042C6D1C2E7C9
:1014B000604516D0404514D0484512D0504510D054
:1014C000584509D0704507D06A499031884203D009
:1014D00067494831884202D14FF4001101E04FF0D2
:1014E000006163484C3829E0624AA832904227D90B
:1014F000A04205D0A84203D0B04201D0B84201D1E9
:10150000202119E0604517D0404515D0484513D03B
:10151000504511D0584509D0704507D055499031F4
:10152000884203D052494831884203D14FF4001118
:1015300002E098E04FF000614D48503801604EE005
:101540004C4A4832904225D9A04205D0A84203D047
:10155000B04201D0B84201D1202118E0604516D038
:10156000404514D0484512D0504510D0584509D0B8
:10157000704507D03F499031884203D03C494831FB
:10158000884202D14FF4001101E04FF000613A4867
:10159000C16024E0A04205D0A84203D0B04201D0EF
:1015A000B84201D1202118E0604516D0404514D042
:1015B000484512D0504510D0584509D0704507D045
:1015C0002C499031884203D029494831884202D1C0
:1015D0004FF4001101E04FF0006127488160274C73
:1015E000207880070CD5207820F002002070207829
:1015F00040F00400207001221146214801F07AF9E0
:101600006078204D80070CD5607820F00200607073
:10161000607840F00400607001221021284601F03B
:1016200069F9A07880070CD5A07820F00200A0709E
:10163000A07840F00400A07001221021284601F09B
:1016400059F909F0B1FA207840070CD5207820F03C
:1016500004002070207840F0080020700A480168DB
:1016600041F001010160BDE8F09F00006C0C00201A
:10167000586402401060024000600240A400002054
:101680000004024000000240103C0140014800F00C
:10169000C5BE00007C100020014800F0BFBE000065
:1016A0009C110020014800F0B9BE00001C10002071
:1016B00001681823CAB2103AB2FBF3F2054B6FF37C
:1016C0000901032A9B5CC36500D9091D8165084691
:1016D000704700007EE7000810B5014600208B69C6
:1016E0008A6A4FF0C07453B1B3F5005F15D072B180
:1016F000012A0CD0022A0AD0032A09D104E01AB127
:10170000012A06D0022A03D1C96AC90100D50120E5
:1017100010BDC96AA142FAD010BD002AF7D0012A33
:10172000F2D0022AF3D0032AF3D010BD704702E0B2
:1017300000F5005000B20028FADB4FF40051884257
:1017400003DBA0F5005000B2F9E780B2704702E079
:1017500000F5005000B20028FADB4FF40051884237
:1017600003DBA0F5005000B2F9E780B2704701201A
:1017700000F0D4BF082000F0D1BF102000F0CEBF91
:10178000202000F0CBBF2DE9FF41E7262DED060B11
:101790007E250127109C00F8036B00F8025C00F81E
:1017A000017C009F0760019F4760029F8760039F45
:1017B000C760049F0761059F47610676457602254D
:1017C0008576C1760277437784770AB0BDE8F081E9
:1017D0007047000078B50024009490F83C20012A5E
:1017E00019D0012280F83C200A6807250368092ADD
:1017F00013D9DE680A3A02EB42029540AE43DE603E
:101800000A788B680A3A02EB420293400268D56874
:101810002B43D36010E0022078BD1E6902EB420228
:101820009540AE431E610A788B6802EB42029340FA
:10183000026815692B4313614A681F25072A13D2D2
:1018400003685E6B521E02EB82029540AE435E63FC
:101850000A8893B20A79521E02EB82029340026810
:10186000556B2B43536327E003680D2A12D21E6B7E
:10187000D21F02EB82029540AE431E630A8893B2E8
:101880000A79D21F02EB820293400268156B2B4348
:10189000136311E0DE6A0D3A02EB82029540AE431B
:1018A000DE620A8893B20A790D3A02EB8202934013
:1018B0000268D56A2B43D362164B0568144A9D42D1
:1018C00006D10D68122D03D1556845F48005556089
:1018D00005689D4218D10B68102B01D0112B13D134
:1018E000536843F400035360096810290CD10A4976
:1018F0000A4A0968B1FBF2F101EB8101490000E0FD
:10190000491E00910029FBD180F83C40002078BDA1
:1019100000230140002001402C00002040420F0025
:101920000068C06C704770B504004FF0000603D02B
:10193000206C002510B107E0012070BD204600F0AA
:101940001DF8656484F83C50206CC00610D4206CEF
:1019500020F4885040F0020020642046FEF7C0FFCB
:101960006564206C20F0020040F00100206400E07B
:10197000012684F83C50304670BD000010B586B09A
:10198000044614216846FEF79CFE174B206800228F
:101990001649984209D1086840F4807008600868C8
:1019A00000F48070059006B010BD114B9842FAD13A
:1019B000086840F480600860086800F48060059062
:1019C0000A481438016841F0200101600068694646
:1019D00000F020000590181500900320CDE90102C9
:1019E000044800F0A7FEDEE7002001404438024032
:1019F00000220140001402402DE9F0410446006835
:101A00000D4681684FF0000749050BD58068C00579
:101A100008D5206C40F02000206484F83C70012040
:101A2000BDE8F08100F06CFF06460FE0681C0DD0A9
:101A300025B100F065FF801BA84207D9206C40F05B
:101A40000400206484F83C700320E9E72068006803
:101A50008007EBD521686FF012000860206C40F41D
:101A6000007020642068816811F0405F13D1217EEE
:101A700089B9C16A11F4700F02D0806840050AD498
:101A8000206C20F480702064206CC00403D4206C8F
:101A900040F0010020640020C2E7000018B50022D9
:101AA000009290F83C10012907D0012180F83C10E9
:101AB00001688B68DB0702D011E0022018BD8B683B
:101AC00043F001038B602A492A4B0968B1FBF3F10B
:101AD00001EB410100E0491E00910029FBD10168A2
:101AE0008B68DB0741D0036C40F20164A34343F4ED
:101AF000807303644B685B0505D5036C23F40053C6
:101B000043F480530364036CDB0404D5436C23F07B
:101B10000603436400E0426480F83C20164A6FF0FC
:101B200022030B6051680068CA06144906D0884237
:101B30001BD1816811F0405F13D016E08842F8D0C5
:101B40000F4A904203D1D1F80423D206F1D00D4AB6
:101B500090420AD1D1F8041301F01F011029E8D3F3
:101B600003E0816841F080418160002018BD0000E1
:101B70002C00002040420F000023014000200140C3
:101B8000002101400022014090F82020012A07D0C6
:101B9000022A05D0416A41F4802141620120704748
:101BA000006842690A43426100207047F0B590F82E
:101BB00020500468A468012D05D0022D03D0416A8D
:101BC00041F4802153E014F0406F01D1E5004BD582
:101BD000C4F30164022C03D9416A41F4000146E0D8
:101BE0000125A5401D608B684FF4C0759BB1CE6880
:101BF00033434E6843EAC603066805EB0417F35106
:101C00004FF4C273076803EB04130E69FE50097D9D
:101C1000012905D009E00E88CB6843EA4653EBE77B
:101C20000168CE5846F48076CE501179D2F805304E
:101C30004FF4C67641EA0323016806EB04168B5184
:101C40001178D2F801204FF4C47341EA02210268EE
:101C500003EB0413D150006805EB0411425842F025
:101C6000010242500020F0BD416A41F4001141627E
:101C70000120F0BD10B590F82020012A07D0022ADB
:101C800005D0416A41F480214162012010BD3B48EA
:101C9000D0F8002242F00102C0F80022D0F8002261
:101CA00022F47C52C0F80022D0F800224B6A42EAAB
:101CB0000322C0F800220A7D02F01F0301229A408D
:101CC000D0F81C329343C0F81C32CB69B3B9D0F8BA
:101CD0000C329343C0F80C328C894B6864F31F4379
:101CE0004C6900EBC404C4F840320C890B6864F3FF
:101CF0001F434C6900EBC404C4F84432CB69012B88
:101D000016D1D0F80C321343C0F80C320C884B6853
:101D100064F31F434C6900EBC404C4F840320C89DF
:101D2000CB6864F31F434C6900EBC404C4F844322D
:101D30008B69002BD0F804320ED01343C0F8043264
:101D40000B69002BD0F8143208D01343C0F81432BA
:101D5000096A012904D008E09343EFE79343F5E7CC
:101D6000D0F81C121143C0F81C12D0F8001221F058
:101D70000101C0F80012002010BD00000064004006
:101D8000704730B590F82040012C05D0022C03D0CC
:101D9000416A41F480215DE00468002955D024693E
:101DA000A40754D04FF4D874056804EB01142D59DE
:101DB00015F00405956005682D594ED0ED08556065
:101DC00005682C59C4F34004D4604FF4DA740568F4
:101DD00004EB01142D5905F00F05156105682D5907
:101DE000C5F30725956105682C59240C54614FF4FF
:101DF000DC72046802EB0112A4581C700468A45839
:101E0000240A5C700468A458240C9C700468A258CE
:101E1000120EDA704FF4DE72046802EB0112A4585D
:101E20001C710468A458240A5C710468A458240C2A
:101E30009C710468A258120EDA71006881B10169C0
:101E400041F020010161002030BDE468A8E7416A4B
:101E500041F400114162012030BD6D0D1560AFE706
:101E6000C16841F02001C160EDE72DE9F05F054652
:101E7000006800244669D0F804908768D0F80CB058
:101E8000D0F810A0D0F81880F10748D0F90714D086
:101E900001218160B80703D5284600F092FA0CE0D2
:101EA000780702D54FF4006407E0380702D54FF4F5
:101EB000805402E0284600F083FAF80516D5296818
:101EC0004FF480708860B80503D5284600F07BFA8F
:101ED0000CE0780502D544F4005407E0380502D53B
:101EE00044F4804402E0284600F06CFAF80316D56A
:101EF00029684FF480308860B80303D5284600F085
:101F000064FA0CE0780302D544F4004407E0380397
:101F100002D544F4803402E0284600F055FA300738
:101F200007D55FEACB6004D52968102044F400741B
:101F3000C86070074FF0080707D55FEA0B7004D53B
:101F40002868C760284600F097F9B00706D52868CA
:101F5000C068800702D0284600F090F9700607D5C7
:101F60005FEACA6004D52968102044F480640861DF
:101F7000B00607D55FEA0A7004D5286807612846CD
:101F800000F0F0F9F00606D528680069800702D055
:101F9000284600F0E8F9B00308D55FEAC96005D526
:101FA000296810204860284600F0DEF9F00307D5C4
:101FB0005FEA097004D528684760284600F006FAF1
:101FC000300446D55FEA497040D5F00504D55FEA94
:101FD000C87001D044F00104B00504D55FEA8870F0
:101FE00001D544F00204700504D55FEA487001D5BC
:101FF00044F00404300529D518F0700F26D008F0FD
:102000007000402815D006DC102809D020280AD0FE
:10201000302816D10AE050280ED0602811D10EE0E9
:1020200044F008040DE044F010040AE044F02004F9
:1020300007E044F0400404E044F0800401E044F48C
:1020400080742868816921F0700181612968042009
:102050004860002C05D0686A204368622846FFF774
:102060008FFEBDE8F09F70B5040003D094F8200007
:1020700010B104E0012070BD204600F081F8206816
:10208000016821F00201016000F03AFC05460526D6
:1020900004E000F035FC401B0A2811D82068406895
:1020A0008007F6D42068016841F00101016000F06A
:1020B00027FC05460BE000F023FC401B0A2806D94C
:1020C000606A40F40030606284F82060D2E72068E3
:1020D0004068C007EFD0207E0128206801683DD00D
:1020E00021F080010160607E01282068016838D0FD
:1020F00021F040010160A07E01282068016833D0F2
:1021000021F020010160E07E0128206801682ED0C6
:1021100041F010010160207F01282068016829D06A
:1021200021F008010160607F01282068016824D047
:1021300021F004010160D4E902010843D4E904124A
:10214000114308436168491E08432168C8610020A3
:102150006062012084F82000002070BD41F0800101
:10216000C0E741F04001C5E741F02001CAE721F096
:102170001001CFE741F00801D4E741F00401D9E7AD
:10218000F0B587B0044614216846FEF79AFA35493F
:10219000354ADFF8CCE00868D4F800C0324B03249D
:1021A0000225092610320027401CF44521D1086081
:1021B000012807D1106840F000701060106800F02E
:1021C00000700590186840F00800186018688DE8E5
:1021D000B00000F00800CDE904606946039423488C
:1021E00000F0A8FA00220621142000F0FBFE1420C3
:1021F00031E0DFF87CE0F4452FD1D2F800C04CF09C
:10220000806CC2F800C0D2F800C001280CF0806CCD
:10221000CDF814C0086007D1106840F0007010605D
:10222000106800F000700590186840F00200186017
:102230001868694600F00200059060208DE8A10052
:10224000CDE903460B4800F075FA00220621402034
:1022500000F0C8FE402000F0B7FE07B0F0BD00005F
:10226000006400402000002030380240000C024092
:1022700000680040000402407047000010B58AB0BA
:1022800004466B4602AA0021FFF77BFD0299B1F5D7
:10229000017F09D031DC04294CD0A1F2012119B110
:1022A000012901D0022926D10298401EC1B22A4834
:1022B00001702A48844202D111B3012920D0284B51
:1022C00001EB810203EB420033F812400481BDF8B8
:1022D0000040491C64BA23F81240BDF8022052BAEB
:1022E0004280BDF8042052BA82809DF80620827197
:1022F000C8B207F009FF0AB010BDA1F20521CEE770
:10230000174A01EB8101463202EB410032F81130ED
:102310000381BDF800305BBA22F81130BDF802101D
:1023200049BA4180BDF8041049BA81809DF8061071
:102330008171E0E70020694609AA0B5C1354401C38
:102340000428FAD30448BDF82410801C01809DF8AD
:1023500026108170CFE7000048020020B80A002054
:10236000D426002070477047704770B5044690F837
:102370002000012804D0606A40F40020606217E069
:10238000022084F820002068016821F0010101602A
:1023900000F0B6FA05460DE000F0B2FA401B0A283C
:1023A00008D9606A40F400306062052084F820009B
:1023B000012070BD20684068C007EDD1606270BD2B
:1023C000704770477047704770477047704710B547
:1023D000040002D0607910B106E0012010BD002099
:1023E0002071204600F006F8022060710120607123
:1023F000002010BD08B500680649884208D106488B
:10240000016841F480510160006800F48050009040
:1024100008BD000000300240303802402DE9F8438A
:1024200004464FF00009CDF8009063484FF4165170
:10243000A56D0068B0FBF1F72E6894F85C200821C8
:1024400001FA02F030420FD02068026852070BD523
:10245000026822F00402026094F85C008140A960E6
:10246000606D40F00100606594F85C104FF0010869
:1024700008FA01F0304208D021684969090604D5FC
:10248000A860606D40F00200606594F85C10042064
:102490008840304208D021680968890704D5A860BF
:1024A000606D40F00400606594F85C101020884076
:1024B000304218D021680968090714D5A86020683F
:1024C0000168490304D50068000308D5A16C07E042
:1024D0000168C90503D4016821F008010160216C7D
:1024E00009B12046884794F85C102020884030428B
:1024F00031D021680968C9062DD5A86094F8350047
:1025000005282068016806D0490347D50068000304
:102510001DD4616C1CE021F0160101602068416946
:1025200021F080014161206C08B9A06C20B12068C5
:10253000016821F00801016094F85C103F20884098
:10254000A86084F8349084F83580216D1FE0E16B39
:1025500009B120468847606D00282BD0606DC00708
:1025600014D0052084F835002068016821F00101AD
:1025700001600098401C0090B84203D820680068B1
:10258000C007F6D184F8349084F83580E16C0029D6
:1025900010D001B02046BDE8F04308470168C905E6
:1025A000D5D4016821F01001016084F8349084F8DA
:1025B0003580CCE7BDE8F8832C0000202DE9F04100
:1025C000044600F09DF905465CB1002684F83460AD
:1025D000022084F835002068016821F001010160C3
:1025E0000DE00120BDE8F08100F08AF9401B0528CC
:1025F00005D920206065032084F83500F2E72068C3
:102600000068C007F0D121680A6820480240D4E978
:1026100001031843D4E903352B4318436369184376
:10262000A3691843E3691843236A18431043626A95
:10263000042A03D1D4E90B231A431043086020680D
:102640004069656A20F0070128460D4301270428E8
:102650000CD1A06A0543E06A40B12046FFF73CF880
:1026600020B14020606584F83570BAE72068456184
:102670002046FFF71DF894F85C203F2191408160CF
:10268000666584F835700020ACE700003F8010F0EC
:1026900010B5204C10281AD0202824D0082830D07B
:1026A000012813D10AF0A8FC01280FD004F114016D
:1026B000A0690AF005F86069002807D016494FF0B4
:1026C00080500860BFF34F8FBFF36F8F10BD09209C
:1026D00007F01AFD607840F001006070A07840F0CB
:1026E0000100A07006E0082007F00EFD207840F001
:1026F0000100207020790028E8D0BDE8104008F0E3
:1027000053BA0A2007F000FDE07840F00100E070C5
:1027100010BD0000A400002004ED00E0044910B545
:102720000A68024202D00860FFF7B2FF10BD000045
:10273000143C01402DE9F84FDFF88C91002209F19B
:10274000040A0AF1040B4FF00F080BF1040E0126E6
:102750000B6896403340B34271D14C68022C01D0D3
:10276000122C11D1D40800EB84073D6A5407E40E03
:1027700008FA04FC25EA0C05D1F810C00CFA04FC98
:102780004CEA050CC7F820C007685400032591F8EF
:1027900004C0A5400CF0030CAF430CFA04FC4CEA57
:1027A000070CC0F800C04F68012F05D0022F03D0DE
:1027B000112F01D0122F11D18768D1F80CC0AF436F
:1027C0000CFA04FC4CEA070CC0F808C04768B74391
:1027D0000E79C6F3001696403E434660C668AE4387
:1027E0008D68A5403543C5604C68E40065D5374C1D
:1027F000256845F480452560246822F0030504F42B
:1028000080440094324C2E19D6F808789407250F8E
:1028100008FA05F4A7432F4CA04201D1002424E07C
:102820002D4CA04201D101241FE02C4CA04201D12B
:1028300002241AE02A4CA04202D1032415E03CE015
:10284000284CA04201D104240FE0274CA04201D122
:1028500005240AE0254CA04201D1062405E0244CC1
:10286000A04201D1072400E00824AC403C43C6F854
:102870000848D9F800404D464E689C43F60300D501
:102880001C432C60DAF8004055464E689C43B60362
:1028900000D51C432C60DBF800405D464E689C432D
:1028A000F60200D51C432C60DEF8004075464E68E9
:1028B0009C43B60200D51C432C60521C102AFFF426
:1028C00046AFBDE8F88F0000003C014044380240AC
:1028D00000300140000002400004024000080240B5
:1028E000000C024000100240001402400018024098
:1028F000001C02400AB1816170470904FBE7000037
:102900000148806870470000C402002070B50400D0
:102910001BD094F83D00002520B984F83C50204697
:1029200000F042FA242084F83D002068016821F07C
:102930000101016001F03AF84D4B6168994201D8FC
:102940004C4900E04C49884201D2012070BD4B49FE
:102950002268B0FBF1F1566826F03F060E43566040
:1029600062689A4206D94FF4967251434FF47A72D4
:10297000B1FBF2F12268491C166A26F03F0631438A
:1029800011626168994210D84900401EB0FBF1F213
:10299000521CC2F30B02042A01D2042022E0B0FB35
:1029A000F1F0401CC0F30B001CE0A268F2B301EB95
:1029B000C10303EB0116431EB3FBF6F35B1C43F4A8
:1029C00080431B0549D092B301EBC10202EB011118
:1029D000401EB0FBF1F0401CC0F30B0040F48040FF
:1029E00040F400402168CA694CF6FF739A431043D3
:1029F000C861D4E9071001432068026822F0C002D0
:102A000011430160D4E9030101432068826848F260
:102A1000FF339A4311438160D4E9051001432068D4
:102A2000C26822F0FF021143C16001E00EE016E02F
:102A30002068016841F0010101602564202084F8CC
:102A40003D00256384F83E50002070BD01EB410637
:102A5000431EB3FBF6F35B1CB3E70120C2E701EBB7
:102A60004101401EB0FBF1F0401CC0F30B00B7E782
:102A7000A086010080841E0000093D0040420F0036
:102A80002DE9FF4F83B09A46DDE91197934604463E
:102A9000DDF84080FFF734FF054694F83D0020281C
:102AA00070D11923012271492046009502F088F95E
:102AB0000028F5D194F83C00012863D0012084F867
:102AC0003C0020680168C90703D1016841F0010199
:102AD00001602068016821F400610160222084F80F
:102AE0003D00402084F83E0000262664C4F824807F
:102AF000A4F82A90608D20855D48E062CDE90075DC
:102B000053465A462046049902F077F800287CD1B3
:102B1000208DD0B1012821D00228206824D041691D
:102B200080690090208D032869D801282BD0514955
:102B300002283B464FF00002009559D088462046B7
:102B400002F03EF9002860D13CE0206841698169CB
:102B50000091016841F40071016077E0206801682C
:102B600021F480610160F0E7016821F48061016077
:102B70002068016841F40061016020684169806952
:102B8000009063E06FE02A463946204602F098F94B
:102B900098BB20680069616A08704EE0206801688F
:102BA00041F40071016020680069616A0870606A20
:102BB000401C6062218D491E2185618D491E618501
:102BC000216838E02068016821F480610160206894
:102BD0000069616A0870606A401C6062208D401E56
:102BE0002085608D401E60853B4600224146009551
:102BF000204602F0E5F800B9D0E706E0FFE72A46F4
:102C00003946204602F05CF918B1012007B0BDE852
:102C1000F08F20680069616A0870606A401C606219
:102C2000218D491E2185618D491E618521684A6972
:102C3000D24352070AD409690170606A401C60627D
:102C4000208D401E2085608D401E6085208D0028CF
:102C50007FF468AF202084F83D0084F83E6084F85B
:102C60003C600020D2E70220D0E700000200100004
:102C70000000FFFF040001002DE9FF4F83B09A46DA
:102C8000DDE9119793460446DDF84080FFF738FEF2
:102C9000054694F83D0020287FD1192301224049A0
:102CA0002046009502F08CF8002876D194F83C007C
:102CB000012872D0012084F83C0020680168C9070F
:102CC00003D1016841F0010101602068016821F42D
:102CD00000610160212084F83D00402084F83E001E
:102CE00000262664C4F82480A4F82A90608D2085EC
:102CF0002C48E062CDE9007553465A4620460499B7
:102D000001F0EEFF70B930E02A463946204602F065
:102D10000CF958B1206C042804D12068016841F4F2
:102D200000710160012007B0BDE8F08F606A216882
:102D300000780861626A521C6262208D401E80B277
:102D40002085618D491E618521684B69DB435B07E6
:102D50000BD468B110780861606A401C6062208DF5
:102D6000401E2085608D401E6085208D0028CBD1BF
:102D70002A463946204601F0FDFF0028CAD154F802
:102D80003D0B016841F400710160202004F81E0928
:102D9000E67766770020C6E7FFE70220C3E700007A
:102DA000020010000000FFFF2DE9F04387B0054648
:102DB00014216846FDF785FC4B4E4A4B29680024D8
:102DC00049481222032710364FF001084FF004093A
:102DD000994218D1016841F002010160006869461A
:102DE00000F00200059038028DE80501CDE9037975
:102DF0003E48FFF79FFC306840F4001030603068B8
:102E000000F400106CE03A4B99423BD1016841F06C
:102E1000200101600068CDE9007200F02000CDE9DA
:102E20000490CDE9028769463248FFF783FC306899
:102E300040F4800030603068304E00F4800005902F
:102E40002D4830604FF0606070604020C6E9020499
:102E50000001C6E90404C001B461C6E90740304678
:102E60007462FFF7ABFB08B1FEF7B2FC23486E6358
:102E7000A838B5630068416841F40061416007B05B
:102E8000BDE8F0831E4B9942F9D1016841F004017D
:102E90000160016801F004010591016841F0010140
:102EA00001600068144600F00100059058158DE897
:102EB0001101CDE9037969461248FFF73BFC4FF455
:102EC00080708DE81101CDE9037969460E48FFF75E
:102ED00031FC306840F400003060306800F40000DD
:102EE0000590CCE700540040303802400004024016
:102EF0000058004000140240B8600240DC0B002083
:102F0000005C004000080240000002400248816866
:102F10000278114481607047C40200200B4810B54C
:102F2000016841F400710160016841F48061016051
:102F3000016841F480710160032000F073F80F20F4
:102F400000F006F800F024F8002010BD003C02401C
:102F500070B50D4D04464FF47A712878B1FBF0F04E
:102F60000A490968B1FBF0F001F075F948B9102C75
:102F700007D200222146501E00F034F800206C6079
:102F800070BD012070BD0000C40200202C00002094
:102F90000C4882B0016841F480410160006800F48F
:102FA000804000900748001F016841F08051016097
:102FB0000068002200F0805000900F21901E02B0A7
:102FC00000F010B844380240002809DB00F01F026E
:102FD000012191404009800000F1E020C0F800117B
:102FE00070470000F0B40E4B1B68C3F30223C3F11B
:102FF0000704042C00D904241D1D072D01D2002331
:1030000000E0DB1E012606FA04F56D1E0D409D4012
:103010009E40761E164045EA0601F0BC05F02ABF28
:103020000CED00E0064A00F0070110684FF6FF03C0
:10303000184040EA0120034908431060704700002F
:103040000CED00E00000FA057047D0F8040405F02C
:103050002DB9C1EBC10200EB8202D0F80404926CDE
:1030600005F080B8C1EBC10200EB8202D0F8040485
:10307000D2F8082205F0D9B8D0F8040405F018B940
:1030800070B5044601F00F006268904201D901203A
:1030900070BD0B0601F00F01C1EBC10104EB810112
:1030A0004FF001024FF0000503D581F83D203C317F
:1030B00003E081F8FD5101F5FE718D70087094F800
:1030C000BC03012808D084F8BC23206805F07EFCEE
:1030D00084F8BC53002070BD022070BD2DE9F04182
:1030E00004460F0601F00F00C0EBC00104EB8101A4
:1030F0004FF001064FF0000503D581F83D603C31EB
:1031000003E081F8FD5101F5FE7108708A60CB7013
:103110004A7802B1C880022B00D10D7194F8BC032B
:10312000012809D084F8BC63206805F03DFB2846DF
:1031300084F8BC53BDE8F0810220FBE770B50D4672
:1031400001F00F04C4EBC40100EB8101C1F810329F
:10315000C1F808220023C1F8143281F8FD3181F84A
:10316000FC41036901F5FE71012B00D10A612A07B8
:10317000027C006803D005F081FC002070BD05F0E2
:103180006DFBFAE770B504460D4601F00F0061686B
:10319000884201D9012070BD29064FF000064FF08A
:1031A000010207D5C0EBC00104EB810181F83D208D
:1031B0003C3107E0C5EBC50104EB810181F8FD61FD
:1031C00001F5FE718A70087094F8BC03012807D0DD
:1031D00084F8BC23206805F025FC280702D007E00E
:1031E000022070BD217C04F57172206805F0C2FBDD
:1031F00084F8BC63002070BD70B50D4601F00F046B
:10320000C4EBC40100EB81010B658A6400234B65AC
:10321000012381F83D3001F83C4F0369012B00D1B7
:103220000A612A07027C006803D005F027FC002011
:1032300070BD05F013FBFAE72DE9F84F0568044669
:10324000284605F02CFD00287ED1206805F053FDAE
:10325000002879D0206805F04EFD800704D520684D
:10326000416901F002014161206805F044FD01035C
:1032700004F5717000906CD50026206805F01AFDE9
:1032800080464FF4004ADFF8F0B35CE05FEAC870B4
:1032900056D0F1B2206805F026FD0746C00708D0D9
:1032A00005EB46110120C1F8080B3146204602F01B
:1032B000E1FD380726D52068D0F8409000EB461095
:1032C000D0F8081B2269012A0FD0EC4B994503D195
:1032D000090401D5C0F808AB204600F00BFAD94527
:1032E0000BD92069012803D007E0D945F0D8F3E7CE
:1032F00020680121009A05F03DFB05EB46110820EE
:10330000C1F8080BF80604D505EB46111020C1F8EA
:10331000080BB8060CD52069012804D120680121CA
:10332000009A05F027FB05EB46102021C0F8081B8A
:10333000B80405D505EB46104FF40051C0F8081B42
:103340004FEA5808761C01E093E102E0B8F1000F63
:103350009CD1206805F0CFFC40034FF000095FD5F9
:10336000206805F0A0FC8046002656E05FEAC870A1
:1033700050D0F1B2206805F0A4FC0746C00727D062
:1033800006F00F01012202FA01F0D5F8341881434A
:10339000C5F8341805EB4610C0F808292069012843
:1033A00007D1C6EBC60004EB8000D0E9112111441F
:1033B0008164F1B22046FFF74CFE2069012807D155
:1033C00036B9206D20B920680121009A05F0D2FAA3
:1033D000380704D505EB46110820C1F80809F8069E
:1033E00004D505EB46111020C1F80809780604D56C
:1033F00005EB46104021C0F80819B80704D505EBC5
:1034000046100221C0F80819380603D53146204677
:1034100002F09CFD4FEA5808761CB8F1000FA5D1C8
:10342000206805F068FC002811DAD5F8040820F0BF
:103430000101C5F8041894F8F40301282BD02046A4
:1034400000F03CF92068416901F0004141612068C9
:1034500005F051FC00050BD5D5F80808C00702D0CF
:10346000204600F04FF92068416901F40061416194
:10347000206805F040FCC00460D5D5F8040820F0B1
:103480000101C5F804181021206805F0E9FB0021AE
:103490004FF67F3219E084F8F49300212046FFF7BD
:1034A000D3FDCFE705EB4110C0F80829D0F800396B
:1034B00023F40013C0F80039C0F8082BD0F8003B03
:1034C00023F40013C0F8003B491C60688842E9D827
:1034D000D5F81C0840F00111C5F81C18206B002815
:1034E00028460DD0D0F8840840F00B01C5F88418A8
:1034F000D5F8440840F00B012846C5F844180DE003
:10350000D0F8140842F22B010843C5F81408D5F886
:10351000100840F00B012846C5F81018D0F8000834
:1035200020F4FE61C5F80018217C2068009A05F09F
:1035300021FA2068416901F480514161206805F059
:10354000DAFB800415D5206805F06EF9206805F0D7
:1035500099FBE06000F024FA0146227B206805F028
:10356000EFFB204600F094F82068416901F4005117
:103570004161206805F0BFFBC00634D52068816931
:1035800021F0100181612F6A07F00F00C0EBC0002D
:1035900004EB8006C7F3434006F5FE76022802D00E
:1035A000062811D01AE047F6F070074216D0C7F38C
:1035B0000A1217462846F16805F0A1FBF068384466
:1035C000F060B069384408E008222846009905F008
:1035D00096FBB069C7F30A110844B061206881699D
:1035E00041F010018161206805F085FB000707D5D7
:1035F000204600F067F82068416901F00801416148
:10360000206805F078FBC00208D50021204600F0B4
:1036100037F82068416901F480114161206805F0A4
:103620006AFB800208D50021204600F02DF82068B2
:10363000416901F400114161206805F05CFB400024
:1036400007D52046FFF701FD2068416901F0804160
:103650004161206805F04FFB40070AD520684568A6
:10366000680702D52046FFF707FD20684168294317
:103670004160BDE8F88F00000A30544F0A31544FC2
:10368000D0F8040404F02FBED0F8040404F02DBEDA
:1036900070B50446C068012570B1022801D0FEF75C
:1036A00097F82946D4F8040404F070FED4F8040412
:1036B000BDE8704004F030BE0025F2E7D0F8040405
:1036C00004F052BED0F8040404F054BE10B5044611
:1036D00090F8BC0301280BD0012084F8BC0384F8C7
:1036E0003810206805F01AFB002084F8BC0310BDD8
:1036F000022010BDD0F8042400F57171104604F0CA
:1037000051BE000010B50446D0F8040404F080FE59
:103710002068D0F8001E41F00101C0F8001E206AA8
:10372000002804D00248016841F00601016010BD84
:1037300010ED00E02DE9F843044600684FF0010960
:10374000C1074FF0000501D1400726D5DFF80C81F5
:10375000C8F86850FFF7D4F80646414F04E0FFF779
:10376000CFF8801B022857D838680001F7D460686A
:10377000217A800140EA0170394984310860C8F833
:103780006890FFF7BDF8064604E0FFF7B9F8801B24
:10379000022841D838680001F7D52078800752D533
:1037A0002F484030016841F08051016000682D4F82
:1037B00000F080500090386840F480703860FFF767
:1037C0009FF8064604E0FFF79BF8801B022823D8E9
:1037D0003868C005F7D5224E7036306810F4407056
:1037E00020D0A18901F4407181421BD030681E496C
:1037F00020F44070C1F800900D6030603068C00760
:1038000010D0FFF77DF8054641F2883707E0FFF753
:1038100077F8401BB84202D90320BDE8F88330682E
:103820008007F4D5E0680E49C0F301220831032A6D
:103830000BD0086820F4F81008603068A189C1F343
:103840000B01084330600020E7E70A68074B22F4C9
:10385000F812184002430A60EFE7000000004742F8
:103860000038024000700040400E4742FFFCFF0F4E
:103870002DE9F0470D46040065D0DFF81491D9F822
:103880000000EFB200F00F00A84207D289F80070E4
:10389000D9F8000000F00F00A84254D120683D4E36
:1038A000810712D5400703D5306840F4E0503060FE
:1038B0002078000703D5306840F4604030603068FD
:1038C000A16820F0F000084330602078C0072DD0B8
:1038D000304960680839012812D0022813D0032823
:1038E00011D00968890700292DDA316821F0030118
:1038F00001433160FFF704F8804641F2883A0EE058
:1039000009688903EFE709688901ECE7FEF7F8FF2A
:10391000A0EB0801514502D90320BDE8F0873068CB
:10392000616800F00C00B0EB810FEFD1D9F8001006
:10393000484601F00F01A94207D90770006800F05E
:103940000F00A84201D00120E7E72078400705D505
:103950003068E16820F4E0500843306020780007C8
:1039600006D53068216920F4604040EAC10030602B
:1039700000F03CF83168084AC1F30311515CC840BB
:10398000064908600F20FFF7E3FA0020C5E70000B2
:10399000003C024008380240B8E600082C00002035
:1039A00001480068704700002C00002004480549C9
:1039B00000680968044AC1F38221515CC84070471D
:1039C0002C00002008380240C8E6000804480549D9
:1039D00000680968044AC1F34231515CC84070472D
:1039E0002C00002008380240C8E60008154810B531
:1039F000006810F00C01144813D0144B04290FD0A8
:103A000008290ED10F4C241F216801F03F022168C4
:103A1000490207D52068C0F38810A0FB030106E027
:103A2000184610BD2168C1F38811A1FB00010023D5
:103A3000FCF710FD2168C1F30141491C4900B0FBAE
:103A4000F1F010BD083802400024F400001BB7005C
:103A50002DE9F84F040073D02078BD4DC00748D041
:103A6000BB4808300168C1F38101012908D0006812
:103A7000C0F3810002280AD1281D0068400206D543
:103A80002868800335D560680028E4D031E060689C
:103A9000B0F5803F10D0B0F5A02F286810D020F4EA
:103AA00080302860286820F4802028606068A0B1F9
:103AB000FEF726FF06460CE0286840F48030F4E765
:103AC00040F480202860F7E7FEF71AFF801B642887
:103AD00072D828688003F7D50BE0FEF711FF064681
:103AE00004E0FEF70DFF801B6428F1D828688003EE
:103AF000F7D42078DFF85C9280074FF0000A3ED5BB
:103B000093480830016811F00C0F09D00068C0F329
:103B1000810002280BD18E48001D0068400206D4A7
:103B20002868800715D5E068012809D111E0E06810
:103B3000B8B10120C9F80000FEF7E2FE064605E034
:103B400003E1FEF7DDFE801B0228C1D8286880074C
:103B5000F7D52868216920F0F80040EAC100286004
:103B60000DE0C9F800A0FEF7CBFE064604E0FEF724
:103B7000C7FE801B02281FD828688007F7D420784A
:103B8000000722D5724F74496069743770B1012003
:103B90000860FEF7B5FE064604E0FEF7B1FE801BA6
:103BA000022809D838688007F7D50EE0C1F800A0D0
:103BB000FEF7A6FE064605E081E0FEF7A1FE801BAB
:103BC00002287CD838688007F7D42078400769D568
:103BD000DFF87CB14FF000080BF1400BDBF8000080
:103BE000C0000CD4DBF8001041F08051CBF800107D
:103BF000DBF800004FF0010800F080500090574FB4
:103C00003868C0050FD4386840F480703860FEF71B
:103C100077FE064604E0FEF773FE801B02284ED8AE
:103C20003868C005F7D54A4FA068703701280FD013
:103C30000528386810D020F001003860386820F07E
:103C400004003860A068B0B1FEF75AFE06460EE0E8
:103C5000386840F00100F4E740F004003860F7E70E
:103C6000FEF74EFE811B41F28830814265D83868EC
:103C70008007F5D50DE0FEF743FE064606E0FEF7A9
:103C80003FFE811B41F28830814256D83868800758
:103C9000F5D4B8F1000F05D0DBF8001021F0805109
:103CA000CBF80010A069C8B3294908310968C1F3ED
:103CB0008101022949D00228504607D000E03CE0AB
:103CC000C9F86000FEF71CFE044639E04F46C9F80B
:103CD0006000FEF715FE064604E0FEF711FE801BAD
:103CE00002282AD828688001F7D4D4E907010843BC
:103CF000A16A1B4A490802EB0141626A41EA82114A
:103D0000084394F82C1040EA01611148001D01603D
:103D100001203866FEF7F4FD044605E013E0FEF7E7
:103D2000EFFD001B022808D828688001F7D50AE0BB
:103D3000FEF7E6FD001B022802D90320BDE8F88F3C
:103D400028688001F4D40020F8E70120F6E700009D
:103D50000038024000004742800E47420070004099
:103D60000000FFFF70B5040003D06079002510B19A
:103D700005E0012070BD2571204600F00DF80220FD
:103D800060712068016841F00401016001206071E8
:103D9000A560002070BD000008B500680649884293
:103DA00008D10648016841F040010160006800F058
:103DB0004000009008BD0000000806503438024062
:103DC00070B5040002D0607F10B106E0012070BD24
:103DD00000202077204600F049F802206077216813
:103DE000CA204862216853204862204602F034FA13
:103DF000FF25042618BB206881681B4A114081609A
:103E00002068816862681143D4E904231A4311438E
:103E100081602168E068086120680169228941EABF
:103E2000024101612068C16821F08001C160206801
:103E30008068800607D4204600F024F818B1206876
:103E400045626677C2E72068016C21F48021016435
:103E50002068016CA2691143016420684562012059
:103E60006077002070BD0000BFFF8FFF006803492E
:103E7000884202D1024901200860704700280040B2
:103E80003C0E474270B505460068C16821F0A001AC
:103E9000C160FEF735FD04464FF47A7606E0FEF782
:103EA0002FFD001BB04201D9032070BD2868C068F7
:103EB0008006F4D5002070BD70B5040005D0002543
:103EC000A56294F8510010B106E0012070BD84F89D
:103ED0005050204600F030F8022084F8510020684D
:103EE000016821F040010160D4E901010843D4E9EF
:103EF00003121143084361690843218B01F40071E7
:103F00000843E1690843216A0843A16A084321681C
:103F10000860A069042101EA1040616A0843216831
:103F200048602068C16921F40061C16165650120B4
:103F300084F85100002070BD2DE9F04786B004469A
:103F400014216846FCF7BDFB45492068454A022616
:103F500001270323DFF8108100254FF0050C88426C
:103F60005ED140481430016841F48051016000681E
:103F700000F480500590106840F002001060106856
:103F800000F002000590106840F001001060106819
:103F9000994600F0010005901820E2468DE8C10620
:103FA00069464046FEF7C6FB80208DE8C10669469B
:103FB0002E48FEF7BFFB2F4E2D484FF0C0673060F4
:103FC000C6E901754FF48068C6E903587561781237
:103FD000B561C6E9075030467562FEF7EFFA08B1E1
:103FE000FDF7F6FBE664B463224E214860361830D4
:103FF000E6E802074020A6E82101C00246F814596D
:10400000B561C6E907501B4875626030FEF7D6FA05
:1040100008B1FDF7DDFBA664B46306B0BDE8F08728
:1040200015498842F9D10F481030016841F48041A8
:104030000160006800F480400590106840F00200C4
:1040400010601068694600F0020005904FF460406F
:104050008DE8C100CDE9033C4046FEF76BFBDCE791
:1040600000300140303802400004024000000240AD
:10407000406402401C0D0020003800402DE9F84F3C
:10408000044690F8500001250A9E1F4692468B4632
:104090004FF0000801280ED0012084F85000FEF7F0
:1040A0002FFC814694F85100616801280CD0B1F5CD
:1040B000827F07D102E00220BDE8F88FA16809B92C
:1040C000042801D00220B6E0BBF1000F27D0BAF1DE
:1040D000000F24D01FB394F85100042802D005200B
:1040E00084F8510000206065C4F838A0E787A787EE
:1040F000C4F830B0E786A786206460642068016851
:10410000490603D4016841F040010160E068B0F560
:10411000006F606805D0E8B3012F43D079E001203B
:1041200089E008B1012F34D1206B21680088C86074
:10413000206B801C2063E08E401EE08629E0206812
:10414000816889070DD5E18E59B1012D09D1216B07
:104150000988C160206B801C2063E08E401EE086D1
:10416000002520688168C9070BD0E18F49B1C0687C
:10417000A16B0880A06B801CA063E08F401EE087CD
:104180000125FEF7BDFBA0EB0900B04201D3701C76
:1041900050D100E006E0E08E0028D0D1E08F00286A
:1041A000CDD13CE0206B216800780873206B401C67
:1041B0002063E08E401EE0862BE02068816889073E
:1041C0000DD5E18E59B1012D09D1216B097801730B
:1041D000206B401C2063E08E401EE0860025206896
:1041E0008168C9070BD0E18F49B1C068A16B087025
:1041F000A06B401CA063E08F401EE0870125FEF706
:104200007FFBA0EB0900B04202D3701C01D011E08B
:1042100086B1E08E0028D0D1E08F0028CDD14A466B
:104220003146204603F0EEF938B120204FF0010866
:10423000606508E00320804605E0A06818B92068A2
:10424000C16880680090012084F85100002084F843
:104250005000404630E710B5401EB0F1807F01D3DA
:10426000012010BD4FF0E02460610F21601704F0C1
:1042700001FE0020A06107202061002010BD10B5C4
:1042800090F83C20012A22D0012280F83C20CA6804
:104290008C6822F4407222434C6822F480622243EC
:1042A0000C6822F4006222430C6922F480522243FB
:1042B0004C6922F400522243C969002322F480424F
:1042C0000A4301684A6480F83C30002010BD022097
:1042D00010BD70B590F83C20012A19D0012500F8D6
:1042E0003C5F0222427050F83C2C5368946823F0E3
:1042F00070060B684968334324F0800421435360FF
:1043000050F83C2C9160457000210170084670BD4A
:10431000022070BD10B5040003D094F83D0010B128
:1043200007E0012010BD002084F83C00204600F08A
:104330000DF8022084F83D00211D206803F05CFA8E
:10434000012084F83D00002010BD000008B5006881
:104350002249234A884207D1106840F001001060CA
:10436000106800F001000AE01D491E4B091F984229
:1043700007D1086840F00200086008681FE000905C
:1043800008BD194B984207D1086840F00400086046
:10439000086800F00400F2E7144B984207D108685F
:1043A00040F008000860086800F00800E7E71049DE
:1043B000884207D1106840F002001060106800F0D9
:1043C0000200DCE70B498842DAD1106840F4003083
:1043D0001060106800F40030D1E7000000000140D8
:1043E000443802400004004000080040000C004037
:1043F0000004014000440140022180F83D100168A2
:104400008A6802F00702062A03D00A6842F0010215
:104410000A60012180F83D100020704770B5044605
:1044200090F83C00012817D0012584F83C50022068
:1044300084F83D002068826822F0770222F47F42EF
:1044400082600868502830D00DDC20284DD005DC73
:1044500098B310283BD148E0022070BD302844D0EA
:10446000402834D139E0602828D0702806D0B0F533
:10447000805F2CD0B0F5005F29D10AE0CB68D1E98C
:104480000121206803F029FA2068816841F0770152
:1044900009E0CB68D1E90121206803F01EFA206809
:1044A000816841F48041816011E0CA6849682068F0
:1044B00003F0E8FA5021206807E016E0CA6849686E
:1044C000206803F0F0FA6021206803F010FA84F805
:1044D0003D50002084F83C0070BDCA6849682068DF
:1044E00003F0D0FA40212068EFE722680146104629
:1044F000EBE700002DE9F04186B004461421684640
:10450000FCF7DFF86D4A20686D49022401259042CE
:1045100023D1086840F0100008600868694600F080
:10452000100005904FF4D4408DE831006548CDE986
:104530000345FEF7FFF86448FFF75EFF002162487D
:1045400000F05EF90421604800F05AF908215E4845
:1045500000F056F90C215C481CE05C4ADFF87081E1
:1045600090421CD1086840F0040008600868694661
:1045700000F00400059090158DE83100039440464A
:104580000494FEF7D7F850484030FFF735FF4E4807
:104590000821403000F034F906B0BDE8F0814D4A02
:1045A0000326904217D1086840F0080008600868A8
:1045B000694600F00800059010148DE87100464827
:1045C0000494FEF7B7F840488030FFF715FF3E48E7
:1045D00008218030DEE7414A904223D1086840F04C
:1045E000800008600868694600F0800005904FF47C
:1045F000E0508DE83100039439480494FEF79AF8AE
:104600003148C030FFF7F8FE2F480021C03000F0DD
:10461000F7F82D480421C03000F0F2F82A480821AC
:10462000C030B7E72F4A402790422BD1086840F4AA
:1046300080700860086800F480700590086840F099
:104640000400086008680097CDE9014500F0040007
:10465000CDE90460694603942348FEF76BF80097A0
:10466000CDE90145CDE9034669464046FEF762F8CB
:104670001E48FFF7C1FE00211C4800F0C1F80421CC
:104680001A4887E71A4A904286D1086840F020000D
:10469000086008680097CDE9014500F02000CDE9E9
:1046A0000460694603941348FEF744F80F4840300D
:1046B000FFF7A2FE0D48002140306BE700000140EB
:1046C0003038024000100240DC0D002000040040A1
:1046D0000008024000080040000C0240000C0040AE
:1046E000001C02400004014000200240DC0E0020BB
:1046F000004401400014024070B5044690F83C00AC
:104700000D4601280DD0012684F83C60022084F873
:104710003D0042B1042A18D0082A2AD00C2A4DD1D3
:1047200039E0022070BD206803F0EAF82068816952
:1047300041F0080181612068816921F004018161F3
:10474000206881692A69114311E0206803F008F9A3
:104750002068816941F4006181612068816921F4E8
:1047600080618161206881692A6941EA0221816151
:1047700024E0206803F02AF92068C16941F00801AB
:10478000C1612068C16921F00401C1612068C1696B
:104790002A69114311E0206803F04CF92068C169CF
:1047A00041F40061C1612068C16921F48061C16187
:1047B0002068C1692A6941EA0221C16184F83D602B
:1047C000002084F83C0070BD10B5040003D094F8BC
:1047D0003D0010B107E0012010BD002084F83C002E
:1047E000204600F00CF8022084F83D00211D2068CE
:1047F00003F002F8012084F83D00002010BD70474E
:1048000010B504460068012203F05AF80B482168ED
:10481000814202D00A48814203D1486C40F40040F2
:1048200048642068816801F00701062903D0016807
:1048300041F001010160002010BD000000000140B6
:104840000004014070B5040004D094F8390000253C
:1048500010B106E0012070BD84F83850204600F009
:1048600023F8242084F839002068C16821F400511D
:10487000C160204603F02AF92068016921F49041C3
:1048800001612068416921F02A0141612068C16805
:1048900041F40051C160E563202084F8390084F8B8
:1048A0003A00002070BD00002DE9F04F87B00446AB
:1048B00014216846FBF705FF8A48DFF82482143884
:1048C000D4F800C0874B02220127032100250615DA
:1048D0004FF007094FF0006BC44564D1D3F800C016
:1048E0004CF0100CC3F800C01B6803F010030593D4
:1048F000036843F002030360036803F002030593B7
:10490000036843F00103036000688A4600F0010079
:1049100005908020CDE90002CDE9027A90466946F3
:10492000CDF810907048FDF705FF7010CDE9000834
:10493000CDE9027A6946CDF810906C48FDF7FAFE91
:104940006C4F6B48D846E7E8020B402061C78002F5
:1049500047F81459BD61C7E9075066487D62FDF705
:104960002DFE08B1FCF734FF2763BC63614F60483C
:10497000603730383860C7E90185C7E903567D6183
:10498000BD61FD613D6238467D62FDF717FE08B1ED
:10499000FCF71EFF6763002205212520BC63FEF79C
:1049A00021FB252040E0DFF850814FF4003AC44558
:1049B0003FD14C4B1B1FD3F800C04CF4802CC3F8E4
:1049C00000C01B6803F480230593036843F00403CD
:1049D00003600068CDE9027100F0040005904FF417
:1049E0004060CDE90002CDF8109069464348FDF7DC
:1049F000A1FE404F4248C0373860C7E901B5C7E95A
:104A000003567D61BD61C7E9075A38467D62FDF7EF
:104A1000D5FD08B1FCF7DCFE6763002204212720E6
:104A2000BC63FEF7DFFA2720FEF7CEFA07B0BDE839
:104A3000F08FDFF8D080C445F8D1D3F800C04CF037
:104A4000200CC3F800C01B6803F020030593036823
:104A500043F040030360006800F0400005904FF40D
:104A600084408DE885000820CDE90310694626487A
:104A7000FDF760FE1E48254F90384FF020683860E3
:104A8000C7E90185C7E903567D61BD61C7E9075ADA
:104A900038467D62FDF792FD08B1FCF799FE676329
:104AA000BC631A4F124860371838E7E80208402004
:104AB00061C7800247F81459BD61C7E90750134820
:104AC0007D626030FDF77AFD08B1FCF781FE276357
:104AD000002205214720BC63FEF784FA4720A3E7A4
:104AE000001001404438024000040240000002402F
:104AF000B86402401C10002000480040000802403A
:104B00002860024000140140001802403C110020BF
:104B10002DE9F843044690F839001E4617460D4625
:104B2000202850D1A5B19FB194F8380001284AD06F
:104B3000012084F838004FF00008C4F83C802120A0
:104B400084F83900FDF7DCFEA7848146E78426E07F
:104B50000120BDE8F883E08C401EE084A0684B464D
:104B6000B0F5805F4FF000024FF0800120460096C4
:104B700003D003F001F9E8B90DE003F0FDF8C8B97E
:104B800028882168C0F308004860206908B16D1CBE
:104B900005E0AD1C03E0216815F8010B4860E08CCE
:104BA0000028D8D14B46002240212046009603F031
:104BB000E3F808B10320CCE7202084F8390084F81A
:104BC00038800020C5E70220C3E7FEE701684A6994
:104BD000D24352050FD46FF480624A61002140F83D
:104BE000301F202242738173026942F00402026185
:104BF000017301207047002070472DE9F84F0446EB
:104C0000006889460B9E01689846174641F480610A
:104C100001602068016841F48071016000964FF0E6
:104C2000011A0022514620460A9B00F0C9F80028CC
:104C300053D1216809F0FE0008610AF1010B3346E7
:104C4000594620460A9A00F0EFF8F0BB2068416907
:104C500080690090324620460A9900F066F940B11A
:104C6000206C042839D12068016841F4007101608A
:104C700033E0FDB2B8F1010F09D02168380A0861AC
:104C8000324620460A9900F050F90028E8D1206801
:104C90000561324620460A9900F047F90028DFD125
:104CA0002068016841F4807101600096002251463D
:104CB00020460A9B00F084F838B9216809F0FF000B
:104CC00040F001000861334600E006E05946204606
:104CD0000A9A00F0A9F8002800D00120BDE8F88F5A
:104CE0002DE9F843044600680D46DDE908970168A0
:104CF0009846164641F4807101604B4600224FF001
:104D000001112046009700F05BF8E0B9216805F03A
:104D1000FE0008613B464A461549204600F084F8EB
:104D200088B920684169806900903A464946204622
:104D300000F0FBF850B1206C042804D12068016811
:104D400041F4007101600120BDE8F883F5B2B8F1CB
:104D5000010F09D02168300A08613A4649462046C9
:104D600000F0E3F80028E6D1206805610020EBE7B9
:104D70000200010070B516460D4604460DE02046BF
:104D8000FFF724FF08B1012070BD681C05D0FDF7B6
:104D9000B7FD801BA84207D835B120684069C043E1
:104DA0004007ECD4002070BD002044F8300F2021D3
:104DB0006173A073216941F0200121612073E2E752
:104DC0002DE9F0471D4690460E460446C1F30747BD
:104DD000DDF8209008E0681C06D0FDF791FDA0EBFF
:104DE0000900A8420FD875B12068012F18D080693A
:104DF00026EA00000004000C14D000204045EAD050
:104E00000020BDE8F087002044F8300F20216173B6
:104E1000A073216941F02001216120730120F0E796
:104E20004069E5E70120E9E72DE9F0479846154696
:104E30000E4604464FF000094FF0200AC1F3074721
:104E400023E020684069C043400515D4206801680C
:104E500041F40071016021686FF480604861C4F81A
:104E6000309084F83DA084F83E90216C41F004011C
:104E7000216484F83C901EE0681C06D0FDF740FDDC
:104E8000A0EB0800A8420AD84DB12068012F15D028
:104E9000806926EA00000004000C0DD0D1E744F838
:104EA000309F84F80DA084F80E90216941F0200114
:104EB000216184F80C900120BDE8F0874069E8E7A3
:104EC0002DE9F04116460D46044600274FF0200814
:104ED00017E04069C043C0060DD454F8301B6FF092
:104EE0001000486144F80D7B04F81D89A777206AFB
:104EF0002062277717E0FDF703FD801BA84208D842
:104F00003DB120684169C9434906E2D40020BDE8AB
:104F1000F08144F8307F84F80D80A773206940F059
:104F20002000206127730120F1E770B516460D4679
:104F300004460DE02046FFF749FE08B1012070BD90
:104F4000681C05D0FDF7DCFC801BA84207D835B1F2
:104F500020684069C0430006ECD4002070BD0020EA
:104F600044F8300F20216173A073216941F02001C2
:104F700021612073E2E7000030B504461088154D2A
:104F80000B4668B905F10C0090ED000A85ED000AAA
:104F900090ED010A85ED010A90ED020A85ED020A05
:104FA0000C490C48703905F063FD95ED000A83ED5E
:104FB000000A95ED010A83ED010A95ED020A83EDE1
:104FC000020AB7EE000A84ED000A84ED010A84EDBE
:104FD000020A30BD001A0020084891ED000A80ED59
:104FE000000AD1ED010AC0ED010A91ED021A80ED2F
:104FF000021A0C3880EC030A704700000C1A0020DB
:105000002DED048B84B0FDF77BFC9E4C20620720C5
:1050100000E0642006F060F9FBF7ACFF0028F8D14F
:1050200002E0642006F058F905F06CFF0028F8D182
:10503000954A101DCDE90102A2F11006311DFBF7C2
:10504000B1FF3346A3F1340206F1480BA2F10C0183
:10505000A1F10C00CDF800B005F030FDDFED8B0ABA
:105060009FED8B0A8B4A002106F1640001F06EF877
:10507000A6F13402A2F10C0101F11800FBF7EAFCE1
:10508000A6F14009A6F1580799ED000AA6F16408B7
:1050900087ED000AA6F1700A88ED000A8AED000A81
:1050A00099ED010A002087ED010A88ED010A8AEDD9
:1050B000010A99ED020A87ED020A88ED020A8AEDDB
:1050C000020A06F03FF907F055FF7349A06110206E
:1050D000C8610846FEF7F0FE08B1FCF779FB6949A4
:1050E00008222C31A1F1080002F00CFA01202071F5
:1050F0004FF0FF31012007F0A9F80128F8D12078FE
:10510000000708D5207820F0080020705D4801993C
:105110002D30FBF7FFFE607840070AD5607820F05D
:1051200004006070584A311D1032A2F12A00FBF7CA
:10513000ABFEA07840070CD5A07820F00400A0704A
:10514000504802991E30FCF707F896ED040A05F066
:10515000ADFD4D4BCDF800B0103BA3F13402A2F1F0
:105160000C01A1F10C0005F0A9FC98ED000A4046E5
:105170008AED000AD7ED000AC8ED000A9FED471A34
:1051800060EE810ADFED461A40EE210A99ED000A31
:105190009FED442A3C4B443B40EE020AA3F124021B
:1051A00002F10C01C7ED000AD8ED010ACAED010AAF
:1051B00097ED010A80ED010A20EE010A00EEA10A36
:1051C000D9ED010A00EE820A87ED010A90ED020A8C
:1051D00001F124008AED020AD7ED020AC8ED020AA5
:1051E00060EE810A40EE210A99ED020A40EE020AC1
:1051F0009FED2D0AC7ED020AFBF786FD224B203BEF
:10520000A3F1080529462A1DA1F1100005F014FAA2
:10521000FDF776FB09EE100A2062206908F0E6FF30
:10522000F8EEC90A94ED030A41EC180B20EE200AAF
:1052300010EE100A08F0DAFF9FED1C1B53EC112B47
:1052400008F032FB53EC182B08F0FAF941EC180B7C
:10525000286808F0CBFF53EC182B08F0F1F908F0A0
:105260008DF82860E07810F00100E0703FF440AF66
:10527000E07820F00100E070E07840F00200E0709B
:1052800036E70000A4000020EC19002000808945CA
:1052900000A08C452CE700086C0C00205AF8F63F63
:1052A0005D896EBFD5A9183B6F12833A00000000DC
:1052B000000004407FB50024154800940194029436
:1052C0001249039401604FF40031C0E901140461F4
:1052D000047680F820400F49C0E90A140125C56111
:1052E000C46080F830404561FCF71DFB08B1FCF755
:1052F0006FFA1020CDE90005694602940448FCF7D6
:1053000069FA002801D0FCF763FA7FBD0020014054
:10531000000A00200100000F7FB50024154800940A
:10532000019402941249039401604FF40031C0E9E2
:1053300001140461047680F820400F49C0E90A1482
:105340000125C561C46080F830404561FCF7EBFA87
:1053500008B1FCF73DFA0820CDE900056946029442
:105360000448FCF737FA002801D0FCF731FA7FBD7A
:1053700000220140480A00200100000F0F4810B52C
:105380000D4901600321416000214FF4102281602A
:10539000C0E903124FF40012426101764176817632
:1053A000C17601774177FCF75EFE002803D0BDE8A7
:1053B0001040FCF70DBA10BD00640040900A0020B8
:1053C0000F4810B50D4901600321416000214FF4E1
:1053D00010228160C0E903124FF40012426101768D
:1053E00041768176C17601774177FCF73CFE002853
:1053F00003D0BDE81040FCF7EBB910BD00680040D9
:10540000B80A0020074910B5054808600846FCF7AF
:10541000DEFF002803D0BDE81040FCF7D9B910BD6D
:105420000030024024000020294808B5016841F4FA
:1054300080010160016801F480010091016841F47C
:10544000001101600068002200F4001000900521A6
:105450000C20FDF7C7FD0C20FDF7B6FD002205214D
:105460002F20FDF7BFFD2F20FDF7AEFD0022052107
:105470003920FDF7B7FD3920FDF7A6FD00220521F3
:105480003A20FDF7AFFD3A20FDF79EFD00220521F1
:105490003B20FDF7A7FD3B20FDF796FD00220521EF
:1054A0004420FDF79FFD4420FDF78EFD00220521DD
:1054B0004520FDF797FD4520FDF786FD00220521DB
:1054C0004620FDF78FFDBDE808404620FDF77CBD76
:1054D0003038024010B5B8B01C222C496846FBF7A2
:1054E00094F80021684605F003FF294C27491C2247
:1054F00020601C3107A8FBF788F8002107A805F0F9
:10550000F7FE224960601C2238310EA8FBF77DF8B7
:1055100000210EA805F0ECFE1C49A0601C225431AD
:1055200015A8FBF772F8002115A805F0E1FE174950
:10553000E0601C2270311CA8FBF767F800211CA852
:1055400005F0D6FE114920611C228C3123A8FBF7FF
:105550005CF8002123A805F0CBFE0C4960611C22F9
:10556000A8312AA8FBF751F800212AA805F0C0FEAF
:105570000649A0611C22C43131A8FBF746F800217E
:1055800031A805F0B5FEE06138B010BDD8E50008DF
:10559000000000202DE9F04387B014216846FBF796
:1055A00090F868480025016841F002010160016837
:1055B00001F002010591016841F0400101600168BC
:1055C00001F040010591016841F0010101600168AD
:1055D00001F001010591016841F0080101600168D5
:1055E00001F008010591016841F0040101600168C2
:1055F00001F004010591016841F4807101600168C6
:1056000001F480710591016841F020010160016899
:1056100001F020010591016841F0800101600168FD
:1056200001F080010591016841F0100101600068FE
:10563000454F00F010000590012240213846FDF74B
:1056400059F9DFF80881012210214046FDF752F98F
:10565000DFF8FC90012241F201014846FDF74AF9CA
:105660008020CDE900050124694602943948FDF700
:1056700061F84020CDE9000402946946384603945D
:10568000FDF758F8344E0920CDE90006694602942A
:105690003846FDF74FF80720CDE900052F4F694642
:1056A00038460295FDF746F8CDE900456946404683
:1056B0000294FDF73FF81020CDE900040225694669
:1056C0004046CDE90245FDF735F83020CDE900062A
:1056D000694602943846FDF72DF82003CDE9000411
:1056E0000294694648460394FDF724F800946946FD
:1056F00048460194CDE90245FDF71CF80621002239
:105700000846FDF76FFC0620FDF75EFC0022052130
:105710000920FDF767FC0920FDF756FC0022052152
:105720000A20FDF75FFC0A20FDF74EFC0022052150
:105730001720FDF757FC1720FDF746FC07B0BDE822
:10574000F0830000303802400018024000000240A0
:105750000004024000200240000021100008024026
:105760000D4810B50B4901600C49416000214FF410
:1057700080428160C0E9031241618161C1610162BF
:10578000FDF7C4F8002803D0BDE81040FCF720B8AE
:1057900010BD000000540040E00A0020801A0600FE
:1057A0000D4810B50B4901600C49416000214FF4D0
:1057B00080428160C0E9031241618161C16101627F
:1057C000FDF7A4F8002803D0BDE81040FCF700B8AE
:1057D00010BD000000580040340B0020801A060065
:1057E0000D4810B50B4901600C49416000214FF490
:1057F00080428160C0E9031241618161C16101623F
:10580000FDF784F8002803D0BDE81040FBF7E0BFA7
:1058100010BD0000005C0040880B0020801A0600CC
:10582000074910B5054808600846FEF79BFA0028AE
:1058300003D0BDE81040FBF7CBBF10BD00080650F9
:105840003C0C00200C4810B50A49016000217C2264
:10585000C0E9011240F67F42C0E903214161816144
:10586000FEF7AEFA002803D0BDE81040FBF7B0BF4A
:1058700010BD0000002800404C0C0020104810B55E
:105880000E4901604FF48271416000210222816063
:10589000C0E9031201224261520282613822C0E94A
:1058A0000721416281620A21C162FEF705FB0028DF
:1058B00003D0BDE81040FBF78BBF10BD00300140A6
:1058C0006C0C0020104810B50E4901604FF4827135
:1058D0004160002102228160C0E90312012242617D
:1058E000520282613822C0E90721416281620A21A5
:1058F000C162FEF7E1FA002803D0BDE81040FBF7D3
:1059000067BF10BD00380040C40C002010B588B03F
:105910001C216846FAF7D5FE144813490024C0E953
:10592000001441F28731C0E9024104618461FEF74D
:10593000F1FC08B1FBF74CFF0C48FEF745FF08B13E
:10594000FBF746FF6020CDE900040294002269467F
:1059500006480494FEF7D0FE08B1FBF739FF034870
:10596000FEF7C8FD08B010BD004401401C0F002028
:1059700010B596B000240F941094119412941394BF
:105980001C2168461494FAF79CFE202107A8FAF718
:1059900098FE354833490160A721C0E9011444F657
:1059A0001F61C0E9031444618461FEF7B3FC08B1D0
:1059B000FBF70EFF4FF480500F900FA92A48FEF717
:1059C0002DFD08B1FBF704FF2748FEF7FDFE08B1E7
:1059D000FBF7FEFE139413A923481494FEF779FCF9
:1059E00008B1FBF7F5FE602000904FF47A70CDE926
:1059F0000104039404940594002269461A4806940D
:105A0000FEF77AFE08B1FBF7E3FE0422694616486A
:105A1000FEF772FE08B1FBF7DBFE0822694612486A
:105A2000FEF76AFE08B1FBF7D3FE0C2269460E486A
:105A3000FEF762FE08B1FBF7CBFE079408940994C9
:105A40004FF400500A94CDE90B4007A906480E9484
:105A5000FEF715FC08B1FBF7BBFE0348FEF74AFD55
:105A600016B010BD00000140DC0D002010B58EB056
:105A700000240794089409940A940B941C21684606
:105A80000C94FAF71EFE1E481C49C0E9001442F2AD
:105A9000CF01C0E9024104618461FEF73BFC08B11B
:105AA000FBF796FE4FF48050079007A91448FEF7C5
:105AB000B5FC08B1FBF78CFE1148FEF785FE08B176
:105AC000FBF786FE0B940BA90D480C94FEF701FC26
:105AD00008B1FBF77DFE6020CDE9000402940822A6
