:020000040800F2
:1000000030D00020D5030008FB79000863650008A4
:10001000F97900084D2A0008EDAD00080000000045
:1000200000000000000000000000000015030008B0
:10003000E12F000800000000710300085596000839
:10004000EF030008EF030008EF030008EF030008C8
:10005000EF030008EF03000823300008EF03000857
:10006000EF030008293000082F300008EF030008D4
:10007000EF030008EF030008EF030008EF03000898
:10008000EF030008EF030008EF030008EF03000888
:10009000512A0008EF030008EF030008353000087C
:1000A000EF030008EF030008EF030008EF03000868
:1000B000EF030008EF030008EF030008EF03000858
:1000C000EF030008EF030008EF030008EF03000848
:1000D000EF030008419D0008EF030008259E00087B
:1000E000EF030008EF030008EF030008EF03000828
:1000F000EF030008EF030008EF030008212C0008BD
:10010000EF030008EF030008EF030008EF03000807
:10011000EF030008EF030008EF030008EF030008F7
:10012000EF030008792C0008852C0008EF03000875
:10013000EF030008EF030008EF030008EF030008D7
:10014000892B0008EF030008EF030008CD7D0008AD
:10015000412F00084D2F0008592F0008D19E00089C
:10016000EF030008EF030008EF030008EF030008A7
:10017000EF030008EF030008EF0300080000000091
:10018000EF030008EF03000800F002F800F0B2F8F7
:100190000AA090E8000C82448344AAF10107DA45E2
:1001A00001D100F0A7F8AFF2090EBAE80F0013F082
:1001B000010F18BFFB1A43F0010318472C27010059
:1001C0004C2701000A444FF0000C10F8013B13F0DB
:1001D000070408BF10F8014B1D1108BF10F8015BA0
:1001E000641E05D010F8016B641E01F8016BF9D193
:1001F00013F0080F1EBF10F8014BAD1C0C1B09D1EA
:100200006D1E58BF01F801CBFAD505E014F8016B5B
:1002100001F8016B6D1EF9D59142D6D370470000ED
:100220000023002400250026103A28BF78C1FBD8FF
:10023000520728BF30C148BF0B6070476E2900F0DD
:100240007D83702900F0BF84662910F0F986652946
:1002500010F0F686672910F0F386612910F0F28617
:1002600003681B0A28BF41F08001692900F02A8336
:10027000642900F02783752900F024836F2900F09A
:100280004C84782900F08B84E92900F0E783E42985
:1002900000F0E483F52900F0E183EF2900F04984C0
:1002A000F82900F08A840368DB0928BF41F0800147
:1002B000632901F0AD81732901F0B281E32901F0D6
:1002C000BD81F32901F0C281002070471FB510F0F5
:1002D000FFFD01F00DFA0400002000210FF018FDD1
:1002E000401C6060002000210FF0FCFCE0601FBD9E
:1002F00010B510BD01F0CFF91146FFF7E7FF0DF083
:1003000093F801F0ABFA03B4FFF7F2FF03BC01F07E
:10031000BBFA00002C4B19680868B0E8F04F80F376
:100320000988BFF36F8F4FF0000080F3118870478A
:100330000000000008480068006880F308884FF05B
:10034000000080F3148862B661B6BFF34F8FBFF32D
:100350006F8F00DF00BF00BF08ED00E0DFF80C008A
:10036000016841F470010160704700BF88ED00E052
:10037000EFF30980BFF36F8F134B1A681EF0100F55
:1003800008BF20ED108A20E9F04F106009B44FF04B
:10039000500080F31188BFF34F8FBFF36F8F0EF0C3
:1003A000EBFE4FF0000080F3118809BC1968086863
:1003B000B0E8F04F1EF0100F08BFB0EC108A80F3C9
:1003C0000988BFF36F8F704720030020EFF305808B
:1003D000704700000948804709480047FEE7FEE7EC
:1003E000FEE7FEE7FEE7FEE7FEE7FEE7FEE7FEE7E5
:1003F00004480549054A064B704700000997000864
:10040000890100083090002030D0002030B000205A
:1004100030B000209FED1A1AF5EE000A40EE010AF6
:10042000BDEEE00AF5EEC00A10EE100AF1EE10FA89
:1004300038BF401E00EE100A1349F7EE001AB8EE5E
:10044000C00A30EEC00ADFED0F0A20EE200AFCEEF3
:10045000C00A10EE900AC0F3080000EE900A01EB0B
:100460008000F8EE600A90ED011A70EE600A90EDDF
:10047000000A71EEE01A21EE800A00EE810A704750
:1004800083F9223E00000044741F0108DFED190AC1
:10049000B5EEC00A60EE200ABDEEE01A11EE100AB9
:1004A000F1EE10FA38BF401E00EE100A1349F7EEC5
:1004B000001AB8EEC00A30EEC00ADFED0F0A60EE97
:1004C000200ABCEEE00A10EE100AC0F3080000EEAD
:1004D000100A01EB8000B8EE400A90ED011A70EEB0
:1004E000C00A90ED000A71EEE01A21EE800A00EEDB
:1004F000810A704783F9223E00000044741F0108FE
:1005000053EA020C00F069802DE9F04B4FF0000631
:10051000002B1FBFB3FA83F503FA05F424FA05F69E
:100520005E4012BF1643B2FA82F502FA05F4C5F135
:1005300020051EBF22FA05FC44EA0C04203556EAC9
:10054000044C4FEA144418BF641C4FF000084FF0ED
:100550000009904271EB030C39D3002919BFB1FA9D
:1005600081F701FA07F6B0FA80F700FA07F6C7F14B
:1005700020071EBF20FA07FC46EA0C062037B6FB10
:10058000F4FCA7EB0507103F07F01F0BCBF120068B
:100590000CFA0BFB2CFA06F644BFB3460026202FBC
:1005A000A4BF5E464FF0000B5BEA060C08BF4FF09D
:1005B000010B19EB0B09ABFB027C48EB0608C01BD7
:1005C00006FB02CC0BFB03CC71EB0C01C1E70B4625
:1005D000024641464846BDE8F08B13B54FF0000097
:1005E0004FF00001AFF30080BDE81C4070470000F1
:1005F0001CB50C46064B7B4469460090204600F033
:10060000B6F904460020694600F0C4F920461CBD36
:100610009B03000010B5431C02E010F8011B71B1F0
:100620008107FAD14FF0013202C88C1A8C4314EAC8
:10063000C211F9D0C01A0A0603D0C01E10BDC01ADC
:1006400010BD0A0401D0801E10BD0902FCD0401E5E
:1006500010BD032A40F2308010F0030C00F015802A
:1006600011F8013BBCF1020F624498BF11F801CBB5
:1006700000F8013B38BF11F8013BA2F1040298BF1A
:1006800000F801CB38BF00F8013B11F0030300F084
:100690002580083AC0F0088051F8043B083A51F828
:1006A00004CBA0E80810F5E7121D5CBF51F8043B2D
:1006B00040F8043BAFF30080D20724BF11F8013BA0
:1006C00011F801CB48BF11F8012B24BF00F8013B02
:1006D00000F801CB48BF00F8012B704710B5203A55
:1006E000C0F00B80B1E81850203AA0E81850B1E8EB
:1006F0001850A0E81850BFF4F5AF5FEA027C24BFA1
:10070000B1E81850A0E8185044BF18C918C0BDE897
:1007100010405FEA827C24BF51F8043B40F8043B60
:1007200008BF7047D20728BF31F8023B48BF11F815
:10073000012B28BF20F8023B48BF00F8012B70476F
:1007400002F0FF0343EA032242EA024200F002B849
:100750004FF000020429C0F0128010F0030C00F0EA
:100760001B80CCF1040CBCF1020F18BF00F8012B68
:10077000A8BF20F8022BA1EB0C0100F00DB85FEA36
:10078000C17C24BF00F8012B00F8012B48BF00F802
:10079000012B70474FF0000200B513469446964671
:1007A000203922BFA0E80C50A0E80C50B1F1200184
:1007B000BFF4F7AF090728BFA0E80C5048BF0CC032
:1007C0005DF804EB890028BF40F8042B08BF704790
:1007D00048BF20F8022B11F0804F18BF00F8012B02
:1007E000704770477047704710B500F0BFFA006857
:1007F00010BD10B5044600F0B9FA046010BD70B524
:10080000044685690068C10601D5302600E020262F
:10081000C00707D070BDD4E9012130469047206A57
:10082000401C20626D1EF6D570BD70B5044685690A
:100830000078C00707D170BDD4E90121202090477E
:10084000206A401C20626D1EF6D570BD09684A05FD
:1008500001D540B27047C905FCD500B270470968A0
:100860004A0501D5C0B27047C905FCD580B27047B2
:1008700070B50C460546012A05D02878800600D5BB
:10088000EA69002302E0012305E05B1C934202D2E7
:10089000E05C0028F9D1A869E618C01AA861286AA6
:1008A000184428622846FFF7AAFF04E0D5E9012191
:1008B00014F8010B9047B442F8D32846FFF7B5FF70
:1008C00070BD00002DE9F04106460024106875292E
:1008D000314616A510D0FFF7B9FF002802DA4042D2
:1008E00013A507E031688A0701D512A502E0490780
:1008F00004D511A5012401E0FFF7B1FF00210A2270
:1009000006F1240709E0B0FBF2FCB0FBF2F302FBB6
:100910001C00303078541846491C0028F3D1234677
:100920002A463046BDE8F04100F082BA00000000DF
:100930002D0000002B00000020000000116802685C
:10094000006A530501D508700AE0D30501D5088077
:1009500006E0130603D5C217C1E9000200E00860F3
:100960000120704701694A1C02610878704700B590
:100970008FB0CDE901310021059105497944CDE9D8
:1009800003101146684600F029F90FB000BD0000C1
:10099000E5FFFFFF0A6802F8010B0A6070470000DC
:1009A0002DE9FF5F15468A460446DFF8AC80F8441F
:1009B0000027D8E900103E46CDE9001010E03AF8D3
:1009C00016106A4602A800F045FE411C07D02178A7
:1009D000890603D5E269391891420DD80744761C7F
:1009E0002078800602D5E069B84205DDAE42E6DB3C
:1009F0003AF816000028E2D1A069C01BA061204689
:100A0000FFF7FDFED8E90010CDE90010002017E047
:100A10003AF818106A4602A800F01CFEB0F1FF3F39
:100A200081460BD000250DF1080B05E0D4E901212A
:100A30001BF8050090476D1C4D45F7D308F10100E8
:100A4000B0428046E4DB206A384420622046FFF74B
:100A5000ECFEBDE8FF9F0000C61D01002DE9F0413E
:100A60008046D21D22F007020025D2E90002F529B6
:100A700015A614D0011E72F1000106DA0023D0EB96
:100A8000030063EB020211A608E0D8F800108B0700
:100A900001D50FA602E0490701D50EA60125114692
:100AA000002408F1240704E000F064F930323A55DC
:100AB000641C50EA0102F7D12B46324621464046DB
:100AC000BDE8F04100F0B4B9000000002D000000C6
:100AD0002B0000002000000030B4002100F12404AD
:100AE00008E002F00705D208303542EA4372DB081D
:100AF0006554491C52EA0305F3D10468002310A28F
:100B0000250707D5A40600D421B1C46901230DA28D
:100B1000641EC46130BC00F08BB910B50446214698
:100B20001068FFF79CFE02462046BDE810400023F7
:100B3000D2E7D21D22F00701D1E90023CCE7000063
:100B40000000000030000000F0B40D4601880905E7
:100B500002D5214C7C4402E01F4C7C440E34002121
:100B600000F1240608E002F00F071209E75D42EAEF
:100B700003721B097754491C52EA0307F3D1027828
:100B80000023120704D5702D06D009B102231134B9
:100B90002246F0BC00F04CB901231034F8E770B5E0
:100BA00004460D4621461068FFF759FE02462946C5
:100BB0002046BDE870400023C6E7D21D22F007039F
:100BC000D3E90023C0E70368126843F02003036001
:100BD0000823C3610023B7E7281C01002DE9F05F5B
:100BE000894604464FF0000ADFF874B1FB44C0F8B0
:100BF00020A02046E1688847002874D0252806D028
:100C0000D4E901219047206A401C2062F1E70026C8
:100C10005F462046E16888472028054607DB312DDE
:100C200005D2781910F8200C08B10643F1E7B00797
:100C300001D526F00406C4F81CA00027C4F818A0AB
:100C40002A2D09D028460AF0FFFA38B304EB8708AA
:100C5000303DC8F8185019E059F8041B204604EB41
:100C600087029161E1688847012F054618D1E06944
:100C7000002820DA26F020061DE0D8F8180000EB46
:100C8000800005EB40003038C8F818002046E168C5
:100C9000884705460AF0D8FA0028EED1012F0AD07D
:100CA0002E2D08D12046E16888477F1C0546022F7B
:100CB00046F02006C4DBA069002803DA404246F073
:100CC0000106A061F00701D026F010066C2D0BD0B4
:100CD000682D09D04C2D39D06A2D35D0742D35D0E2
:100CE0007A2D33D016E038E0E1682F462046884759
:100CF000B842054609D16C2F26D04FF48060E168D8
:100D0000064320468847054604E06C2F1AD04FF46E
:100D1000807006430DB3A5F14100192802D8203593
:100D200046F400664A462946204626604E46FFF7AE
:100D300085FA80B101280BD0F61D26F0070000F1DE
:100D4000080956E74020E4E78020D8E70020D6E7EE
:100D500006F104094DE7284652E7206ABDE8F09FF6
:100D6000B81B010000487047D08F00200048704732
:100D7000D08F002030B5B0F10A024FEA900E71F129
:100D800000034EEA817EB0EB0E0061EB91014FEA69
:100D9000101E4EEA017E10EB0E0041EB11114FEADE
:100DA000102E4EEA016E10EB0E0041EB11214FEABE
:100DB000104E4EEA014E10EB0E0041EB114140186F
:100DC00041F100014FEAD00040EA41704FEAD10101
:100DD00010EB80054FEA810444EA907444EB01046F
:100DE0006D1944EB0404521BA3414FF0000348BFAC
:100DF0000A3200D530BD401C41F1000130BD000079
:100E00001FB584B000200A9C06AB04AA02A9009476
:100E1000AFF3008018B1DDE9020108B010BD03484E
:100E2000204000F029FD00200146F6E70000207C6C
:100E30002DE9F0470D4699469246044600F12408F4
:100E40000168880604D5E06921F01001216000E006
:100E50000120A84201DD471B00E00027A1697A19A3
:100E600002EB0900081AA0612078C00602D42046CF
:100E7000FFF7C5FC002608E0D4E901211AF80600B6
:100E80009047206A401C761C20624E45F4DB207897
:100E9000C0060AD52046FFF7B2FC06E0D4E90121DE
:100EA00030209047206A401C2062381EA7F10107BD
:100EB000F4DC07E0D4E9012118F805009047206A26
:100EC000401C2062281EA5F10105F3DC2046FFF737
:100ED000ACFC2078000602D50220BDE8F087012096
:100EE000FBE770472DE9FF4F0C461E464FF0FF37DA
:100EF0008BB0D2E90001DDF860800A908A46C1F328
:100F00000A5505B93D460021084610F089F8BAF1A6
:100F1000000F00F4400005DA00EB80004FF44001C0
:100F200001EA50004FEA9059B9F1010F00DDB946CE
:100F30000A9850EA4A000ED044F61050A5F2FF3548
:100F400045432F14B8F1000F1ED07542291E1EDD37
:100F5000C9F100021CE0B8F1010F4FF0000001D010
:100F6000302103E0F24305E02154401CB042FBDB9A
:100F700030460022002121540B99C1F80880C1E9B4
:100F800000200FB0BDE8F08FBD1B6D1CDEE74A46A8
:100F900000DA694206A800F0EFFB06AB93E8070011
:100FA00003AB83E8070050460A9900F02AFD8DE85C
:100FB0000700A0F500501F3800900398002D0ADDAF
:100FC00042F21F014A460844002303A903906846E1
:100FD00000F093FF09E0A0F500504A461F380023B7
:100FE00003A90390684600F09DFF8DE80700000408
:100FF000000C03D04FF0FF30410800E01046B8F17C
:10100000000F03D00022009215461EE0751E05D485
:10101000FFF7B0FE303262556D1EF9D5B34601229E
:10102000084302D000227F1C04E02078302801D140
:1010300000227F1E002A099784D01DE0112D07DAB7
:10104000FFF798FE303262556D1C50EA0102F5D16F
:10105000084302D00098C8B10EE00021681E05E0E8
:10106000235C625C63542254401E491C8142F7DBBE
:10107000AB46A81B401E0990002004F80B000B98FB
:10108000099AC0F80880C0E9002B7AE711264FF0D2
:10109000000857E72DE9F04F88460446D21D22F09C
:1010A000070191B0D1E90001CDE90A0109F09FFEE5
:1010B00002460B98C00F01D02D2007E02068810761
:1010C00001D52B2002E0202101EAC000032A09906B
:1010D00001D0072A05DB03464146204600F00CFB01
:1010E0000BE12078800601D5E06900E00620B8F128
:1010F000650F814606D0B8F1660F18D0B8F1670FBA
:1011000070D131E00020B9F1110F009001DB112303
:1011100001E009F101030AAA01A90CA8FFF7E2FE08
:10112000DDE90C70002609F10105834647E0012046
:101130004B4600904FF000470AAA01A90CA8FFF700
:10114000D1FEDDE90DB00C995D46002610B909F11C
:1011500001000D18B9EB050003D4C0F1FF3609F109
:101160000105A5EB09002BE0B9F1010F01DA4FF001
:1011700001090020B9F1110F0090484601DD11234B
:1011800000E003460AAA01A90CA8FFF7ABFEDDE9BF
:101190000C704D4600268346207800070AD4AB45E4
:1011A00000DA5D4601A8012D04DD411911F8011C8A
:1011B000302907D04F4502DA17F1040F04DA012075
:1011C00082460FE06D1EEEE7002F02DCED1B3E4471
:1011D00003E0781CA84200DD7D1CB81B00F1010A69
:1011E0004FF000472078000703D4AA4501DB4FF0F9
:1011F000FF3A0021B7F1004F0DF143088DF843107D
:1012000024D002202B23002F01DA7F422D230A2134
:10121000021EA0F1010000DC5FB197FBF1FC97FB1F
:10122000F1F201FB1C7C17460CF1300C08F801CDE3
:10123000EEE7A8F1010003702188090501D54521D9
:1012400000E06521A0F1010800F8011C09980FA930
:10125000A1EB0807FF1D00B10120411901EBEA7065
:10126000A1693844081A401EA0612078C00602D443
:101270002046FFF7C4FA099828B1D4E90121904724
:10128000206A401C20622078C00622D52046FFF745
:10129000B6FA1EE0002E04DBB34502DD01A8805D36
:1012A00000E03020D4E901219047206A401C2062F0
:1012B000761CAAF101005FEA000A0AD100F018FAD0
:1012C000C0680168405CD4E901219047206A401C55
:1012D0002062281EA5F10105DCDC07E0D4E901212C
:1012E00018F8010B9047206A401C2062381EA7F1B5
:1012F0000107F3DC2046FFF798FA032011B041E61E
:101300002DE9F04F04460D46D21D22F0070089B0AA
:10131000D0E900974846394609F069FD0246F80FC2
:1013200001D02D2307E02068810701D52B2302E09F
:10133000202101EAC0038DF820300BB1012000E02C
:101340000020032A824601D0072A04DB29462046D2
:1013500000F0D2F93FE12078800601D40D2500E0AD
:10136000E569C7F30A560D2D49DA00214FEA175BEC
:1013700008460FF055FE002F00F4400007DA00EB9E
:1013800080004FF4400100EBD07001EA600081154D
:10139000012901DD4FF0FF3100224FEA850CBCF13D
:1013A000180F06D31346ACF118004FF08052C2401C
:1013B00003E04FF4801323FA0CF30CF10C0CBCF196
:1013C000200F04D3ACF1200C09FA0CF001E007FA6D
:1013D0000CF000294FF0004801DD18B90FE00ED1E4
:1013E00040450CD319EB02095F4121B9404502D1B8
:1013F0009F4329EA0209BBEB175F00D0761C2088C7
:10140000000502D57B48784402E07A4878441938D0
:1014100008AA302302F80A30037C0AF10101002EE9
:101420000AF1020A53546A4602DC4FF0300101E02F
:101430004FF031014FF001088DF8001002D0A6F2F4
:10144000FF3603E059EA470100D06B4E002D02DC65
:101450002178090704D54FF002082E218DF80110DC
:10146000C44600210BE0C7F303433F01C35C491CA2
:101470006D1E02F80830052908F1010801DA002D77
:10148000F1DC00210CE000EB1973491C1B786D1E88
:10149000082902F808304FEA091908F1010801DAB1
:1014A000002DF0DC21688B0602D516E0A8F10108BA
:1014B000E04505DD02EB080313F8013C302BF5D0C5
:1014C000B8F1000F09DD02EB080313F8013C2E2BE5
:1014D00003D1090701D4A8F10108002D05DD3E2143
:1014E00002F808106D1E08F10108407C002E02F879
:1014F000080008F1010804DA2D20764202F80800FD
:1015000002E02B2002F808000A214FF47A7086428C
:1015100008F101080BDB96FBF0F3303302F80830DA
:1015200096FBF0F308F1010800FB136601E0642E5E
:101530000CDB642096FBF0F3303302F8083096FBA6
:10154000F0F308F1010800FB136601E00A2E06DB48
:1015500096FBF1F0303002F8080008F1010896FB24
:10156000F1F001FB1060303002F80800A16908F1C9
:10157000010808EB050202EB0A00081AA0612078B6
:10158000C00602D42046FFF73AF9216A08AE01EB03
:101590000A00206204E0D4E9012116F8010B90470B
:1015A000BAF1010AF7D22078C00602D52046FFF72B
:1015B00026F96E4609E016F8010B3E280FD0D4E953
:1015C00001219047206A401C2062B8F10108F2D244
:1015D0002046FFF72AF909B00320BDE8F08F206A02
:1015E0002844206203E0D4E90121302090476D1E99
:1015F000EBD3F8E7C213010002FCFFFF10B543690B
:1016000013B1AFF3008001E0FFF732F9012010BD04
:10161000127800F124010A7000224A700122EDE7DD
:1016200011684FF0FF32E9E710B5436913B1AFF32A
:10163000008001E0FFF7B4F9012010BD128800F12D
:10164000240182840022C2840122EDE711684FF058
:10165000FF32E9E770B516460C46054600F040F843
:10166000036893F80101012806D0FF2C0FD8185DFC
:1016700068B101202C7070BDD3F8070132462146B5
:1016800003F2071303442846BDE8704018474FF0A3
:10169000FF3070BD70477546FFF764FBAE4605002E
:1016A0006946534620F00700854618B020B5FEF77E
:1016B0009FFEBDE820404FF000064FF000074FF0BE
:1016C00000084FF0000B21F00701AC46ACE8C00960
:1016D000ACE8C009ACE8C009ACE8C0098D46704769
:1016E00010B500F005F8001D10BD00BF25E6000094
:1016F00000487047F08F00202DE9F0411F46044656
:1017000003260168072A01F4006004DB08B116A56E
:1017100005E016A503E008B115A500E015A521F028
:1017200010002060A069C01EA0610FB1401EA06122
:101730002046FFF764F84FB1D4E9012138469047BD
:10174000206A401C2062C01C206206E0206AFAE782
:10175000D4E9012115F8010B9047761EF8D22046F6
:10176000FFF763F8BDE8F0814E414E006E616E00F8
:10177000494E4600696E66002DE9F04781461646DF
:101780008AB0354878440DC88DE80D003248784459
:10179000801C03AC0DC884E80D0041F69B30084462
:1017A000372190FBF1F290FBF1F5A5F1800501FBEB
:1017B00012041B3C02D56442012000E00020DFF847
:1017C00098A080460027FA44AAF1BE0A0EE0E0077E
:1017D0000AD03246684607EB470101230AEB810134
:1017E00000F0A0FB8DE8070064107F1C002CEED1F8
:1017F000194F7F44AE3F19E0E80715D007EB0410FE
:101800000DF1180A90E80E008AE80E00C068F04258
:1018100001D1981908903246012306A903A800F0C7
:1018200081FB03AB83E807006D10641C002DE3D13E
:101830004FF0010332466946B8F1000F03A802D009
:1018400000F05BFB01E000F06DFBC9E90001C9F8A5
:1018500008200AB0BDE8F087D410010010B5044696
:10186000AFF300802046BDE81040FEF74CBD0028D5
:1018700001D000F009B8704710B500F025F8BDE8B8
:101880001040FFF7F4BF000001491820ABBEFEE78F
:101890002600020070B505460C460A2000E06D1CCB
:1018A00000F0A8F835B128780028F8D102E0641CCF
:1018B00000F0A0F814B120780028F8D1BDE87040FD
:1018C0000A2000F097B8000010B5022803D04101AB
:1018D00003D50DA112E0002010BD010101D50FA11B
:1018E0000CE0C10001D511A108E0810001D512A1D1
:1018F00004E0400001D513A100E0002115A0FFF78E
:10190000C9FF012010BD0000496E76616C6964203A
:101910004F7065726174696F6E000000446976698A
:101920006465204279205A65726F00004F766572B7
:10193000666C6F7700000000556E646572666C6FB0
:1019400077000000496E6578616374205265737595
:101950006C7400005349474650453A2041726974FF
:10196000686D6574696320657863657074696F6E0E
:101970003A2000004FF0013C50F8042B51F8043B92
:101980009A4221D1A2EB0C03934313EACC1317D153
:1019900050F8042B51F8043B9A4215D1A2EB0C03EA
:1019A000934313EACC130BD150F8042B51F8043BAA
:1019B0009A4209D1A2EB0C03934313EACC13DBD078
:1019C0004FF00000704700BFD01A01BAB1FA81F1A0
:1019D00001F0180122FA01F0CB40C1F12001DBB285
:1019E000C0B2C01A2CFA01F3D11A914311EAC31103
:1019F000E6D1704708B569468DF800000320ABBEFC
:101A000008BD5FEA400C08BF91F0000F4FEA8C233D
:101A10004FEAC12243EA51514FEA1C5018BF00F56A
:101A2000F0404FEA300018BF41F000415FEA6C5CC3
:101A300000F02980BCF1FF3F08BF40F080407047B4
:101A4000130C06BF12044FF0100C4FF0000C130ED5
:101A500004BF12020CF1080C130F04BF12010CF1A9
:101A6000040C930F04BF92000CF1020CD30F04BFBF
:101A700052000CF1010C11464FF00002A0F11F00C2
:101A8000A0EB0C00704711F0004F08BF704731F019
:101A900000413FF4D5AF0B0C06BF09044FF0100C0A
:101AA0004FF0000C0B0E04BF09020CF1080C0B0FD9
:101AB00004BF09010CF1040C8B0F04BF89000CF169
:101AC000020CCB0F04BF49000CF1010CCCF1200338
:101AD000A0EB0C0022FA03F302FA0CF241EA030134
:101AE00000F10100704720F07F4C80EA030023F0F2
:101AF0007F47ACEB070303F57C5300F0004003F194
:101B0000FF032DE980494FEA154B09B44FEA14430E
:101B100025EA0B4E24EA03480FF2042606EB1327AE
:101B200049083E785FEA320203FB0667C7F5000703
:101B300007FB06F64FEA54374FEAD64606F102068F
:101B400007FB066CCCF1005C4FEA1C472CEA074C03
:101B500007FB06F40CFB06F504EB15464FEA961658
:101B600034BF00204FF000404FEAD13706FB07FC9E
:101B70004FEA1C4C0CFB0BF7D21B03FB0CF761EB81
:101B800007010CFB0EF7B0EB074072EB17420CFBA2
:101B900008F734BFA2EB0742B2EB074261EB1741F3
:101BA0004FEA0C444FEA910706FB07FC4FEA1C4C36
:101BB0000CFB0BF7B0EBC74072EB573203FB0CF793
:101BC00034BFA2EBC742B2EBC74261EB57310CFB0B
:101BD0000EF7B0EBC70072EB57720CFB08F734BF7F
:101BE000A2EBC702B2EBC70261EB5771039F4FEA4A
:101BF000816141EA921104EBCC044FEAD1374FEAFC
:101C0000826206FB07FC42EA90124FEA80604FEACC
:101C10001C4C0CFB0BF7D21B03FB0CF761EB070111
:101C20000CFB0EF7B0EB074072EB17420CFB08F70A
:101C300034BFA2EB0742B2EB074261EB17414FEA18
:101C40008C554FEA910704EB9C2406FB07FC4FEAF6
:101C50001C4C0CFB0BF7B0EBC74072EB573203FB8D
:101C60000CF734BFA2EBC742B2EBC74261EB57316E
:101C70000CFB0EF7B0EBC70072EB57720CFB08F7CA
:101C800034BFA2EBC702B2EBC70261EB577115EB91
:101C90004C254FEA816141EA92114FEA82624FEA94
:101CA000D13742EA901206FB07FC44F100044FEAE8
:101CB00080604FEA1C4C0CFB0BF7D21B03FB0CF7AC
:101CC00061EB07010CFB0EF7B0EB074072EB17421C
:101CD0000CFB08F734BFA2EB0742B2EB074261EB03
:101CE000174115EB1C154FEA813141EA92414FEA49
:101CF000823242EA90424FEA80304FEA0C7644F159
:101D0000000448EA03434EEA0B484FF0000EB2EBE2
:101D1000080C71EB030724BF624639464EEB0E0EEA
:101D20004FF0000B0018524149414BEB0B0BB2EB4B
:101D3000080C71EB03077BF1000B24BF62463946A8
:101D40004EEB0E0E4FF0000B0018524149414BEB89
:101D50000B0BB2EB080C71EB03077BF1000B24BFFC
:101D6000624639464EEB0E0E51EA020718BF46F0A6
:101D7000010616EB0E7655F1000254F1000103D571
:101D8000BDE88901BDE80088BDE88901BDE80048DB
:101D9000B619524141EB0101A3F101037047808064
:101DA0007F7E7D7C7B7A79787776767574737271B5
:101DB00071706F6E6E6D6C6C6B6A6A69686867666D
:101DC00066656464636362616160605F5F5E5E5DFF
:101DD0005D5C5C5B5B5A5A59595858575756565573
:101DE00055555454535352525251515050504F4FD5
:101DF0004F4E4E4D4D4D4C4C4C4B4B4B4A4A4A4925
:101E00004949484848474747474646464545454467
:101E10004444444343434342424242414141002BF4
:101E20009C4630D477002BD01CB54FEA370703B45B
:101E30004FF010004FF01001BAF1000F06D0BCF1C6
:101E4000000FDCBF40F0080040F008010FF0E8F898
:101E50000FBCBDE810400BF1010BBBF1010F08BF37
:101E60005FEA170722BF12F1010211F101014FF0E1
:101E7000004143F1000300F0004043EA00007047D6
:101E8000F9D35708D0E746EA064613F1400F4FEA68
:101E900016461FDD13F1200FDFBF16430A4600214F
:101EA00020335B42BED0C3F1200746EA064602FA61
:101EB00007F74FEA164646EA0706C3F1200722FA5B
:101EC00003F201FA07F721FA03F14FF0000342EAA7
:101ED0000702A7E746EA020646EA06464FEA164622
:101EE00046EA0106BCBF46EA0646360C4FF0000340
:101EF0004FF000024FF0000194E72DE9804C9A4624
:101F0000934670B491E8380007C831EA400C48BFE6
:101F100034EA430C03D5FFF7E6FDFFF780FFF0BC82
:101F2000BDE8008C2DE9804C9A46934670B491E848
:101F3000380007C810F0804F08BF13F0804F03D15E
:101F400000F005F8FFF76BFFF0BCBDE8008C20F057
:101F50007F4780EA030023F07F4C07EB0C03A3F5D7
:101F60007C5300F00040A3F1FE0392F0000F00F05C
:101F7000B38095F0000F00F077802DE901494FEA1A
:101F800011404FEA144621EA004800FB06FC24EA0F
:101F9000064708FB06F607FB08F800FB07F718EBF7
:101FA00006484CEB164C4FEA124B18EB07484FEA29
:101FB00015464CEB174022EA0B4E0BFB06FC25EABC
:101FC00006470EFB06F607FB0EFE0BFB07F71EEBA4
:101FD000064E4CEB164C4FF000061EEB074E4CEB3A
:101FE000174B18EB0B0840F1000018EB0E0B58EBE9
:101FF000000840F100008F1A4FF000013CBFC943B8
:10200000661B14BFB5EB040C00213CBFC943F61B93
:102010004FEA17444EEA8E0E27EA04454FEA1C4762
:1020200004FB07622CEA074C05FB07F70CFB05F6DF
:1020300004FB0CFC16EB074642EB174216EB0C4672
:1020400042EB1C421BEB060658EB0202414146EAFA
:102050009E0601D5BDE80189B619524141EB010147
:10206000A3F10103BDE801894FEA14454FEA114786
:1020700024EA054621EA074C05FB07F406FB07F7AF
:102080000CFB06F105FB0CFC11EB074144EB17447C
:102090004FEA124711EB0C4144EB1C4422EA074C77
:1020A00005FB07F206FB07F70CFB06F605FB0CFC2D
:1020B00016EB074642EB174216EB0C4642EB1C456B
:1020C0006A1854F1000148BF7047B619524141EBFC
:1020D0000101A3F10103704795F0000F37D04FEADB
:1020E00011424FEA144721EA024624EA074C02FB58
:1020F00007F106FB07F70CFB06F402FB0CFC14EBE4
:10210000074441EB17414FEA154714EB0C4441EBF0
:102110001C4125EA074C02FB07F506FB07F70CFB01
:1021200006F602FB0CFC16EB074645EB174516EBD3
:102130000C4645EB1C42121951F1000148BF704793
:10214000B619524141EB0101A3F1010370474FEA77
:1021500014454FEA114724EA054621EA074C05FBDE
:1021600007F106FB07F70CFB06F24FF0000605FB34
:102170000CFC12EB074241EB174112EB0C4251EB06
:102180001C4148BF7047921841EB0101A3F10103C4
:1021900070470000464910B54A6822F440324A6050
:1021A0004A6843681A434A6001684A6822F48072A8
:1021B0004A6001684A68036942EA03224A6001688A
:1021C0004A6822F040724A6001684A6883681A438C
:1021D0004A6001688A6822F400628A6001688A683D
:1021E000C3681A438A60816A6FF07062D1420168E5
:1021F0008A6822F070628A6001688A680CD0836AFB
:102200001A438A6001688A6822F040528A60016835
:102210008A68C36A1A4301E022F040528A6001686A
:102220008A6822F002028A6001688A68037E42EAB4
:1022300043028A6090F82010002901684A680FD094
:1022400042F400624A6001684A6822F460424A60CF
:1022500001684A68174C436A04EB43331A4301E0B0
:1022600022F400624A600168CA6A22F47002CA62FB
:102270000168CA6A838B104C04EB03531A43CA6289
:1022800001688A6822F400728A6001688A6890F89E
:10229000303042EA43228A6001688A6822F4806210
:1022A0008A6001688A68406942EA8020886010BDBF
:1022B0000023014000E0FFFF0000F0FF08F0D2BD66
:1022C00008F066BEFEF7A6B8F0EE400AF5EEC00ACA
:1022D000F1EE10FA02DDB0EE600A7047B1EE600A6E
:1022E000FBE70000002803D09FED020A80ED000A02
:1022F0007047000000000000002803D0B3EE060A7B
:1023000080ED000A7047000070B52DED0C8B84B095
:1023100006460C4615469FED990AF0EE408A9FED61
:10232000970AB0EE409A9FED950AF0EE40BA9FED05
:10233000930AF0EE409A9FED910AB0EE40AA0EB1DA
:1023400004B11DB904B0BDEC0C8B70BD8C48FFF717
:10235000C9FF8C48FFF7D0FF8A48D0ED000A9FEDF7
:102360008A1A60EE810AB0EE600A00F025F9F0EEFC
:10237000408A28EEA80AF0EE408A8248D0ED000A92
:10238000B0EE001A60EE810A9FED7F1A60EE810ABE
:10239000B0EE600A00F010F9B0EE409A29EE090A9A
:1023A000B0EE409ADFED790AB7EE000A00EEA80A17
:1023B000DFED770A00EEC90ADFED760A20EE200A8B
:1023C000754880ED000A6E4890ED000ADFED730A53
:1023D00080EE201AB7EE000A31EE000A20EE000A65
:1023E0006D48D0ED000A80EE801A6D4880ED001A2D
:1023F00094ED000AB5EEC00AF1EE10FA0DD194ED9D
:10240000010AB5EEC00AF1EE10FA06D194ED020A07
:10241000B5EEC00AF1EE10FA46D09FED580AB0EEC4
:10242000408A0020019002900390D4ED000A60EEF3
:10243000A00A94ED011AD4ED011A41EE210A94ED9F
:10244000021AD4ED021A41EE210AB0EE600A00F041
:10245000A9F8B0EE408A94ED000A20EE080A8DED4E
:10246000010A94ED010A20EE080A8DED020A94EDAE
:10247000020A20EE080A8DED030ADDED010AF1EEF5
:10248000600AB0EE600AFFF719FFF0EE409A9DED8A
:10249000031AF0EE410A9DED021AB0EE410AFFF771
:1024A0000FFFB0EE40AA07E09FED340AF0EE409A2D
:1024B0009FED320AB0EE40AA95ED000AB5EEC00AD3
:1024C000F1EE10FA0DD195ED010AB5EEC00AF1EE6C
:1024D00010FA06D195ED020AB5EEC00AF1EE10FA37
:1024E0003CD0B0EE690A00F067F8B0EE408AB0EE7A
:1024F000690AFFF7E7FEB0EE40DAB0EE4A0A00F0F4
:102500005BF8F0EE40AAB0EE4A0AFFF7DBFEB0EE51
:1025100040BA28EE2A0AD5ED010A20EE200AD5EDB0
:10252000000A0DEE200A68EE0B0A95ED021A00EE85
:10253000810AB0EE40CA95ED010A20EE0B0AD5EDF6
:10254000020A0AEEE00AF0EE40CAF0EE6C0AB0EEC3
:102550004C0AFFF7B5FEF0EE40BA03E09FED070A24
:10256000F0EE40BAB0EE4A1AF0EE690AB0EE6B0A2D
:10257000304609F05BF800BFE4E600000000000010
:10258000980300209C03002035FA8E3CC1BFAD3B70
:102590009DF8C5362F7C1C41A0030020506CC24A18
:1025A000A403002010B508F01BFEB7EE001AC1EE20
:1025B000000AB0EE600A10BDFDF768BF2DE9F041DA
:1025C0002DED028B9AB00546B0EE408A0E461746B6
:1025D0009846002017901890199014901590169016
:1025E0004DB146B13FB1B8F1000F04D0B5EEC08A8D
:1025F000F1EE10FA05D100201AB0BDEC028BBDE857
:10260000F08196ED000A8DED170A96ED010A8DED29
:10261000180A96ED020A8DED190A97ED000A8DED64
:10262000140A97ED010A8DED150A97ED020A8DED5A
:10263000160A17AA14A9284608F02CFE402104A85F
:10264000FEF7A8F80020009001900290039000246B
:1026500017A904A80CF034FA00BF30E004A800EB7E
:10266000041090ED000AD5ED000A20EE200A04A81F
:1026700000EB0410D0ED010A95ED011A00EE810A7D
:1026800004A800EB0410D0ED020A95ED021A00EE4A
:10269000810A04A800EB0410D0ED030A95ED031A9B
:1026A00000EE810A20EE080AF0EE000A80EE201A01
:1026B000684600EB840080ED001A601CC4B2042C54
:1026C000CCDB002410E005EB840090ED000A6846A6
:1026D00000EB8400D0ED000A30EE200A05EB840008
:1026E00080ED000A601CC4B2042CECDB28460BF021
:1026F00059FD012080E7000001221021014801F06E
:102700002FBD00000000024000221021014801F00E
:1027100027BD000000000240704700000122114662
:10272000014801F01DBD000000040240002201210B
:10273000014801F015BD00000004024030B54378A7
:1027400004781B021BB2234300EE103A194CB8EE7A
:10275000C00AD4ED000A20EE200A81ED000AC378F9
:1027600085781B021BB22B4300EE103AF8EEC00A2C
:1027700094ED000A60EE800AC1ED010A4379047904
:102780001B021BB2234300EE903AF8EEE00A20EE63
:10279000800ADFED090A81ED020AD0F8060020F078
:1027A0007F4000EE100AB8EE400A20EE200A82EDCB
:1027B000000A30BDE402002000401C4270470BF0CC
:1027C00051B809F073BD000010B5427803781202C9
:1027D00012B21A4300EE102A124BB8EEC00AD3ED23
:1027E000010A20EE200A81ED000AC27884781202E4
:1027F00012B2224300EE102AF8EEC00A93ED010A4D
:1028000060EE800AC1ED010A42790079120212B22B
:10281000024300EE902AF8EEE00A20EE800A81EDF5
:10282000020A10BDE402002010B5FFF775FFFFF7A4
:10283000C5FF09F05BF808B1802402E008F0C2FF90
:10284000044609F01FFA10B144F0400010BD09F031
:10285000ABF9204310BD00002DE9FC4105460020E6
:1028600016460C4600900190FFF74EFF922000F0B4
:10287000BDF806226946122000F09AF8FFF73CFFE7
:102880009DF801009DF80010000200B2084300EE20
:10289000100A464FB8EEC00AD7ED000A20EE200A13
:1028A00084ED000A9DF803009DF80210000200B2BA
:1028B000084300EE100AF8EEC00A97ED000A60EE39
:1028C000800AC4ED010A9DF805009DF8041000027D
:1028D00000B2084300EE900AF8EEE00A20EE800A0B
:1028E00084ED020AFFF722FF08226946002000F06B
:1028F0005FF8FFF713FF9DF800000F2830D19DF817
:1029000003009DF80210000200B2084300EE100A16
:10291000D7ED010AB8EEC00A20EE200A85ED000AC4
:102920009DF805009DF80410000200B2084300EE77
:10293000100AF8EEC00A97ED010A60EE800AC5EDB4
:10294000010A9DF807009DF80610000200B2084336
:1029500000EE900AF8EEE00A20EE800A85ED020A09
:10296000FFF7D2FEA22000F041F8022269462220A1
:1029700000F01EF8FFF7C0FE9DF800009DF8011062
:10298000C00040EA5110B0F5806F01DBA0F5006097
:1029900000EE100AB4EE001AF8EEC00AB3EE070A11
:1029A00000EE810A86ED000ABDE8FC81E402002009
:1029B00070B514460D4640F0800000F017F806E0B0
:1029C000552000F013F8641E05F8010BE4B2002C4A
:1029D000F6D170BD10B50C4640F0800000F006F84E
:1029E000552000F003F8207010BD000001B582B042
:1029F0004FF47A700090012301AA02A9024803F063
:102A000009F89DF804000EBDBC0D00200278407846
:102A1000D20042EA5010B0F5806F01DBA0F50060F3
:102A200000EE100AB4EE001AF8EEC00AB3EE070A80
:102A300000EE810A81ED000A704710B50C46FFF7E1
:102A4000D5FF2046BDE81040FFF7D0BFFEE70000ED
:102A5000014800F060BE0000E00B00203EB509F028
:102A6000DFFF314CA0600188ADF800108188ADF81F
:102A70000210C088ADF8040009F0F0FE6060007834
:102A80008DF8060000238DF80730A068808AC10702
:102A900002D080218DF80710410705D59DF8071059
:102AA00041F040018DF80710810705D59DF807100A
:102AB00041F020018DF80710010705D59DF807109A
:102AC00041F010018DF80710010605D59DF807109B
:102AD00041F008018DF80710810505D59DF8071014
:102AE00041F004018DF80710400505D59DF8070059
:102AF00040F002008DF807000B4A002069462C3296
:102B00000C5C1454401C0828FAD308480321064AD8
:102B1000836001600821C0E90331014602AB2C3219
:102B2000034800F099FC3EBD9802002030290020A7
:102B3000E00B00200EB509F0BDFE90ED000A8DED12
:102B4000000A09F0A1FF90ED060A0C4A8DED010A7A
:102B5000002069460B5C1354401C0828FAD308482F
:102B6000022102AB016000218160C1600821016186
:102B70000146024A034800F06FFC0EBDBC02002073
:102B800018290020E00B0020014800F0C4BD00001F
:102B9000080C002038B50E4C40F2FF1525600025CA
:102BA000A560E560082525610A4C050A257060705E
:102BB000080AA070E170100A20716271180AA071F1
:102BC000E3716B4622460249034800F045FC38BDDC
:102BD000D0280020A4020020080C002038B50D4A9F
:102BE0004FF400730824136000239360C2E9033498
:102BF000094A040A14705070080A9070D170137159
:102C000053719371D3716B460249044800F024FC60
:102C100038BD0000E8280020AC020020080C00208D
:102C2000124A10B5506800011ED5114B114C4FF0DF
:102C30000061586B0068A04202D90E484C3805E08C
:102C40000A4CB834A04203D90A485038016006E063
:102C5000064C5834A04201D9D16000E09160186858
:102C6000016841F40071016010BD00000060024085
:102C7000840C002058640240014801F005B80000AF
:102C80008C1200202DE9F05FA548A64AA54DC06C26
:102C9000A54EA44F0068DFF890C2DFF88882DFF805
:102CA0008892DFF880A2DFF880B2DFF878E29E4CED
:102CB000483D60361837D1140CF1180CA8F13008D3
:102CC00009F178090AF1300A0BF1300BAEF1180E58
:102CD00090421ED9934A543A21E0B8422ED1202284
:102CE00008E0504531D10A4604E04FF4001201E0FB
:102CF0004FF00062134276D08A4A90424ED9A042E9
:102D000005D0A84203D0B04201D0B8422AD1202138
:102D100041E0854AA832904203D9824A583A136862
:102D200005E0814A48329042804AF8D95368A0426F
:102D3000D5D0A842D3D0B042D1D0CEE76045D2D0D2
:102D40004045D0D04845CED0CBE75845CDD0704592
:102D5000CBD0754A90329042C7D0724A48329042E6
:102D6000C6D1C2E7604516D0404514D0484512D0C0
:102D7000504510D0584509D0704507D06A49903168
:102D8000884203D067494831884202D14FF400118C
:102D900001E04FF0006163484C3829E0624AA832F4
:102DA000904227D9A04205D0A84203D0B04201D01A
:102DB000B84201D1202119E0604517D0404515D017
:102DC000484513D0504511D0584509D0704507D01B
:102DD00055499031884203D052494831884203D145
:102DE0004FF4001102E098E04FF000614D48503878
:102DF00001604EE04C4A4832904225D9A04205D0AD
:102E0000A84203D0B04201D0B84201D1202118E03D
:102E1000604516D0404514D0484512D0504510D0DA
:102E2000584509D0704507D03F499031884203D0BA
:102E30003C494831884202D14FF4001101E04FF083
:102E400000613A48C16024E0A04205D0A84203D006
:102E5000B04201D0B84201D1202118E0604516D01F
:102E6000404514D0484512D0504510D0584509D09F
:102E7000704507D02C499031884203D02949483108
:102E8000884202D14FF4001101E04FF00061274861
:102E90008160274C207880070CD5207820F0020034
:102EA0002070207840F00400207001221146214853
:102EB00001F056F96078204D80070CD5607820F03D
:102EC00002006070607840F0040060700122102100
:102ED000284601F045F9A07880070CD5A07820F0AD
:102EE0000200A070A07840F00400A0700122102120
:102EF000284601F035F909F0C9FF207840070CD5C4
:102F0000207820F004002070207840F00800207025
:102F10000A48016841F001010160BDE8F09F00002E
:102F2000BC0D002058640240106002400060024066
:102F3000B80000200004024000000240103C0140A4
:102F4000014800F0A1BE0000CC110020014800F0B3
:102F50009BBE0000EC120020014800F095BE00006E
:102F60006C11002001681823CAB2103AB2FBF3F2C8
:102F7000054B6FF30901032A9B5CC36500D9091D4A
:102F800081650846704700005E1F010810B50146C4
:102F900000208B698A6A4FF0C07453B1B3F5005FAB
:102FA00015D072B1012A0CD0022A0AD0032A09D105
:102FB00004E01AB1012A06D0022A03D1C96AC90164
:102FC00000D5012010BDC96AA142FAD010BD002A67
:102FD000F7D0012AF2D0022AF3D0032AF3D010BD91
:102FE000704702E000F5005000B20028FADB4FF411
:102FF0000051884203DBA0F5005000B2F9E780B22F
:10300000704702E000F5005000B20028FADB4FF4F0
:103010000051884203DBA0F5005000B2F9E780B20E
:103020007047012000F0B0BF082000F0ADBF1020B5
:1030300000F0AABF202000F0A7BFF0B54FF0E70EC8
:1030400000F801EB4FF07E0E00F801EB10EE10CA15
:10305000016010EE907A426011EE106AC0F808C06C
:1030600011EE905AC76012EE104A06614561846104
:10307000037700214177EE218177F0BD7047000092
:1030800078B50024009490F83C20012A19D0012240
:1030900080F83C200A6807250368092A13D9DE68EE
:1030A0000A3A02EB42029540AE43DE600A788B6832
:1030B0000A3A02EB420293400268D5682B43D36080
:1030C00010E0022078BD1E6902EB42029540AE433B
:1030D0001E610A788B6802EB420293400268156910
:1030E0002B4313614A681F25072A13D203685E6BBE
:1030F000521E02EB82029540AE435E630A8893B291
:103100000A79521E02EB820293400268556B2B43F0
:10311000536327E003680D2A12D21E6BD21F02EB05
:1031200082029540AE431E630A8893B20A79D21F89
:1031300002EB820293400268156B2B43136311E08C
:10314000DE6A0D3A02EB82029540AE43DE620A88E7
:1031500093B20A790D3A02EB820293400268D56A73
:103160002B43D362164B0568144A9D4206D10D6865
:10317000122D03D1556845F48005556005689D42C0
:1031800018D10B68102B01D0112B13D1536843F4C5
:1031900000035360096810290CD10A490A4A0968DA
:1031A000B1FBF2F101EB8101490000E0491E009101
:1031B0000029FBD180F83C40002078BD002301406D
:1031C000002001404000002040420F000068C06C19
:1031D000704770B504004FF0000603D0206C002546
:1031E00010B107E0012070BD204600F01DF86564B5
:1031F00084F83C50206CC00610D4206C20F4885019
:1032000040F0020020642046FEF7C4FF6564206C95
:1032100020F0020040F00100206400E0012684F864
:103220003C50304670BD000010B586B004461421F5
:103230006846FDF7AFFA174B2068002216499842FE
:1032400009D1086840F480700860086800F4807054
:10325000059006B010BD114B9842FAD1086840F4B1
:1032600080600860086800F4806005900A4814389F
:10327000016841F0200101600068694600F020000B
:103280000590181500900320CDE90102044800F0D4
:1032900087FEDEE700200140443802400022014062
:1032A000001402402DE9F041044600680D46816893
:1032B0004FF0000749050BD58068C00508D5206C84
:1032C00040F02000206484F83C700120BDE8F081CB
:1032D00000F04CFF06460FE0681C0DD025B100F051
:1032E00045FF801BA84207D9206C40F004002064F1
:1032F00084F83C700320E9E7206800688007EBD57C
:1033000021686FF012000860206C40F400702064A7
:103310002068816811F0405F13D1217E89B9C16AAC
:1033200011F4700F02D0806840050AD4206C20F49C
:1033300080702064206CC00403D4206C40F0010035
:1033400020640020C2E7000018B50022009290F827
:103350003C10012907D0012180F83C1001688B68DE
:10336000DB0702D011E0022018BD8B6843F0010397
:103370008B602A492A4B0968B1FBF3F101EB41014B
:1033800000E0491E00910029FBD101688B68DB0732
:1033900041D0036C40F20164A34343F4807303649F
:1033A0004B685B0505D5036C23F4005343F480534D
:1033B0000364036CDB0404D5436C23F0060343640D
:1033C00000E0426480F83C20164A6FF022030B6054
:1033D00051680068CA06144906D088421BD181682A
:1033E00011F0405F13D016E08842F8D00F4A9042A7
:1033F00003D1D1F80423D206F1D00D4A90420AD16C
:10340000D1F8041301F01F011029E8D303E081680B
:1034100041F080418160002018BD00004000002084
:1034200040420F00002301400020014000210140E4
:103430000022014090F82020012A07D0022A05D05E
:10344000416A41F48021416201207047006842696D
:103450000A43426100207047F0B590F8205004689C
:10346000A468012D05D0022D03D0416A41F48021CA
:1034700053E014F0406F01D1E5004BD5C4F3016473
:10348000022C03D9416A41F4000146E00125A54020
:103490001D608B684FF4C0759BB1CE6833434E6896
:1034A00043EAC603066805EB0417F3514FF4C273F1
:1034B000076803EB04130E69FE50097D012905D04E
:1034C00009E00E88CB6843EA4653EBE70168CE5823
:1034D00046F48076CE501179D2F805304FF4C67696
:1034E00041EA0323016806EB04168B511178D2F8E8
:1034F00001204FF4C47341EA0221026803EB041374
:10350000D150006805EB0411425842F001024250CC
:103510000020F0BD416A41F4001141620120F0BD7C
:1035200010B590F82020012A07D0022A05D0416A60
:1035300041F480214162012010BD3B48D0F80022B7
:1035400042F00102C0F80022D0F8002222F47C529E
:10355000C0F80022D0F800224B6A42EA0322C0F8E9
:1035600000220A7D02F01F0301229A40D0F81C328B
:103570009343C0F81C32CB69B3B9D0F80C329343F3
:10358000C0F80C328C894B6864F31F434C6900EB24
:10359000C404C4F840320C890B6864F31F434C69BF
:1035A00000EBC404C4F84432CB69012B16D1D0F827
:1035B0000C321343C0F80C320C884B6864F31F4381
:1035C0004C6900EBC404C4F840320C89CB6864F346
:1035D0001F434C6900EBC404C4F844328B69002BD0
:1035E000D0F804320ED01343C0F804320B69002B1C
:1035F000D0F8143208D01343C0F81432096A0129F4
:1036000004D008E09343EFE79343F5E7D0F81C12AA
:103610001143C0F81C12D0F8001221F00101C0F8CB
:103620000012002010BD000000640040704730B55B
:1036300090F82040012C05D0022C03D0416A41F4BF
:1036400080215DE00468002955D02469A40754D086
:103650004FF4D874056804EB01142D5915F00405D6
:10366000956005682D594ED0ED08556005682C59B8
:10367000C4F34004D4604FF4DA74056804EB011419
:103680002D5905F00F05156105682D59C5F307255E
:10369000956105682C59240C54614FF4DC72046860
:1036A00002EB0112A4581C700468A458240A5C7030
:1036B0000468A458240C9C700468A258120EDA7096
:1036C0004FF4DE72046802EB0112A4581C71046806
:1036D000A458240A5C710468A458240C9C710468E2
:1036E000A258120EDA71006881B1016941F020011F
:1036F0000161002030BDE468A8E7416A41F400118F
:103700004162012030BD6D0D1560AFE7C16841F029
:103710002001C160EDE72DE9F05F05460068002457
:103720004669D0F804908768D0F80CB0D0F810A0A3
:10373000D0F81880F10748D0F90714D00121816032
:10374000B80703D5284600F072FA0CE0780702D5D6
:103750004FF4006407E0380702D54FF4805402E0CC
:10376000284600F063FAF80516D529684FF48070F2
:103770008860B80503D5284600F05BFA0CE07805B0
:1037800002D544F4005407E0380502D544F48044DF
:1037900002E0284600F04CFAF80316D529684FF4E9
:1037A00080308860B80303D5284600F044FA0CE066
:1037B000780302D544F4004407E0380302D544F40A
:1037C000803402E0284600F035FA300707D55FEA7A
:1037D000CB6004D52968102044F40074C8607007D9
:1037E0004FF0080707D55FEA0B7004D52868C7605B
:1037F000284600F097F9B00706D52868C06880070A
:1038000002D0284600F090F9700607D55FEACA603A
:1038100004D52968102044F480640861B00607D5F7
:103820005FEA0A7004D528680761284600F0D0F9DD
:10383000F00606D528680069800702D0284600F007
:10384000C8F9B00308D55FEAC96005D5296810201A
:103850004860284600F0BEF9F00307D55FEA09701A
:1038600004D528684760284600F0E6F9300446D5BC
:103870005FEA497040D5F00504D55FEAC87001D011
:1038800044F00104B00504D55FEA887001D544F026
:103890000204700504D55FEA487001D544F00404C1
:1038A000300529D518F0700F26D008F07000402898
:1038B00015D006DC102809D020280AD0302816D1CF
:1038C0000AE050280ED0602811D10EE044F0080420
:1038D0000DE044F010040AE044F0200407E044F056
:1038E000400404E044F0800401E044F4807428685B
:1038F000816921F070018161296804204860002CF1
:1039000005D0686A204368622846FFF78FFEBDE84D
:10391000F09F70B5040003D094F8200010B104E0CB
:10392000012070BD204600F081F82068016821F078
:103930000201016000F01AFC0546052604E000F0D3
:1039400015FC401B0A2811D8206840688007F6D46F
:103950002068016841F00101016000F007FC0546A4
:103960000BE000F003FC401B0A2806D9606A40F413
:103970000030606284F82060D2E720684068C007A9
:10398000EFD0207E0128206801683DD021F0800121
:103990000160607E01282068016838D021F0400174
:1039A0000160A07E01282068016833D021F0200149
:1039B0000160E07E0128206801682ED041F01001EE
:1039C0000160207F01282068016829D021F00801CA
:1039D0000160607F01282068016824D021F0040183
:1039E0000160D4E902010843D4E9041211430843F9
:1039F0006168491E08432168C86100206062012097
:103A000084F82000002070BD41F08001C0E741F043
:103A10004001C5E741F02001CAE721F01001CFE7DE
:103A200041F00801D4E741F00401D9E7F0B587B0CF
:103A3000044614216846FCF7ADFE3549354ADFF8E7
:103A4000CCE00868D4F800C0324B032402250926D4
:103A500010320027401CF44521D10860012807D10D
:103A6000106840F000701060106800F00070059061
:103A7000186840F00800186018688DE8B00000F081
:103A80000800CDE9046069460394234800F088FAF1
:103A900000220621142000F071FF142031E0DFF82D
:103AA0007CE0F4452FD1D2F800C04CF0806CC2F815
:103AB00000C0D2F800C001280CF0806CCDF814C012
:103AC000086007D1106840F000701060106800F0C6
:103AD00000700590186840F0020018601868694688
:103AE00000F00200059060208DE8A100CDE90346BA
:103AF0000B4800F055FA00220621402000F03EFF5E
:103B0000402000F02DFF07B0F0BD00000064004031
:103B10003400002030380240000C024000680040B1
:103B2000000402407047000010B58AB004466B469E
:103B300002AA0021FFF77BFD0299A1F201210629CB
:103B400024D82048C9B201701F48844202D1F9B17B
:103B500001291DD01D4B01EB810203EB420033F81C
:103B600012400481BDF80040491C64BA23F8124099
:103B7000BDF8022052BA4280BDF8042052BA8280B9
:103B80009DF806208271C8B208F0AAFB0AB010BDE9
:103B90000E4A01EB8101463202EB410032F811304E
:103BA0000381BDF800305BBA22F81130BDF8021075
:103BB00049BA4180BDF8041049BA81809DF80610C9
:103BC0008171E3E798020020080C0020742800208F
:103BD00070477047704770B5044690F82000012880
:103BE00004D0606A40F40020606217E0022084F88C
:103BF00020002068016821F00101016000F0B6FAA0
:103C000005460DE000F0B2FA401B0A2808D9606AA8
:103C100040F400306062052084F82000012070BD6F
:103C200020684068C007EDD1606270BD7047704782
:103C30007047704770477047704710B5040002D056
:103C4000607910B106E0012010BD002020712046EF
:103C500000F006F80220607101206071002010BDA4
:103C600008B500680649884208D10648016841F451
:103C700080510160006800F48050009008BD000091
:103C800000300240303802402DE9F84304464FF03E
:103C90000009CDF8009063484FF41651A56D0068F7
:103CA000B0FBF1F72E6894F85C20082101FA02F0CD
:103CB00030420FD02068026852070BD5026822F00C
:103CC0000402026094F85C008140A960606D40F0DD
:103CD0000100606594F85C104FF0010808FA01F0EB
:103CE000304208D021684969090604D5A860606D92
:103CF00040F00200606594F85C1004208840304277
:103D000008D021680968890704D5A860606D40F073
:103D10000400606594F85C1010208840304218D090
:103D200021680968090714D5A8602068016849035B
:103D300004D50068000308D5A16C07E00168C90537
:103D400003D4016821F008010160216C09B120460B
:103D5000884794F85C1020208840304231D0216898
:103D60000968C9062DD5A86094F835000528206893
:103D7000016806D0490347D5006800031DD4616C73
:103D80001CE021F0160101602068416921F08001EA
:103D90004161206C08B9A06C20B12068016821F055
:103DA0000801016094F85C103F208840A86084F806
:103DB000349084F83580216D1FE0E16B09B1204615
:103DC0008847606D00282BD0606DC00714D0052097
:103DD00084F835002068016821F001010160009835
:103DE000401C0090B84203D820680068C007F6D194
:103DF00084F8349084F83580E16C002910D001B04B
:103E00002046BDE8F04308470168C905D5D40168DC
:103E100021F01001016084F8349084F83580CCE7FB
:103E2000BDE8F883400000202DE9F041044600F091
:103E30009DF905465CB1002684F83460022084F8C0
:103E400035002068016821F0010101600DE00120CA
:103E5000BDE8F08100F08AF9401B052805D9202033
:103E60006065032084F83500F2E720680068C00729
:103E7000F0D121680A6820480240D4E901031843C0
:103E8000D4E903352B43184363691843A3691843E6
:103E9000E3691843236A18431043626A042A03D172
:103EA000D4E90B231A431043086020684069656A0F
:103EB00020F0070128460D43012704280CD1A06AF1
:103EC0000543E06A40B12046FFF760F820B140208A
:103ED000606584F83570BAE7206845612046FFF7D1
:103EE00041F894F85C203F2191408160666584F838
:103EF00035700020ACE700003F8010F010B5204C7A
:103F000010281AD0202824D0082830D0012813D116
:103F10000BF026FD01280FD004F11401A0690BF06D
:103F200051F86069002807D016494FF080500860AA
:103F3000BFF34F8FBFF36F8F10BD092008F0D0F98A
:103F4000607840F001006070A07840F00100A0703F
:103F500006E0082008F0C4F9207840F00100207045
:103F600020790028E8D0BDE8104008F08FBF0A2073
:103F700008F0B6F9E07840F00100E07010BD0000F4
:103F8000B800002004ED00E0044910B50A680242C0
:103F900002D00860FFF7B2FF10BD0000143C0140E2
:103FA0002DE9F84FDFF88C91002209F1040A0AF19B
:103FB000040B4FF00F080BF1040E01260B6896401E
:103FC0003340B34271D14C68022C01D0122C11D174
:103FD000D40800EB84073D6A5407E40E08FA04FC99
:103FE00025EA0C05D1F810C00CFA04FC4CEA050CCB
:103FF000C7F820C007685400032591F804C0A54005
:104000000CF0030CAF430CFA04FC4CEA070CC0F8AC
:1040100000C04F68012F05D0022F03D0112F01D00F
:10402000122F11D18768D1F80CC0AF430CFA04FCF1
:104030004CEA070CC0F808C04768B7430E79C6F3CE
:10404000001696403E434660C668AE438D68A54064
:104050003543C5604C68E40065D5374C256845F4A8
:1040600080452560246822F0030504F48044009410
:10407000324C2E19D6F808789407250F08FA05F463
:10408000A7432F4CA04201D1002424E02D4CA04294
:1040900001D101241FE02C4CA04201D102241AE0DE
:1040A0002A4CA04202D1032415E03CE0284CA04257
:1040B00001D104240FE0274CA04201D105240AE0DD
:1040C000254CA04201D1062405E0244CA04201D198
:1040D000072400E00824AC403C43C6F80848D9F85F
:1040E00000404D464E689C43F60300D51C432C60AF
:1040F000DAF8004055464E689C43B60300D51C4391
:104100002C60DBF800405D464E689C43F60200D50B
:104110001C432C60DEF8004075464E689C43B60296
:1041200000D51C432C60521C102AFFF446AFBDE89A
:10413000F88F0000003C014044380240003001404C
:10414000000002400004024000080240000C02404F
:10415000001002400014024000180240001C0240FF
:104160000AB1816170470904FBE7000001488068DB
:10417000704700001403002070B504001BD094F8B1
:104180003D00002520B984F83C50204600F0D8FAC4
:10419000242084F83D002068016821F001010160BD
:1041A00001F0D0F84D4B6168994201D84C4900E0CC
:1041B0004C49884201D2012070BD4B492268B0FBB6
:1041C000F1F1566826F03F060E43566062689A4247
:1041D00006D94FF4967251434FF47A72B1FBF2F163
:1041E0002268491C166A26F03F0631431162616855
:1041F000994210D84900401EB0FBF1F2521CC2F3A4
:104200000B02042A01D2042022E0B0FBF1F0401C92
:10421000C0F30B001CE0A268F2B301EBC10303EB97
:104220000116431EB3FBF6F35B1C43F480431B05EE
:1042300049D092B301EBC10202EB0111401EB0FB69
:10424000F1F0401CC0F30B0040F4804040F400400B
:104250002168CA694CF6FF739A431043C861D4E9D8
:10426000071001432068026822F0C0021143016078
:10427000D4E9030101432068826848F2FF339A437E
:1042800011438160D4E9051001432068C26822F01F
:10429000FF021143C16001E00EE016E020680168F2
:1042A00041F0010101602564202084F83D00256370
:1042B00084F83E50002070BD01EB4106431EB3FB65
:1042C000F6F35B1CB3E70120C2E701EB4101401E9E
:1042D000B0FBF1F0401CC0F30B00B7E7A086010073
:1042E00080841E0000093D0040420F002DE9F84F78
:1042F0001F4690468A460446DDF82890FFF736FFB1
:10430000054694F83D0020287FD119230122404919
:104310002046009502F03EFB002876D194F83C0040
:10432000012872D0012084F83C0020680168C90788
:1043300003D1016841F0010101602068016821F4A6
:1043400000610160212084F83D00102084F83E00C7
:1043500000262664C4F824806785608D20852D485A
:10436000E0622B464A465146204602F097F990B942
:10437000206841698069009036E02A464946204617
:1043800002F0BDFB50B1206C042804D12068016804
:1043900041F4007101600120BDE8F88F606A216876
:1043A00000780861626A521C6262608D401E6085FE
:1043B000208D401E80B2208521684B69DB435B075E
:1043C0000BD450B110780861606A401C6062608D47
:1043D000401E6085208D401E20852A464946204685
:1043E00002F0B2FA0028CED1208D0028C5D154F8B1
:1043F0003D0B016841F400710160202004F81E09A2
:10440000E67766770020C7E7FFE70220C4E70000F1
:10441000020010000000FFFF2DE9FF4F83B09A4615
:10442000DDE9119793460446DDF84080FFF79EFED4
:10443000054694F83D00202870D1192301227149C6
:104440002046009502F0A6FA0028F5D194F83C0029
:10445000012863D0012084F83C0020680168C90766
:1044600003D1016841F0010101602068016821F475
:1044700000610160222084F83D00402084F83E0065
:1044800000262664C4F82480A4F82A90608D208534
:104490005D48E062CDE9007553465A4620460499CE
:1044A00002F040F900287CD1208DD0B1012821D024
:1044B0000228206824D0416980690090208D03285B
:1044C00069D801282BD0514902283B464FF0000201
:1044D000009559D08846204602F05CFA002860D149
:1044E0003CE02068416981690091016841F40071F4
:1044F000016077E02068016821F480610160F0E7E5
:10450000016821F4806101602068016841F4006164
:104510000160206841698069009063E06FE02A468D
:104520003946204602F0B6FA98BB20680069616AF5
:1045300008704EE02068016841F400710160206855
:104540000069616A0870606A401C6062218D491EC2
:104550002185618D491E6185216838E020680168E8
:1045600021F48061016020680069616A0870606AF6
:10457000401C6062208D401E2085608D401E60853D
:104580003B46002241460095204602F003FA00B95E
:10459000D0E706E0FFE72A463946204602F07AFADD
:1045A00018B1012007B0BDE8F08F20680069616A8A
:1045B0000870606A401C6062218D491E2185618DF2
:1045C000491E618521684A69D24352070AD40969A4
:1045D0000170606A401C6062208D401E2085608DE5
:1045E000401E6085208D00287FF468AF202084F86D
:1045F0003D0084F83E6084F83C600020D2E7022051
:10460000D0E70000020010000000FFFF04000100DE
:104610002DE9FF4F83B09A46DDE911979346044692
:10462000DDF84080FFF7A2FD054694F83D00202804
:104630007FD11923012240492046009502F0AAF9B2
:10464000002876D194F83C00012872D0012084F82B
:104650003C0020680168C90703D1016841F00101ED
:1046600001602068016821F400610160212084F864
:104670003D00402084F83E0000262664C4F82480D3
:10468000A4F82A90608D20852C48E062CDE9007561
:1046900053465A462046049902F0B8F870B930E003
:1046A0002A463946204602F02AFA58B1206C0428DE
:1046B00004D12068016841F400710160012007B055
:1046C000BDE8F08F606A216800780861626A521C58
:1046D0006262208D401E80B22085618D491E6185F9
:1046E00021684B69DB435B070BD468B11078086124
:1046F000606A401C6062208D401E2085608D401ED7
:104700006085208D0028CBD12A463946204602F00C
:104710001BF90028CAD154F83D0B016841F400711F
:104720000160202004F81E09E67766770020C6E7BE
:10473000FFE70220C3E70000020010000000FFFFB7
:104740002DE9F04387B0054614216846FCF722F8AE
:104750004B4E4A4B29680024494812220327103641
:104760004FF001084FF00409994218D1016841F057
:10477000020101600068694600F0020005903802FD
:104780008DE80501CDE903793E48FFF709FC306863
:1047900040F400103060306800F400106CE03A4BD8
:1047A00099423BD1016841F0200101600068CDE9E8
:1047B000007200F02000CDE90490CDE9028769463F
:1047C0003248FFF7EDFB306840F48000306030681D
:1047D000304E00F4800005902D4830604FF060604E
:1047E00070604020C6E902040001C6E90404C0016B
:1047F000B461C6E9074030467462FFF715FB08B1A3
:10480000FEF73CFC23486E63A838B5630068416836
:1048100041F40061416007B0BDE8F0831E4B99424E
:10482000F9D1016841F004010160016801F004015F
:104830000591016841F0010101600068144600F033
:104840000100059058158DE81101CDE903796946FD
:104850001248FFF7A5FB4FF480708DE81101CDE9F8
:10486000037969460E48FFF79BFB306840F400006F
:104870003060306800F400000590CCE70054004040
:10488000303802400004024000580040001402404A
:10489000B86002402C0D0020005C0040000802407F
:1048A000000002400248816802781144816070472C
:1048B000140300200B4810B5016841F40071016039
:1048C000016841F480610160016841F48071016018
:1048D000032000F073F80F2000F006F800F024F831
:1048E000002010BD003C024070B50D4D04464FF451
:1048F0007A712878B1FBF0F00A490968B1FBF0F051
:1049000001F075F948B9102C07D200222146501E3B
:1049100000F034F800206C6070BD012070BD000014
:1049200014030020400000200C4882B0016841F4CC
:1049300080410160006800F4804000900748001F3B
:10494000016841F0805101600068002200F0805051
:1049500000900F21901E02B000F010B844380240C1
:10496000002809DB00F01F0201219140400980006E
:1049700000F1E020C0F8001170470000F0B40E4BC9
:104980001B68C3F30223C3F10704042C00D90424D9
:104990001D1D072D01D2002300E0DB1E012606FAB3
:1049A00004F56D1E0D409D409E40761E164045EA62
:1049B0000601F0BC06F046BA0CED00E0064A00F035
:1049C000070110684FF6FF03184040EA0120034931
:1049D00008431060704700000CED00E00000FA058D
:1049E0007047D0F8040405F031BCC1EBC10200EB04
:1049F0008202D0F80404926C05F084BBC1EBC102C2
:104A000000EB8202D0F80404D2F8082205F0DDBBE6
:104A1000D0F8040405F01CBC70B5044601F00F008A
:104A20006268904201D9012070BD0B0601F00F01B0
:104A3000C1EBC10104EB81014FF001024FF0000511
:104A400003D581F83D203C3103E081F8FD5101F5AB
:104A5000FE718D70087094F8BC03012808D084F8AA
:104A6000BC23206805F082FF84F8BC53002070BD91
:104A7000022070BD2DE9F04104460F0601F00F0041
:104A8000C0EBC00104EB81014FF001064FF00005BF
:104A900003D581F83D603C3103E081F8FD5101F51B
:104AA000FE7108708A60CB704A7802B1C880022B10
:104AB00000D10D7194F8BC03012809D084F8BC63BF
:104AC000206805F041FE284684F8BC53BDE8F0811B
:104AD0000220FBE770B50D4601F00F04C4EBC401E2
:104AE00000EB8101C1F81032C1F808220023C1F89F
:104AF000143281F8FD3181F8FC41036901F5FE7142
:104B0000012B00D10A612A07027C006803D005F05E
:104B100085FF002070BD05F071FEFAE770B5044610
:104B20000D4601F00F006168884201D9012070BD77
:104B300029064FF000064FF0010207D5C0EBC00177
:104B400004EB810181F83D203C3107E0C5EBC50154
:104B500004EB810181F8FD6101F5FE718A70087036
:104B600094F8BC03012807D084F8BC23206805F022
:104B700029FF280702D007E0022070BD217C04F540
:104B80007172206805F0C6FE84F8BC63002070BD19
:104B900070B50D4601F00F04C4EBC40100EB8101B8
:104BA0000B658A6400234B65012381F83D3001F8D1
:104BB0003C4F0369012B00D10A612A07027C00687F
:104BC00003D005F02BFF002070BD05F017FEFAE7BB
:104BD0002DE9F84F05680446284606F030F800280D
:104BE0007ED1206806F057F8002879D0206806F0BA
:104BF00052F8800704D52068416901F00201416143
:104C0000206806F048F8010304F5717000906CD537
:104C10000026206806F01EF880464FF4004ADFF8B0
:104C2000F0B35CE05FEAC87056D0F1B2206806F0DD
:104C30002AF80746C00708D005EB46110120C1F845
:104C4000080B3146204603F0C7F8380726D5206800
:104C5000D0F8409000EB4610D0F8081B2269012ADA
:104C60000FD0EC4B994503D1090401D5C0F808AB2E
:104C7000204600F00BFAD9450BD92069012803D052
:104C800007E0D945F0D8F3E720680121009A05F044
:104C900041FE05EB46110820C1F8080BF80604D5C3
:104CA00005EB46111020C1F8080BB8060CD5206999
:104CB000012804D120680121009A05F02BFE05EBA4
:104CC00046102021C0F8081BB80405D505EB461096
:104CD0004FF40051C0F8081B4FEA5808761C01E059
:104CE00093E102E0B8F1000F9CD1206805F0D3FFFA
:104CF00040034FF000095FD5206805F0A4FF80460F
:104D0000002656E05FEAC87050D0F1B2206805F086
:104D1000A8FF0746C00727D006F00F01012202FABC
:104D200001F0D5F834188143C5F8341805EB461066
:104D3000C0F808292069012807D1C6EBC60004EB9A
:104D40008000D0E9112111448164F1B22046FFF7BF
:104D50004CFE2069012807D136B9206D20B92068A2
:104D60000121009A05F0D6FD380704D505EB461160
:104D70000820C1F80809F80604D505EB46111020F3
:104D8000C1F80809780604D505EB46104021C0F8A3
:104D90000819B80704D505EB46100221C0F8081918
:104DA000380603D53146204603F082F84FEA58080A
:104DB000761CB8F1000FA5D1206805F06CFF002823
:104DC00011DAD5F8040820F00101C5F8041894F8A8
:104DD000F40301282BD0204600F03CF920684169FB
:104DE00001F000414161206805F055FF00050BD539
:104DF000D5F80808C00702D0204600F04FF9206817
:104E0000416901F400614161206805F044FFC0047C
:104E100060D5D5F8040820F00101C5F80418102168
:104E2000206805F0EDFE00214FF67F3219E084F88E
:104E3000F49300212046FFF7D3FDCFE705EB4110A7
:104E4000C0F80829D0F8003923F40013C0F800395D
:104E5000C0F8082BD0F8003B23F40013C0F8003B47
:104E6000491C60688842E9D8D5F81C0840F0011157
:104E7000C5F81C18206B002828460DD0D0F88408EF
:104E800040F00B01C5F88418D5F8440840F00B0138
:104E90002846C5F844180DE0D0F8140842F22B015A
:104EA0000843C5F81408D5F8100840F00B0128464F
:104EB000C5F81018D0F8000820F4FE61C5F80018F5
:104EC000217C2068009A05F025FD2068416901F4E5
:104ED00080514161206805F0DEFE800415D5206810
:104EE00005F072FC206805F09DFEE06000F024FAF9
:104EF0000146227B206805F0F3FE204600F094F87E
:104F00002068416901F400514161206805F0C3FE49
:104F1000C00634D52068816921F0100181612F6AB3
:104F200007F00F00C0EBC00004EB8006C7F343405E
:104F300006F5FE76022802D0062811D01AE047F6C0
:104F4000F070074216D0C7F30A1217462846F168D8
:104F500005F0A5FEF0683844F060B069384408E018
:104F600008222846009905F09AFEB069C7F30A1195
:104F70000844B0612068816941F0100181612068B6
:104F800005F089FE000707D5204600F067F8206885
:104F9000416901F008014161206805F07CFEC00212
:104FA00008D50021204600F037F82068416901F457
:104FB00080114161206805F06EFE800208D5002155
:104FC000204600F02DF82068416901F4001141618C
:104FD000206805F060FE400007D52046FFF701FD80
:104FE0002068416901F080414161206805F053FE6D
:104FF00040070AD520684568680702D52046FFF7B4
:1050000007FD2068416829434160BDE8F88F000032
:105010000A30544F0A31544FD0F8040405F033B924
:10502000D0F8040405F031B970B50446C068012514
:1050300070B1022801D0FEF721F82946D4F8040403
:1050400005F074F9D4F80404BDE8704005F034B9F3
:105050000025F2E7D0F8040405F056B9D0F80404AE
:1050600005F058B910B5044690F8BC0301280BD0E0
:10507000012084F8BC0384F83810206805F01EFE77
:10508000002084F8BC0310BD022010BDD0F8042419
:1050900000F57171104605F055B9000010B50446D1
:1050A000D0F8040405F084F92068D0F8001E41F01F
:1050B0000101C0F8001E206A002804D002480168DF
:1050C00041F00601016010BD10ED00E02DE9F8434C
:1050D000044600684FF00109C1074FF0000501D1F7
:1050E000400726D5DFF80C81C8F86850FFF73EF876
:1050F0000646414F04E0FFF739F8801B022857D8D5
:1051000038680001F7D46068217A800140EA0170B4
:10511000394984310860C8F86890FFF727F80646D7
:1051200004E0FFF723F8801B022841D8386800010B
:10513000F7D52078800752D52F484030016841F0DC
:105140008051016000682D4F00F080500090386859
:1051500040F480703860FFF709F8064604E0FFF776
:1051600005F8801B022823D83868C005F7D5224EE1
:105170007036306810F4407020D0A18901F440717D
:1051800081421BD030681E4920F44070C1F8009065
:105190000D6030603068C00710D0FEF7E7FF0546AD
:1051A00041F2883707E0FEF7E1FF401BB84202D921
:1051B0000320BDE8F88330688007F4D5E0680E4925
:1051C000C0F301220831032A0BD0086820F4F8103C
:1051D00008603068A189C1F30B01084330600020EA
:1051E000E7E70A68074B22F4F812184002430A6006
:1051F000EFE7000000004742003802400070004026
:10520000400E4742FFFCFF0F2DE9F0470D4604001A
:1052100065D0DFF81491D9F80000EFB200F00F006C
:10522000A84207D289F80070D9F8000000F00F00FA
:10523000A84254D120683D4E810712D5400703D5BE
:10524000306840F4E05030602078000703D53068C3
:1052500040F4604030603068A16820F0F0000843FE
:1052600030602078C0072DD03049606808390128A7
:1052700012D0022813D0032811D009688907002909
:105280002DDA316821F0030101433160FEF76EFF32
:10529000804641F2883A0EE009688903EFE7096821
:1052A0008901ECE7FEF762FFA0EB0801514502D946
:1052B0000320BDE8F0873068616800F00C00B0EBB7
:1052C000810FEFD1D9F80010484601F00F01A94233
:1052D00007D90770006800F00F00A84201D0012034
:1052E000E7E72078400705D53068E16820F4E05012
:1052F000084330602078000706D53068216920F423
:10530000604040EAC100306000F03CF83168084A73
:10531000C1F30311515CC840064908600F20FFF734
:10532000E3FA0020C5E70000003C024008380240D4
:10533000AC120108400000200148006870470000DE
:10534000400000200448054900680968044AC1F388
:105350008221515CC840704740000020083802405C
:10536000BC1201080448054900680968044AC1F3F1
:105370004231515CC840704740000020083802406C
:10538000BC120108154810B5006810F00C01144853
:1053900013D0144B04290FD008290ED10F4C241F11
:1053A000216801F03F022168490207D52068C0F357
:1053B0008810A0FB030106E0184610BD2168C1F368
:1053C0008811A1FB00010023FBF79AF82168C1F3C3
:1053D0000141491C4900B0FBF1F010BD0838024002
:1053E0000024F400001BB7002DE9F84F040073D02F
:1053F0002078BD4DC00748D0BB4808300168C1F3D4
:105400008101012908D00068C0F3810002280AD177
:10541000281D0068400206D52868800335D56068DD
:105420000028E4D031E06068B0F5803F10D0B0F5DE
:10543000A02F286810D020F480302860286820F43D
:10544000802028606068A0B1FEF790FE06460CE060
:10545000286840F48030F4E740F480202860F7E7C3
:10546000FEF784FE801B642872D828688003F7D575
:105470000BE0FEF77BFE064604E0FEF777FE801B9E
:105480006428F1D828688003F7D42078DFF85C928C
:1054900080074FF0000A3ED593480830016811F0AC
:1054A0000C0F09D00068C0F3810002280BD18E4890
:1054B000001D0068400206D42868800715D5E06802
:1054C000012809D111E0E068B8B10120C9F8000055
:1054D000FEF74CFE064605E003E1FEF747FE801BA3
:1054E0000228C1D828688007F7D52868216920F0EC
:1054F000F80040EAC10028600DE0C9F800A0FEF7FE
:1055000035FE064604E0FEF731FE801B02281FD858
:1055100028688007F7D42078000722D5724F744995
:105520006069743770B101200860FEF71FFE0646FF
:1055300004E0FEF71BFE801B022809D838688007AC
:10554000F7D50EE0C1F800A0FEF710FE064605E014
:1055500081E0FEF70BFE801B02287CD838688007AC
:10556000F7D42078400769D5DFF87CB14FF0000808
:105570000BF1400BDBF80000C0000CD4DBF800108E
:1055800041F08051CBF80010DBF800004FF001082B
:1055900000F080500090574F3868C0050FD438682D
:1055A00040F480703860FEF7E1FD064604E0FEF747
:1055B000DDFD801B02284ED83868C005F7D54A4F5C
:1055C000A068703701280FD00528386810D020F067
:1055D00001003860386820F004003860A068B0B17D
:1055E000FEF7C4FD06460EE0386840F00100F4E71F
:1055F00040F004003860F7E7FEF7B8FD811B41F288
:105600008830814265D838688007F5D50DE0FEF70F
:10561000ADFD064606E0FEF7A9FD811B41F288308C
:10562000814256D838688007F5D4B8F1000F05D00C
:10563000DBF8001021F08051CBF80010A069C8B34E
:10564000294908310968C1F38101022949D002289A
:10565000504607D000E03CE0C9F86000FEF786FD48
:10566000044639E04F46C9F86000FEF77FFD064664
:1056700004E0FEF77BFD801B02282AD82868800101
:10568000F7D4D4E907010843A16A1B4A490802EB91
:105690000141626A41EA8211084394F82C1040EA01
:1056A00001611148001D016001203866FEF75EFDB2
:1056B000044605E013E0FEF759FD001B022808D858
:1056C00028688001F7D50AE0FEF750FD001B02288C
:1056D00002D90320BDE8F88F28688001F4D40020A7
:1056E000F8E70120F6E700000038024000004742DA
:1056F000800E4742007000400000FFFF70B50400BC
:1057000003D06079002510B105E0012070BD25713E
:10571000204600F00DF8022060712068016841F019
:105720000401016001206071A560002070BD0000CF
:1057300008B500680649884208D10648016841F06A
:1057400040010160006800F04000009008BD0000CA
:10575000000806503438024070B5040002D0607F63
:1057600010B106E0012070BD00202077204600F037
:1057700049F8022060772168CA20486221685320D6
:105780004862204602F01AFDFF25042618BB206857
:1057900081681B4A114081602068816862681143FA
:1057A000D4E904231A43114381602168E068086149
:1057B00020680169228941EA024101612068C168CB
:1057C00021F08001C16020688068800607D42046EF
:1057D00000F024F818B1206845626677C2E72068B7
:1057E000016C21F4802101642068016CA2691143DD
:1057F00001642068456201206077002070BD0000D0
:10580000BFFF8FFF00680349884202D1024901208F
:1058100008607047002800403C0E474270B50546BE
:105820000068C16821F0A001C160FEF79FFC04463A
:105830004FF47A7606E0FEF799FC001BB04201D9DE
:10584000032070BD2868C0688006F4D5002070BDB4
:1058500070B5040005D00025A56294F8510010B180
:1058600006E0012070BD84F85050204600F030F86A
:10587000022084F851002068016821F04001016095
:10588000D4E901010843D4E90312114308436169D3
:105890000843218B01F400710843E1690843216A40
:1058A0000843A16A084321680860A069042101EA4D
:1058B0001040616A0843216848602068C16921F48A
:1058C0000061C1616565012084F85100002070BD50
:1058D0002DE9F04786B0044614216846FAF75AFFCE
:1058E00045492068454A022601270323DFF8108135
:1058F00000254FF0050C88425ED140481430016805
:1059000041F480510160006800F4805005901068F7
:1059100040F002001060106800F00200059010686E
:1059200040F0010010601068994600F001000590F9
:105930001820E2468DE8C10669464046FEF730FB76
:1059400080208DE8C10669462E48FEF729FB2F4EC0
:105950002D484FF0C0673060C6E901754FF480688C
:10596000C6E9035875617812B561C6E9075030463B
:105970007562FEF759FA08B1FDF780FBE664B4637F
:10598000224E214860361830E6E802074020A6E89B
:105990002101C00246F81459B561C6E907501B48F9
:1059A00075626030FEF740FA08B1FDF767FBA66448
:1059B000B46306B0BDE8F08715498842F9D10F48B5
:1059C0001030016841F480410160006800F48040BB
:1059D0000590106840F0020010601068694600F001
:1059E000020005904FF460408DE8C100CDE9033C12
:1059F0004046FEF7D5FADCE700300140303802407F
:105A00000004024000000240406402406C0E00208E
:105A1000003800402DE9F84F044690F85000012569
:105A20000A9E1F4692468B464FF0000801280ED072
:105A3000012084F85000FEF799FB814694F851004C
:105A4000616801280CD0B1F5827F07D102E0022005
:105A5000BDE8F88FA16809B9042801D00220B6E09A
:105A6000BBF1000F27D0BAF1000F24D01FB394F878
:105A70005100042802D0052084F851000020606500
:105A8000C4F838A0E787A787C4F830B0E786A786B0
:105A90002064606420680168490603D4016841F00D
:105AA00040010160E068B0F5006F606805D0E8B3C0
:105AB000012F43D079E0012089E008B1012F34D1D2
:105AC000206B21680088C860206B801C2063E08EFA
:105AD000401EE08629E02068816889070DD5E18EA7
